:020000040800F2
:10000000F039002099010008AD270008D525000827
:10001000A527000829080008E12B000800000000BF
:1000200000000000000000000000000001010008C6
:100030002D08000800000000450100086D4300087D
:10004000B3010008B3010008B3010008B3010008C0
:10005000B3010008B30100082F08000839080008A0
:10006000B3010008B3010008B3010008B3010008A0
:10007000B3010008B3010008B3010008B301000890
:10008000B3010008B3010008B3010008B301000880
:10009000B3010008B3010008B3010008B301000870
:1000A000B3010008B3010008B3010008B301000860
:1000B000B3010008B3010008B3010008B301000850
:1000C000B3010008B3010008B3010008B301000840
:1000D000B3010008B3010008B3010008B301000830
:1000E000B3010008B3010008B3010008DFF80CD029
:1000F00000F09EFA004800474D360008F039002015
:10010000224B19680868B0E8F00F80F30988BFF344
:100110006F8F4FF0000080F311884EF00D0E704786
:100120000000000006480068006880F3088862B696
:1001300061B6BFF34F8FBFF36F8F00DF00BF00BF0B
:1001400008ED00E0EFF30980BFF36F8F0F4B1A68E3
:1001500020E9F00F106008B54FF0BF0080F3118860
:10016000BFF34F8FBFF36F8F04F0B6F84FF000006E
:1001700080F31188BDE8084019680868B0E8F00FFE
:1001800080F30988BFF36F8F704700BF30000020F5
:10019000EFF3058070470000064880470648004797
:1001A000FEE7FEE7FEE7FEE7FEE7FEE7FEE7FEE727
:1001B000FEE7FEE795280008ED000008202A04DB92
:1001C000203A21FA02F00021704721FA02F3D040D0
:1001D000C2F12002914008431946704740EA0103EA
:1001E0009B0703D009E008C9121F08C0042AFAD2ED
:1001F00003E011F8013B00F8013B521EF9D27047B1
:10020000D2B201E000F8012B491EFBD27047002258
:10021000F6E710B513460A4604461946FFF7F0FF05
:10022000204610BD421C10F8011B0029FBD1801A8A
:10023000704730B50B46014600202022012409E01A
:1002400021FA02F59D4205D303FA02F5491B04FA8F
:1002500002F52844151EA2F10102F1DC30BD2DE9A2
:10026000F05F0546002092469B468846064681463A
:1002700040241BE02846414647462246FFF79EFFA2
:1002800053465A46C01A914110D311461846224689
:1002900000F0E0F92D1A67EB01084F4622460120D5
:1002A000002100F0D7F917EB00094E41201EA4F100
:1002B0000104DFDC484631462A464346BDE8F09F4C
:1002C0002DE9FE4F804681EA0300C00F0C460090E6
:1002D00021F0004123F00045B8EB0200A94105D20E
:1002E0004046214690461C460B46024623F00040FD
:1002F000104347D0270DC7F30A00C3F30A510290F9
:10030000401A019040286BDAC3F3130040F4801BBD
:100310000098924620B10023D2EB030A63EB0B0B4B
:1003200001985946C0F14002504600F093F9064644
:100330000D4650465946019A00F09BF910EB080013
:100340006141002487EA115284EAE7731A4340D0DE
:10035000009A62B3019A012A4FEA075215DC001B8A
:1003600061EB02014FF0004202EA0752CDE9004280
:10037000001C41F5801132462B4600F09BF903B07A
:10038000BDE8F08F40462146F9E7001B61EB020112
:10039000001C41F5801300185B412018A2F50017DE
:1003A00047EB030140EAD570B6196D4111E06D08C5
:1003B0004FEA360645EAC0754FEA0752001B61EB6B
:1003C0000201001C41F5801149084FEA3000001974
:1003D000514132462B4603B0BDE8F04F00F05BB907
:1003E0000098012240000023D0EB020263EBE0738F
:1003F000009821464FEAE074B8EB000061EB04017D
:10040000E9E783F000435BE781F0004158E72DE91D
:10041000FE4F81EA030404F0004421F000410094FF
:100420004FF0000B23F0004350EA01045ED052EA83
:1004300003045BD0C3F30A54C1F30A552C44A4F25D
:10044000F3340194A0FB0254C1F3130141F4801171
:10045000C3F3130343F4801301FB024400FB034E78
:10046000840A970A44EA815447EA8357A4FB076841
:1004700002958D0A05FB07854FEA932C04FB0C546B
:100480002705029D4FEA065847EA1637B5EB0805DF
:100490006EEB070C870E920E47EA811742EA831231
:1004A000A7FB0201B6EB0B0164EB00042B0D43EA42
:1004B0000C335E1844EB1C50DA465146E7FB020150
:1004C000C5F313044FEA0B3343EA14534FEA0432E3
:1004D000019C43EA0603A4F10C040294009CCDE9BC
:1004E00000B400F0E7F803B0BDE8F08F002001464B
:1004F000F9E72DE9F04D81EA030404F0004B21F007
:10050000004514464FF0000A23F0004150EA05026E
:1005100020D054EA01021DD0C5F30A570246C5F3A4
:100520001303C1F31300C1F30A5640F4801543F4DA
:100530008013A7EB0608101BD64608F2FD3873EBB4
:10054000050002D308F1010801E092185B41B8F1FF
:10055000000F03DA00200146BDE8F08D00204FF4C3
:100560008011064684460EE0171B73EB050705D382
:10057000121B63EB050306434CEA010C49084FEAE2
:10058000300092185B4150EA0107EDD152EA0300B6
:1005900012D082EA040083EA0501084305D0101B4B
:1005A000AB4106D20122002306E000224FF00043B7
:1005B00002E06FF0010253101AEB06004CEB0851F9
:1005C00010EB0A0041EB0B01BDE8F04D00F063B801
:1005D000C1F30A52C1F3130140F2FF3341F4801119
:1005E0009A4202DA00200146704740F233439A42B1
:1005F000A2F2334202DC5242FFF7E0BD00F02AB81B
:1006000030B5041E71F1000404DB4FF00044404299
:1006100064EB0101141E73F1000405DB1C464FF06E
:100620000043524263EB0403994208BF904230BD3D
:10063000064C074D06E0E06840F0010394E807002F
:1006400098471034AC42F6D3FFF754FD544B0008E2
:10065000744B0008202A04DB203A00FA02F1002043
:1006600070479140C2F1200320FA03F319439040F0
:100670007047202A06DBCB17203A41FA02F043EA02
:10068000E07306E041FA02F3D040C2F1200291404B
:1006900008431946704710B5141E73F1000408DAB8
:1006A000401C41F1000192185B411A4301D120F036
:1006B000010010BD2DE9F04D92469B4611B1B1FAF3
:1006C00081F202E0B0FA80F220329046FFF7C2FFDA
:1006D00004460F4640EA0A0041EA0B0153465A46D7
:1006E000084313D0114653EA010019D0C8F1400263
:1006F0005046FFF763FD05460E46504659464246B2
:10070000FFF7A8FF084305D0012004E02046394642
:10071000BDE8F08D0020054346EAE0762C433743E0
:100720000A986305E40AA0EB08000022FD0A44EAE7
:1007300047540A3002D500200146E9E701051019A7
:100740006941DDE9084500196941BDE8F04DA2E7BE
:1007500070B5044600252068806800F00100F0B103
:100760002068806820F001002168886000F0E6FEC3
:1007700005460EE000F0E2FE401B022809D9A06AFF
:1007800040F01000A062E06A40F00100E062012049
:1007900070BD2068806800F001000028EAD10020C8
:1007A000F6E7000038B504460025002000902068D8
:1007B000806800F0010080BB2068806840F0010084
:1007C00021688860164800681649B0FBF1F0009077
:1007D00002E00098401E009000980028F9D100F037
:1007E000ADFE054613E000F0A9FE401B02280ED91D
:1007F000A06A40F01000A062E06A40F00100E062F0
:1008000000BF002084F8240000BF012038BD20680C
:10081000806800F001000028E5D00020F6E7000025
:100820002C00002040420F0000BFFEE7704710B5CB
:10083000012000F009FC10BD10B5022000F004FCFE
:1008400010BD7047F8B505460C4600260020009004
:100850009F492868884203D09E492868884200D171
:1008600004E040F2AA619CA002F03CFE206890B334
:10087000206801282FD0206802282CD02068032867
:1008800029D02068042826D02068052823D0206895
:10089000062820D0206807281DD0206808281AD0F4
:1008A0002068092817D020680A2814D020680B284F
:1008B00011D020680C280ED020680D280BD020689D
:1008C0000E2808D020680F2805D02068102802D0F4
:1008D0002068112800D104E040F2AB617EA002F054
:1008E00001FE606801282CD06068022829D0606869
:1008F000032826D06068042823D06068052820D00B
:10090000606806281DD0606807281AD0606808282B
:1009100017D06068092814D060680A2811D0606870
:100920000B280ED060680C280BD060680D2808D00A
:1009300060680E2805D060680F2802D06068102813
:1009400000D104E040F2AC6163A002F0CBFDA068EE
:10095000A0B1A068012811D0A06802280ED0A0681C
:1009600003280BD0A068042808D0A068052805D06B
:10097000A068062802D0A068072800D104E040F251
:10098000AD6155A002F0AEFD00BF95F8240001282E
:1009900001D10220F8BD012085F8240000BF606865
:1009A000072812D22868406B2179491E01EB810289
:1009B0001F21914088432279521E02EB8202216856
:1009C000914008432968486327E060680D2812D2E7
:1009D0002868006B2179C91F01EB81021F2191401A
:1009E00088432279D21F02EB82022168914008439A
:1009F0002968086311E02868C06A21790D3901EB84
:100A000081021F219140884322790D3A02EB820234
:100A10002168914008432968C86220680A2812D3D7
:100A20002868C06821780A3901EB4102072191400A
:100A3000884322780A3A02EB4202A16891400843B7
:100A40002968C8600FE028680069217801EB41023D
:100A5000072191408843227802EB4202A16891402D
:100A60000843296808612068102802D020681128EE
:100A700027D11749286888421ED12868806800F469
:100A80000000F0B92868806840F400002968886098
:100A90002068102815D11E4800681E49B0FBF1F0EF
:100AA00000EB80004000009002E00098401E0090A3
:100AB00000980028F9D104E0A86A40F02000A8625C
:100AC000012600BF002085F8240000BF304661E702
:100AD00000240140002801402E2E2F4472697665C3
:100AE00072732F53544D3332463178785F48414CFE
:100AF0005F4472697665722F5372632F73746D331E
:100B000032663178785F68616C5F6164632E630080
:100B10002C00002040420F0010B504460849206810
:100B2000884203D007492068884200D104E04FF48E
:100B3000B96105A002F0D6FC2068C06C10BD0000B1
:100B400000240140002801402E2E2F447269766552
:100B500072732F53544D3332463178785F48414C8D
:100B60005F4472697665722F5372632F73746D33AD
:100B700032663178785F68616C5F6164632E630010
:100B80002DE9F0410446002700250026A84614B9A7
:100B90000120BDE8F08182492068884203D0814964
:100BA0002068884200D104E04FF4C1717EA002F0B9
:100BB00099FC606818B16068B0F5006F00D104E07E
:100BC00040F2831178A002F08DFCA06818B1A068F3
:100BD000B0F5807F00D104E04FF4C27172A002F042
:100BE00081FCE06810B1E068012800D104E040F227
:100BF00085116DA002F076FCE069B8B1E069B0F54E
:100C0000003F13D0E069B0F5C02F0FD0E069B0F518
:100C1000002F0BD0E069B0F5202F07D0E069B0F5C8
:100C2000402F03D0E069B0F5602F00D104E04FF40D
:100C3000C3715DA002F056FCA068002822D0206994
:100C400018B12069102800D804E04FF4C57156A0EF
:100C500002F048FC606910B16069012800D104E02D
:100C600040F28B1150A002F03DFC606950B1A069C8
:100C700018B1A069082800D804E04FF4C7714AA051
:100C800002F030FCA06A30B90020E06284F8240051
:100C9000204600F0A9F82046FFF75AFD0746A06A53
:100CA00000F01000002873D1002F71D1A06A20F449
:100CB000885040F00200A062E16960680843E16882
:100CC00040EA41000643A068B0F5807F02D0A068EA
:100CD000012802D14FF4807000E0002005436069D4
:100CE000012811D1E06838B9A069401E4FF40061B5
:100CF00041EA4030054307E0A06A40F02000A062CE
:100D0000E06A40F00100E0622068406820F4694039
:100D10002843216848602068806831490840304392
:100D200021688860A068B0F5807F02D0A0680128A3
:100D300002D14FF4807000E00020B0F5807F03D135
:100D4000208A401E4FEA00582068C06A20F47000D4
:100D500040EA08002168C86220688068214908408C
:100D6000B04208D10020E062A06A20F0020040F00A
:100D70000100A06211E0A06A20F0020040F0100023
:100D8000A062E06A40F00100E062012705E0FFE7B1
:100D9000A06A40F01000A06201273846F9E6000082
:100DA00000240140002801402E2E2F4472697665F0
:100DB00072732F53544D3332463178785F48414C2B
:100DC0005F4472697665722F5372632F73746D334B
:100DD00032663178785F68616C5F6164632E6300AE
:100DE000FDF7E1FFFE0E1FFF10B586B004460020A0
:100DF000029003900490059014492068884222D103
:100E000000BF1348806940F40070114988610846AA
:100E1000806900F40070019000BF00BF00BF084669
:100E2000806940F0040088610846806900F0040091
:100E3000019000BF00BF022002900320039002A98E
:100E4000044800F00FF906B010BD00000024014076
:100E5000001002400008014070B5044600255049CA
:100E60002068884203D04F492068884200D104E0BE
:100E700040F203314CA002F035FB00BF94F824008F
:100E8000012801D1022070BD012084F8240000BF98
:100E90002046FFF787FC0546002D79D1A06A40F275
:100EA0000121884340F48070A0623E492068884256
:100EB00009D13B48001D006800F4702008B90120EA
:100EC00002E0002000E0012078B1A06A20F4801048
:100ED000A0622068406800F4806000B3A06A20F43B
:100EE000005040F48050A06219E0A06A40F48010E5
:100EF000A0622B492068884203D02A492068884292
:100F000005D12748001D006800F4806000E0002043
:100F100028B1A06A20F4005040F48050A062A06A7A
:100F200000F4805020B1E06A20F00600E06201E0A9
:100F30000020E06200BF002084F8240000BFC01E33
:100F4000216808602068806800F46020B0F5602F98
:100F500017D114492068884209D11148001D006842
:100F600000F4702008B9012002E0002000E0012018
:100F700038B12068806840F4A000216888600CE0E7
:100F800006E02068806840F480102168886004E0F2
:100F900000BF002084F8240000BF284673E700004B
:100FA00000240140002801402E2E2F4472697665EE
:100FB00072732F53544D3332463178785F48414C29
:100FC0005F4472697665722F5372632F73746D3349
:100FD00032663178785F68616C5F6164632E6300AC
:100FE00070B5044600F0AAFA06462546681C10B102
:100FF00004480078054400BF00F0A0FA801BA84216
:10100000FAD370BD280000201CB5044601200190D1
:101010000020009000236A4601A90948006803F0F7
:10102000A5FA0198401C0190009838B14FF080500B
:1010300004490860BFF34F8FBFF36F8F1CBD0000E2
:101040001C00002004ED00E010B5044604480068D0
:10105000204020B1024804602046FFF7D5FF10BDB4
:10106000140401402DE9FC5F05460C464FF00008D2
:101070000026B146002001908346DB4885420BD014
:10108000DA48854208D0DA48854205D0D9488542F9
:1010900002D0D948854200D103E0CD21D7A002F08B
:1010A00021FA208880B220B120686FF30F0000B9C8
:1010B00003E0CE21D1A002F015FA606830B3606879
:1010C000012823D06068112820D0606802281DD034
:1010D000606812281AD0D8496068884216D0D7496B
:1010E0006068884212D0D649606888420ED0D549DF
:1010F000606888420AD0D4496068884206D0D349E3
:101100006068884202D06068032800D103E0CF21E4
:10111000BAA002F0E7F9002761E1012000FA07F820
:10112000206800EA080646456FD1AF4885420BD0DB
:10113000AE48854208D0AE48854205D0AD488542CC
:1011400002D0AD48854200D103E0DD21ABA002F022
:10115000C9F9B94A6068811A90426AD00EDC032846
:1011600075D006DC002863D0012819D002286FD181
:1011700039E0112825D01228F9D147E0B1F5881FB0
:101180005BD006DCB1F5803F56D0B1F5801F7AD137
:1011900050E0B1F5001F4ED0B1F5041F73D14DE002
:1011A000E068022805D0E068012802D0E068032842
:1011B00000D103E0E52191A002F094F9E0680190EC
:1011C00062E0E068022805D0E068012802D0E0680B
:1011D000032800D103E0EC2188A002F083F9E06845
:1011E000001D019050E0E068022805D0E068012869
:1011F00002D0E068032800D103E0F3217FA002F0D1
:1012000071F9E068083001903EE0DDE0E068022816
:1012100005D0E068012802D0E068032800D103E08F
:10122000FA2176A002F05EF9E0680C3001902BE024
:1012300000BF00BF00BF00BF00BF00BFA06828B153
:10124000A068012802D0A068022802D106E017E0B9
:1012500019E040F2071169A002F044F9A06810B942
:10126000042001900BE0A068012804D1082001901F
:10127000C5F8108003E008200190C5F8148003E051
:101280000020019000E000BF00BFFF2E01D82846DB
:1012900000E0281D8246FF2E01D8B80002E0A7F129
:1012A000080080008346DAF800000F2101FA0BF1F4
:1012B0008843019901FA0BF10843CAF800006068FD
:1012C00000F08050B0F1805F7ED100BF604880693F
:1012D00040F001005E4988610846806900F0010025
:1012E000009000BF00BF4FEAB130B90850F821901C
:1012F000B807010F0F20884029EA00093A488542C3
:1013000001D100200FE03948854201D101200AE0D7
:101310003748854201D1022005E03648854201D197
:10132000032000E00420B907090F884040EA0909BA
:101330004848B90840F82190606800F48030B0F562
:10134000803F05D14448006830434349086004E0C9
:1013500041480068B04340490860606800F40030CC
:10136000B0F5003F07D13C48001D006830433A49C2
:10137000091D086006E03848001D0068B043364982
:10138000091D0860606800F48010B0F5801F07D167
:1013900031480830006830432F490831086006E0C2
:1013A0002D4808300068B0432B4908310860606858
:1013B00000F40010B0F5001F09D127480C30006878
:1013C000304325490C3100E008E0086006E022487F
:1013D0000C300068B04320490C3108607F1C102F8E
:1013E000FFF49BAEBDE8FC9F00080140000C0140EB
:1013F0000010014000140140001801402E2E2F441F
:101400007269766572732F53544D33324631787852
:101410005F48414C5F4472697665722F5372632F47
:1014200073746D3332663178785F68616C5F6770B2
:10143000696F2E63000000000000111000002110F1
:1014400000003110000012100000221000003210C5
:1014500000100240080001400004014070B506463B
:101460000C46A0B218B1200C000400B904E040F210
:10147000C31105A002F036F8B068204008B101257C
:1014800000E00025284670BD2E2E2F447269766537
:1014900072732F53544D3332463178785F48414C44
:1014A0005F4472697665722F5372632F73746D3364
:1014B00032663178785F68616C5F6770696F2E6340
:1014C0000000000070B506460C461546A0B218B1E3
:1014D000200C000400B904E040F2E31108A002F07F
:1014E00001F80DB1012D00D104E04FF4F27104A018
:1014F00001F0F8FF0DB1346101E02004306170BDEE
:101500002E2E2F447269766572732F53544D3332E9
:10151000463178785F48414C5F4472697665722F36
:101520005372632F73746D3332663178785F6861FC
:101530006C5F6770696F2E630000000001480068EF
:10154000704700002000002010B50848006840F0F7
:10155000100006490860032000F0F8F8002000F0B1
:1015600007F800F02BF8002010BD0000002002401A
:1015700070B504460E4800784FF47A71B1FBF0F074
:101580000C490968B1FBF0F5284600F023FF08B1CB
:10159000012070BD102C07D200222146501E00F001
:1015A0006BF80548046001E00120F2E70020F0E755
:1015B000280000202C0000202400002008B500BFD7
:1015C0001148806940F001000F4988610846806930
:1015D00000F00100009000BF00BF00BF0846C069D6
:1015E00040F08050C8610846C06900F0805000900B
:1015F00000BF00BF00BF0549486820F0E06000BFA1
:10160000486000BF08BD000000100240000001401B
:1016100010B50446002C00DB03E0CE2107A001F04A
:1016200061FF00BF04F01F010120884061098900AB
:1016300001F1E021C1F8000100BF10BD2E2E2F44A2
:101640007269766572732F53544D33324631787810
:101650005F48414C5F4472697665722F5372632F05
:1016600073746D3332663178785F68616C5F636F75
:10167000727465782E6300002DE9F05F80460C4699
:1016800015460027102D00D203E0BA2120A001F05A
:1016900029FF102C00D203E0BB211DA001F022FF86
:1016A00001F086F80746394622462B4601F007002E
:1016B000C0F1070ABAF1040F02D94FF0040A01E0A1
:1016C000C0F1070AD14600F1040ABAF1070F02D2AD
:1016D0004FF0000A01E0A0F1030AD4464FF0010ADE
:1016E0000AFA09FAAAF1010A0AEA020A0AFA0CFA43
:1016F0004FF0010B0BFA0CFBABF1010B0BEA030BE8
:101700004AEA0B063146404601F05AF8BDE8F09F20
:101710002E2E2F447269766572732F53544D3332D7
:10172000463178785F48414C5F4472697665722F24
:101730005372632F73746D3332663178785F6861EA
:101740006C5F636F727465782E63000010B5044699
:10175000072C07D0062C05D0052C03D0042C01D073
:10176000032C00D103E0A22109A001F0BBFE00BFC1
:1017700004F00701154A10684FF6FF021040144AA2
:10178000024342EA0120114A106000BF10BD000070
:101790002E2E2F447269766572732F53544D333257
:1017A000463178785F48414C5F4472697665722FA4
:1017B0005372632F73746D3332663178785F68616A
:1017C0006C5F636F727465782E6300000CED00E04F
:1017D0000000FA05F8B5044600260025207800F040
:1017E000010048B9207800F00200022804D02078D7
:1017F00000F01000102800D103E07C2161A001F06E
:1018000071FE207800F0010000287DD0606858B19A
:101810006068B0F5807F07D06068B0F5007F03D0C6
:101820006068B0F5407F00D103E0822155A001F04F
:1018300059FE00276248C06900F0805070B900BFAF
:101840005F48C06940F080505D49C8610846C06982
:1018500000F08050009000BF00BF01275948006889
:1018600000F48070B0B95748006840F48070554962
:101870000860FFF763FE064606E0FFF75FFE801B89
:10188000642801D90320F8BD4E48006800F4807038
:101890000028F2D04A48006A00F440752DB3A088B1
:1018A00000F44070A84220D04548006A20F44075FA
:1018B000012045490860002008604148056205F0A4
:1018C000010090B1FFF73AFE064608E0FFF736FE4A
:1018D000801B41F28831884201D90320D3E7384880
:1018E000006A00F002000028F0D03548006A20F4B9
:1018F00040706168084332490862012F06D10846EA
:10190000C06920F0805000E001E0C86100BF20788D
:1019100000F0020002281AD1A06858B1A068B0F502
:10192000804F07D0A068B0F5004F03D0A068B0F595
:10193000404F00D103E0C92112A001F0D3FD20489F
:10194000406820F44040A16808431D494860207861
:1019500000F01000102813D1E068B0F5800F01D01E
:10196000E06800B904E040F2251106A001F0BAFDDC
:101970001348406820F48000E1680843104948603B
:10198000002080E72E2E2F447269766572732F53E4
:10199000544D3332463178785F48414C5F44726928
:1019A0007665722F5372632F73746D33326631789C
:1019B000785F68616C5F7263635F65782E630000B7
:1019C00000100240007000404004424270B50446DE
:1019D0000D46002604B104E040F22E31AFA001F024
:1019E00081FD207800F0010070B9207800F002003D
:1019F000022809D0207800F00400042804D02078C0
:101A000000F00800082800D104E040F22F31A3A024
:101A100001F068FD1DB1012D01D0022D00D104E0BF
:101A20004FF44C719DA001F05DFDAA48006800F0E4
:101A30000700A8420ED2A748006820F007002843FC
:101A4000A44908600846006800F00700A84201D0D9
:101A5000012070BD207800F0020002283DD12078DE
:101A600000F00400042805D19B48406840F4E06081
:101A700099494860207800F00800082805D1964868
:101A8000406840F4605094494860A068B8B1A068CC
:101A9000802814D0A068902811D0A068A0280ED06B
:101AA000A068B0280BD0A068C02808D0A068D028B3
:101AB00005D0A068E02802D0A068F02800D104E09A
:101AC00040F2563175A001F00DFD8348406820F0CA
:101AD000F000A168084380494860207800F00100C8
:101AE00000286BD0606828B16068012802D0606867
:101AF000022800D104E040F25D3168A001F0F2FC60
:101B00006068012806D17448006800F4003090B97C
:101B100001209EE76068022806D16F48006800F047
:101B2000007040B9012094E76B48006800F00200A3
:101B300008B901208DE76848406820F0030061681B
:101B4000084365494860FFF7F9FC064660680128CC
:101B500010D108E0FFF7F2FC801B41F28831884287
:101B600001D9032075E75C48406800F00C000428A8
:101B7000F0D123E06068022810D108E0FFF7DEFC16
:101B8000801B41F28831884201D9032061E7524825
:101B9000406800F00C000828F0D10FE008E0FFF7E3
:101BA000CDFC801B41F28831884201D9032050E7E7
:101BB0004948406800F00C000028F0D14548006812
:101BC00000F00700A8420ED94248006820F0070044
:101BD0002843404908600846006800F00700A84212
:101BE00001D0012035E7207800F0040004281FD13F
:101BF000E06878B1E068B0F5806F0BD0E068B0F5D0
:101C0000A06F07D0E068B0F5C06F03D0E068B0F512
:101C1000E06F00D104E040F2B13120A001F062FC9D
:101C20002D48406820F4E060E16808432A49486094
:101C3000207800F00800082820D1206978B12069B8
:101C4000B0F5806F0BD02069B0F5A06F07D0206988
:101C5000B0F5C06F03D02069B0F5E06F00D104E0AB
:101C60004FF46E710DA001F03DFC1B48406820F45C
:101C70006050216940EAC1001749486000F058F8F7
:101C800015494968C1F30311144A515CC84014490D
:101C900008600020FFF76CFC0020DAE62E2E2F44AF
:101CA0007269766572732F53544D333246317878AA
:101CB0005F48414C5F4472697665722F5372632F9F
:101CC00073746D3332663178785F68616C5F72630C
:101CD000632E630000200240001002403C4B0008CD
:101CE0002C00002001480068704700002C000020F4
:101CF00000B5FFF7F7FF04494968C1F30221034A21
:101D0000515CC84000BD0000001002404C4B000870
:101D100000B5FFF7E7FF04494968C1F3C221034A50
:101D2000515CC84000BD0000001002404C4B000850
:101D3000F0B585B00FF26C0C9CE8E01001A8A0E8AB
:101D4000E0101CA52D68009500210022002300242E
:101D50000020194D696801F00C05F5B1042D02D081
:101D6000082D19D101E0154819E001ADC1F38346F2
:101D7000AC5D01F4803555B10F4D6D68C5F340453C
:101D80001DF805200D4D6543B5FBF2F302E00C4D47
:101D900004FB05F3184602E000BF084800BF00BF7F
:101DA00005B0F0BD02030405060708090A0B0C0D77
:101DB0000E0F1010010200000010024000127A0005
:101DC00000093D00F8B50446002504B104E04FF4D5
:101DD000B871F7A001F086FB206890B1207800F080
:101DE000010070B9207800F00200022809D02078A4
:101DF00000F00800082804D0207800F0040004282F
:101E000000D104E040F27111E9A001F06BFB2078F1
:101E100000F00100002870D0606838B16068B0F54B
:101E2000803F03D06068B0F5A02F00D104E040F2FD
:101E30007711DFA001F056FBEB48406800F00C0082
:101E400004280CD0E848406800F00C00082811D1A4
:101E5000E548406800F48030B0F5803F0AD1E248A0
:101E6000006800F40030002860D0606800285DD170
:101E70000120F8BD00BF6068B0F5803F06D1DA48A8
:101E8000006840F48030D849086028E0606858B99C
:101E9000D548006820F48030D349086008460068BF
:101EA00020F4802008601AE06068B0F5A02F0BD104
:101EB000CD48006840F48020CB490860084600689F
:101EC00040F4803008600AE0C748006820F48030A1
:101ED000C54908600846006820F48020086000BFFB
:101EE000606890B1FFF72AFB054607E0FFF726FB85
:101EF000401B642802D90320BBE717E0BA480068FA
:101F000000F400300028F1D010E0FFF717FB054681
:101F100006E0FFF713FB401B642801D90320A8E764
:101F2000B148006800F400300028F2D1207800F0B9
:101F3000020002286BD1206910B12069012800D16C
:101F400004E040F2AB119AA001F0CCFA60691F28BE
:101F500000D804E04FF4D67195A001F0C3FAA2486E
:101F6000406800F00C0050B19F48406800F00C0041
:101F7000082818D19C48406800F4803098B99A48E5
:101F8000006800F0020020B12069012801D0012082
:101F90006FE79548006820F0F800616940EAC100E9
:101FA0009149086033E02069E8B101208F49086059
:101FB000FFF7C4FA054606E0FFF7C0FA401B022807
:101FC00001D9032055E78848006800F00200002886
:101FD000F2D08548006820F0F800616940EAC1004D
:101FE0008149086013E0002080490860FFF7A6FAE5
:101FF000054606E0FFF7A2FA401B022801D903209C
:1020000037E77948006800F002000028F2D1207814
:1020100000F00800082838D1A06910B1A069012893
:1020200000D104E04FF4F67161A001F05BFAA06901
:10203000B8B101206E490860FFF780FA054606E056
:10204000FFF77CFA401B022801D9032011E76648FC
:10205000406A00F002000028F2D0012000F0C4FB2A
:1020600013E0002062490860FFF768FA054606E0C1
:10207000FFF764FA401B022801D90320F9E65A4809
:10208000406A00F002000028F2D1207800F004003D
:10209000042878D10026E06828B1E068012802D041
:1020A000E068052800D104E040F21B2140A001F0C7
:1020B00019FA4D48C06900F0805070B900BF4A4815
:1020C000C06940F080504849C8610846C06900F0C6
:1020D0008050009000BF00BF01264648006800F411
:1020E0008070B0B94348006840F48070414908608E
:1020F000FFF724FA054606E0FFF720FA401B6428A4
:1021000001D90320B5E63B48006800F48070002840
:10211000F2D000BFE068012806D13348006A40F0E1
:1021200001003149086227E0E06858B92E48006A8A
:1021300020F001002C4908620846006A20F00400E3
:10214000086219E0E06805280BD12748006A40F0D2
:102150000400254908620846006A40F00100086250
:102160000AE02148006A20F001001F490862084681
:10217000006A20F00400086200BFE068A0B1FFF729
:10218000DDF9054609E04FE0FFF7D8F9401B41F2C1
:102190008831884201D903206BE61348006A00F0B9
:1021A00002000028F0D036E0FFF7C8F905462CE021
:1021B0002E2E2F447269766572732F53544D33322D
:1021C000463178785F48414C5F4472697665722F7A
:1021D0005372632F73746D3332663178785F686140
:1021E0006C5F7263632E6300001002400000424285
:1021F0008004424200700040FFF7A0F9401B41F20A
:102200008831884201D9032033E67048006A00F023
:1022100002000028F0D1012E05D16C48C06920F0E1
:1022200080506A49C86100BFE06928B1E0690128AF
:1022300002D0E069022800D105E040F2B921AFF2F6
:10224000900001F04FF9E069002875D05F484068C0
:1022500000F00C00082870D0E06902286ED1206AD6
:1022600018B1206AB0F5803F00D105E040F2C221EC
:10227000AFF2C40001F036F9606AB8B3606AB0F535
:10228000802F33D0606AB0F5002F2FD0606AB0F590
:10229000402F2BD0606AB0F5801F27D0606AB0F560
:1022A000A01F23D0606AB0F5C01F1FD0606AB0F5D0
:1022B000E01F1BD0606AB0F5001F17D0606AB0F550
:1022C000101F13D0606AB0F5201F0FD0606AB0F500
:1022D000301F0BD0606AB0F5401F07D0606AB0F5C0
:1022E000501F03D0606AB0F5601F00D105E040F2D6
:1022F000C321AFF2441001F0F5F80020344908661C
:10230000FFF71CF9054606E0FFF718F9401B022805
:1023100001D90320ADE52D48006800F000700028C9
:10232000F2D1206AB0F5803F17D1A06818B1A0683B
:10233000B0F5003F03D108E045E042E02CE040F278
:10234000D921AFF2941001F0CDF82048406820F474
:102350000030A16808431D494860D4E908010843DA
:102360001A49496821F4741108431849486001204A
:1023700017490866FFF7E2F8054606E0FFF7DEF8C2
:10238000401B022801D9032073E51048006800F0C3
:1023900000700028F2D016E000200D490866FFF713
:1023A000CDF8054606E0FFF7C9F8401B022801D921
:1023B00003205EE50548006800F000700028F2D1B7
:1023C00001E0012055E5002053E500000010024027
:1023D0000000424270B504462546681EB0F1807F79
:1023E00001D301200FE0681E4FF0E02148610F216A
:1023F0004FF0FF3000F0E4F900204FF0E021886159
:1024000007200861002070BD10B504460CB90120FA
:1024100010BDA069002826D03A492068884207D01C
:1024200039492068884203D038492068884200D161
:1024300004E040F20F1136A001F054F8A06958B141
:10244000A069B0F5807F07D0A069B0F5007F03D008
:10245000A069B0F5407F00D117E04FF488712CA03F
:1024600001F040F811E027492068884207D026494A
:102470002068884203D025492068884200D104E0C2
:102480004FF48A7122A001F02DF8A06818B1A0685D
:10249000B0F5805F00D104E04FF48B711CA001F017
:1024A00021F894F8390028B9002084F83800204633
:1024B00000F04CF8242084F839002068C06820F42B
:1024C00000502168C860204600F02AFA20680069A0
:1024D00020F49040216808612068406920F02A00BB
:1024E000216848612068C06840F400502168C860D5
:1024F0000020E063202084F8390084F83A000020AE
:1025000086E70000003801400044004000480040D9
:102510002E2E2F447269766572732F53544D3332C9
:10252000463178785F48414C5F4472697665722F16
:102530005372632F73746D3332663178785F6861DC
:102540006C5F756172742E630000000010B586B078
:102550000446002002900390049005901A492068D8
:1025600088422ED100BF1948806940F48040174945
:1025700088610846806900F48040019000BF00BF78
:1025800000BF0846806940F0040088610846806901
:1025900000F00400019000BF00BF48150290022027
:1025A00003900320059002A90948FEF75BFD4FF454
:1025B0008060029000200390049002A90448FEF776
:1025C00051FD06B010BD000000380140001002406F
:1025D0000008014000BFFEE70EB50020009001900A
:1025E00002901248124908600021114881600121BF
:1025F000C160002141614FF46021C16100200C499C
:10260000486001210A480161FEF7BAFA08B1FEF7F5
:1026100018F90120009001900020029069460448BA
:10262000FEF710F908B1FEF70CF90EBD00240140C9
:102630009000002000B585B000200190029003902A
:10264000049000BF4448806940F0200042498861FE
:102650000846806900F02000009000BF00BF00BF66
:102660000846806940F0100088610846806900F0E3
:102670001000009000BF00BF00BF0846806940F016
:10268000040088610846806900F00400009000BFE3
:1026900000BF00BF0846806940F008008861084616
:1026A000806900F00800009000BF00BF002240F6E3
:1026B000FF712A48FEF706FF00224FF4F071284808
:1026C000FEF700FF00224FF470412648FEF7FAFEA5
:1026D00040F6FF700190012002900020039002203C
:1026E000049001A91D48FEF7BDFC4FF4F070019065
:1026F00001200290002003900220049001A91848B4
:10270000FEF7B0FC032001901748029000200390D0
:1027100001A91448FEF7A6FC4FF470400190012077
:102720000290002003900220049001A90D48FEF7BA
:1027300099FC00220B210620FEF79EFF0620FEF7E3
:1027400067FF00220B210720FEF796FF0720FEF708
:102750005FFF05B000BD0000001002400010014006
:1027600000080140000C01400000211010B50B488A
:102770000B4908604FF4E13048600021084881604F
:10278000C16001610C21416100218161C161FFF7DC
:102790003BFE08B1FEF755F810BD000000380140BF
:1027A000C000002000BFFEE700BF70477047000078
:1027B00002480068C0F30220704700000CED00E002
:1027C00010B5002807DA0A07140E054A00F00F03B7
:1027D0001B1FD45403E00A07130E024A135410BD02
:1027E00018ED00E000E400E008B508490968C908F0
:1027F0004FF47A72B1FBF2F14143009100BF00BF88
:1028000000994A1E00920029F9D108BD2C00002031
:1028100000B593B0282109A8FDF7F9FC142104A8FC
:10282000FDF7F5FC0020009001900290039001203C
:10283000099000040A9000200B9001200D900220C6
:102840001090C10311914FF4E011129109A8FFF704
:10285000B9FA08B1FDF7F5FF0F20049002200590AA
:10286000002006904FF4806007900020089002211D
:1028700004A8FFF7ABF808B1FDF7E3FF02200090D2
:10288000800302906846FEF7A5FF08B1FDF7D9FF67
:1028900013B000BD1148006840F001000F49086006
:1028A000084640680E4908400C49486008460068E0
:1028B0000C490840094908600846006820F4802057
:1028C00008600846406820F4FE0048604FF41F008E
:1028D0008860C80304490860704700000010024087
:1028E0000000FFF8FFFFF6FE08ED00E000BF00BFAC
:1028F000FDE7000008B500BF4FF0FF32694605480C
:10290000006801F079FE04A0009900F03FF900BFD3
:10291000F2E700001C00002025640D0A0000000002
:102920002DE9F0410446002587496068884200D2BD
:1029300004E040F6A71185A000F0D4FDE06818B1CE
:10294000E068B0F5005F00D104E040F6A8117FA078
:1029500000F0C8FD206938B12069B0F5806F03D060
:102960002069B0F5C06F00D104E040F6A91177A04E
:1029700000F0B8FD4FF6F3716069084010B9606966
:1029800000B104E040F6AA1170A000F0ABFD206891
:10299000006920F44050E16808432168086121691A
:1029A000A06808436169084305432068C06841F294
:1029B0000C61884328432168C8602068406920F47E
:1029C0004070A1690843216848616F4920688842C6
:1029D0005CD1FFF79DF900EBC00101EB00106168CD
:1029E0008900B0FBF1F6FFF793F900EBC00101EBB2
:1029F000001061688900B0FBF1F06421B0FBF1F0D8
:102A000000EBC00101EB0010A6EB8000322101EBCE
:102A100000106421B0FBF1F000F0F006FFF778F948
:102A200000EBC00101EB001061688900B0FBF1F020
:102A30006421B0FBF1F006EB0016FFF769F900EB3B
:102A4000C00101EB001061688900B0FBF1F7FFF7EE
:102A50005FF900EBC00101EB001061688900B0FB79
:102A6000F1F06421B0FBF1F000EBC00101EB0010CC
:102A7000A7EB8000322101EB00106421B0FBF1F0E4
:102A800000F00F003044216888605BE0FFF730F908
:102A900000EBC00101EB001061688900B0FBF1F6AA
:102AA000FFF726F900EBC00101EB00106168890017
:102AB000B0FBF1F06421B0FBF1F000EBC00101EBE1
:102AC0000010A6EB8000322101EB00106421B0FB66
:102AD000F1F000F0F006FFF70BF900EBC00101EB9D
:102AE000001061688900B0FBF1F06421B0FBF1F0E7
:102AF00006EB0016FFF7FCF800EBC00101EB00103D
:102B000061688900B0FBF1F7FFF7F2F800EBC00154
:102B100001EB001061688900B0FBF1F06421B0FBAB
:102B2000F1F000EBC00101EB0010A7EB80003221B7
:102B300001EB00106421B0FBF1F000F00F00304415
:102B400021688860BDE8F08121AA44002E2E2F4420
:102B50007269766572732F53544D333246317878EB
:102B60005F48414C5F4472697665722F5372632FE0
:102B700073746D3332663178785F68616C5F75614C
:102B800072742E6300000000003801400FB410B5CD
:102B900092B015A8119001A8119A149900F022F88A
:102BA000002404E001A9085D00F00CF8641C01A8F1
:102BB000FDF738FBA042F5D80020119012B010BCF0
:102BC0005DF814FB00BF0549096801F08001002988
:102BD000F9D00249091D0860704700000038014023
:102BE00000BFFEE737B514460846064B6A46214645
:102BF00000F0DCF804466946002000F06EFC204638
:102C00003EBD0000DB34000802E008C8121F08C106
:102C1000002AFAD170477047002001E001C1121F5D
:102C2000002AFBD1704700002DE9FF5F82B0002130
:102C3000DDE90430020DDDF840B0034318D044F65E
:102C40001050A2F2FF3242431514119801281FD0F0
:102C5000A5EB0B00401C5FEA000A4FF000064E4F48
:102C6000DFF83891B046504615D5CAF1000413E09C
:102C7000119801244AA3012801D16FEA0B0102989F
:102C8000119AC0E90031C0E9024206B0BDE8F09FE8
:102C9000CBF10000DFE704460021404A491842EB2F
:102CA0000450CDE9001012E0E00707D032463B4661
:102CB00040464946FDF7ABFB8046894632463B46D7
:102CC00010461946FDF7A3FB06460F466410002C7C
:102CD000EAD1DDE90401DDE90023BAF1000F06DAEB
:102CE000FDF795FB42464B46FDF791FB05E0FDF7EE
:102CF00000FC42464B46FDF7FCFB04460E46002214
:102D0000284BFDF77DFC03D84FF0FF30014607E06C
:102D10000022254B20463146FDF7D2FAFDF758FC3C
:102D2000102409E0002C0ADB0A220023FDF797FAA1
:102D3000039B30321A55641E50EA0102F2D1641C22
:102D4000039AC4F111031444119A012A03D00122F9
:102D500008430DD10AE0084304D000204FF0110BC6
:102D6000119072E7A3EB0B056D1E0DE05B4504DDD2
:102D70004FF0000205F1010504E003DA4FF0000214
:102D8000A5F10105002AECD002981199C0E90231A1
:102D9000C0E9004579E70000000014400000F03F62
:102DA000300000000000F0430000E03F2DE9FF4F3D
:102DB00095B09B468946064600250FE2252877D127
:102DC00000242746F84A0121059400E0044316F840
:102DD000013F203B01FA03F01042F7D130782A2856
:102DE00011D06FF02F033078A0F13002092A16D8E5
:102DF000059A44F0020402EB820203EB4202104403
:102E0000761C0590EFE759F8042B0592002A03DAA7
:102E1000504244F40054059044F00204761C30788B
:102E20002E2816D116F8010F44F004042A280DD0DC
:102E30006FF02F023078A0F13003092B09D807EB8F
:102E4000870302EB4303C718761CF3E759F8047BAA
:102E5000761C30786C280FD006DC4C2817D06828F8
:102E60000DD06A2814D104E0742810D07A280FD12C
:102E70000DE044F400140AE044F4801401E044F44A
:102E800040147278824202D104F58014761C761CBC
:102E9000307866280BD013DC582877D009DC00285E
:102EA00075D04528F6D04628F4D047281AD19DE1A0
:102EB00018E0632835D0642879D0652812D195E1CF
:102EC000702873D008DC6728F1D069286FD06E288D
:102ED0000DD06F2806D1B5E073282CD0752875D099
:102EE000782874D05A46179990476D1C75E1C4F341
:102EF0000250022809D003280DD0D9F80010042868
:102F00000DD00D6009F1040967E1D9F80010EA1746
:102F1000C1E90052F6E7D9F800100D80F2E70D7014
:102F2000F0E719F8041B8DF8001000208DF801005F
:102F3000EA46012003E059F804AB4FF0FF30610787
:102F40004FF0000102D40DE008F101018846B942BA
:102F50000FDA8045F8DB1AF808100029F4D108E0F0
:102F600008F1010188468142FADB1AF808100029AD
:102F7000F6D105985B46A0EB080721463846179A1C
:102F800000F094FA284400EB080507E04DE029E141
:102F90000DE01AF8010B5A4617999047B8F101084D
:102FA000F7D25B4621463846179A13E142E00A22DF
:102FB0000092C4F302524FF0000A022A08D059F8D6
:102FC00004CB032A4FEAEC710AD00DE029E02AE095
:102FD00009F1070121F00702F2E802C1914609E078
:102FE0000FFA8CFC4FEAEC71042A03D14FFA8CFCE7
:102FF0004FEAEC71002907DA0A460021DCF1000CE7
:1030000061EB02012D2202E0220504D52B228DF86E
:103010000420012203E0E20701D02022F7E79046D6
:1030200059E00A2102E010220DE010214FF0000AC1
:1030300000910BE010224FF0000A44F0040408272E
:10304000009203E008224FF0000A0092C4F30252FB
:10305000022A05D059F804CB0021032A08D009E040
:1030600009F1070121F00702F2E802C1914605E0EB
:103070001FFA8CFC042A01D10CF0FF0C4FF0000861
:10308000220728D5702806D0009B83F0100353EA4E
:103090000A0305D00EE040228DF80420012208E04A
:1030A0005CEA010206D030228DF804208DF805007C
:1030B00002229046009B83F0080353EA0A030AD1D8
:1030C0005CEA010201D1620705D530228DF80420A7
:1030D0004FF001087F1E582804D034A003900EA89A
:1030E00002900DE036A0F9E753466046009AFDF7DE
:1030F000B6F884460398825C0298401E02900270E3
:103100005CEA0100F0D1029806A9081A00F1200A31
:10311000600702D524F4803400E00127574502DD22
:10312000A7EB0A0000E0002000EB0A0100900598E0
:103130004144401A0590E00306D45B462146179AA5
:10314000059800F0B3F90544002706E001A85A46A7
:10315000C05D179990476D1C7F1C4745F6DBE00367
:103160000CD55B462146179A059800F09FF9054457
:1031700004E030205A46179990476D1C0099481E6C
:1031800000900029F5DC08E0029802995A46007880
:10319000491C0291179990476D1CBAF10001AAF1E0
:1031A000010AF1DC65E10000092801003031323309
:1031B0003435363738396162636465660000000073
:1031C000303132333435363738394142434445465D
:1031D0000000000000F058F90544761C3078002803
:1031E0007FF4ECAD19B02846BDE8F08F620700D43B
:1031F000062709F1070222F0070CFCE80223E1464A
:1032000003F000485FEA080C02D00FF2702C0DE0CA
:103210005FEA045C02D50FF2682C07E05FEAC47C29
:1032200002D00FF2602C01E0AFF2700C4FF0FF38CB
:1032300023F00043CDF850C065280CD006DC4528AB
:1032400009D046281DD047283DD13DE0662818D03A
:1032500067287ED138E00021112F01DB112000E02A
:10326000781CCDE9000106A90EA8FFF7DDFCDDE919
:103270000F010E9A03910021009207F1010A0491B7
:103280004DE04FF000400097CDE9011006A90EA8CF
:10329000FFF7CAFCDDE90F0203920E9B1199002291
:1032A000DDF80CA00093049211B9791C00EB010A1F
:1032B000B7EB0A0004D4C0F1FF3007F1010A049013
:1032C000AAEB0700019044E0012F00DA012700215A
:1032D000112F01DD112000E03846CDE9000106A9DB
:1032E0000EA8FFF7A1FCDDE90F010E9A0391002162
:1032F00004910092BA4621070CD40399514500DA93
:103300008A46BAF1010F05DD009AAAF10101515C6C
:10331000302908D0B84202DA10F1040F06DA012190
:10332000CDE9011015E0AAF10101E9E7002805DC6B
:10333000049901440491AAEB000102E0411C5145AB
:1033400000DD8A460499401A401C01904FF000406D
:103350000290200704D40198504501DBCDF8048089
:1033600000208DF84F0002980DF14F07B0F1004F8B
:1033700025D02B200E9002984FF0020800280CDA7E
:10338000404202902D200E9007E00A210298FCF79F
:1033900050FF3031029007F8011DB8F10001A8F18B
:1033A0000108F2DC02980028EFD1791E0E9808700F
:1033B000307800F0200040F0450007F8020D12A818
:1033C000C01B00F107081498007800B1012000EB41
:1033D0000A01019801EBE07105984144401A401E32
:1033E0000590E00306D45B462146179A059800F045
:1033F0005DF805441498007818B15A46179990471B
:103400006D1CE00324D55B462146179A059800F011
:103410004DF805441CE00498002807DBDDE90301B2
:10342000884203DD0098405C179901E0179930202D
:103430005A469047049805F10105401C04900198F4
:10344000401E019004D12E205A46179990476D1CBA
:10345000BAF10001AAF1010ADDDC05E017F8010B61
:103460005A46179990476D1CB8F10001A8F1010860
:10347000F4DC5B462146179A0598ABE62D00000068
:103480002B000000200000002DE9F041044600253B
:103490001E461746880404D405E039462020B0476C
:1034A0006D1C641EF9D52846BDE8F0812DE9F04178
:1034B000044600251E469046C80301D5302700E08B
:1034C0002027880404D505E041463846B0476D1CE6
:1034D000641EF9D52846BDE8F0810A68531C0B60CC
:1034E000107070477047000030B58BB005460C4631
:1034F0002822114901A8FCF771FE1048C06820F08D
:10350000FF000E49C8600E48006820F470400C4966
:1035100008600A48C06801A951F824100843074907
:10352000C8600748006805F10C0101228A40104379
:10353000034908600BB030BD144B00080010014077
:103540000C0C014010B50248FDF7E6FA10BD000072
:103550009000002070B5044601252CB908210C48C4
:10356000FDF77CFF05460EE0012C05D1042108483B
:10357000FDF774FF054606E0022C04D11021044833
:10358000FDF76CFF05460DB9012070BD0020FCE77A
:103590000008014010B501224FF4F0710448FDF716
:1035A00091FF01224FF470610248FDF78BFF10BDBF
:1035B000000801400010014010B504462CB900225B
:1035C00020212048FDF77EFF3AE0012C05D10022A2
:1035D00040211C48FDF776FF32E0022C05D1002285
:1035E00080211848FDF76EFF2AE0032C06D1002247
:1035F0004FF480711348FDF765FF21E0042C05D1DD
:103600000022A1011048FDF75DFF19E0052C06D14D
:1036100000224FF400710C48FDF754FF10E0062C17
:1036200006D100224FF480610748FDF74BFF07E009
:10363000072C05D100224FF400610348FDF742FF3B
:1036400010BD00000008014000100140FDF77CFFA4
:10365000FFF7DEF8FEF7EEFFFFF788F8FEF7BCFF96
:103660004048FDF7F9FBFFF795FF00F0F1FC00255E
:1036700076E00020FFF76EFF18B13BA0FFF786FA57
:103680000EE00120FFF766FF18B13CA0FFF77EFABD
:1036900006E00220FFF75EFF10B13EA0FFF776FACA
:1036A0000520B5FBF0F100FB115060B9FFF772FF88
:1036B0003D490868FFF780FF3B480078401C00F058
:1036C000070039490860FDF739FF04460A20B4FBBA
:1036D000F0F00A21B0FBF1F201FB12096420B4FB07
:1036E000F0F0B0FBF1F201FB12084FF47A70B4FB7A
:1036F000F0F0B0FBF1F201FB120742F21070B4FBE4
:10370000F0F0B0FBF1F201FB120631460020FFF7AA
:10371000EBFE0520FDF764FC39460120FFF7E4FECF
:103720000520FDF75DFC41460220FFF7DDFE052088
:10373000FDF756FC49460320FFF7D6FE0520FDF7AE
:103740004FFC0A20B5FBF0F100FB115030B9FFF738
:10375000F9FE8246514615A0FFF718FA6D1C00BF0E
:1037600087E70000900000204C454654204B455907
:1037700020504553534544200D0A000043454E5404
:103780004552204B455920504553534544200D0A7E
:10379000000000005249474854204B4559205045ED
:1037A00053534544200D0A00000000204344532099
:1037B00056616C7565203A202564200D0A000000D2
:1037C0002DE9F04105460E461C4807681C48006874
:1037D000001D00F065FC50B91948006890F82C10E5
:1037E0000120884017490968814316480160681C18
:1037F00038B936B112480168091D134800F090FC31
:103800001AE07C190E4800684460BC4207D20C489C
:103810000168091D0D48006800F068FC0CE00848CC
:103820000168091D0A48006800F060FC094800684A
:10383000844201D207480460BDE8F08144000020C2
:103840003000002048000020B40100203800002093
:10385000340000206000002010B5044600F06CFC2D
:1038600023480068401C224908602248006840B98B
:10387000204804600846006801280DD100F066F970
:103880000AE01D48006838B91A480068C06AE16A51
:10389000884201D81748046018480068401C17493E
:1038A000086094F82C1001208840154909680843E5
:1038B00013490860E16A01EB8101124A02EB8100C1
:1038C000211D00F02DFC00F049FC0B48006868B198
:1038D00008480068C06AE16A884207D24FF0805009
:1038E00009490860BFF34F8FBFF36F8F10BD000011
:1038F00040000020300000204C0000205C00002030
:10390000480000200001002004ED00E010B500F0A8
:1039100013FC0C48006890B90B4800F0D7FB0B482B
:1039200000F0D4FB08480A490860084809490860C3
:1039300000220C210A2000F033FD0249086000F04B
:103940000DFC10BD78000020C8010020DC01002023
:10395000700000207400002010B516E000F0ECFBB1
:103960000C48C068C468201D00F09AFB0A48006833
:10397000401E0949086009480068401E0749086060
:1039800000F0ECFB204600F055F8044800680028E1
:10399000E4D110BDA0010020400000203C00002028
:1039A00070B504460D46206C70B1216CE06801448E
:1039B000E160D4E90210884201D32168E160284621
:1039C000226CE168FCF70AFC70BD2DE9F041044669
:1039D0000F4615464FF00008A66B206C28B37DB942
:1039E0003946226C6068FCF7F9FB216C606808447A
:1039F0006060D4E90101884217D32068606014E058
:103A00003946226CE068FCF7E9FB216CE068411A5A
:103A1000E1602168E068884203D2216CA068411A05
:103A2000E160022D01D106B1761E701CA0634046F4
:103A3000BDE8F08110B50446206B00F09FFB2046E6
:103A400000F09CFB10BD00000146084A1268126895
:103A50000AB9012200E000220A600A6822B9034A7A
:103A60001268D268106800E00020704770000020E3
:103A700000BFFFF771FF07480068012807D94FF022
:103A8000805005490860BFF34F8FBFF36F8F00F080
:103A90001BFBEEE70001002004ED00E02DE9F04102
:103AA00006460D4617469846069C0DB9246000E070
:103AB0002760E66325640121204600F08BFCBDE809
:103AC000F0812DE9FF5F80460E469146DDE90E7AD2
:103AD000109CA9F10100216B01EB800B2BF0070B6F
:103AE00086B1002507E0715D04F134004155705D39
:103AF00000B902E06D1C102DF5D300BF002143205A
:103B0000015502E0002084F83400052F00D304277B
:103B1000E762201D00F0E7FA04F1180000F0E3FA74
:103B20002461C7F10500A06164620020606484F82C
:103B3000480041465846039A00F06CFA2060BAF1FA
:103B4000000F01D0CAF80040BDE8FF9F10B5002467
:103B500007E004EB84010F4A02EB810000F0B6FAA3
:103B6000641C052CF5D30C4800F0B0FA0B4800F0AB
:103B7000ADFA0B4800F0AAFA0A4800F0A7FA0A4882
:103B800000F0A4FA0448094908600448084908609C
:103B900010BD000000010020640100207801002019
:103BA0008C010020A0010020B4010020340000207E
:103BB000380000202DE9F04104460D4616461F4608
:103BC0004FF0000865602461B5420CD8F01BA16974
:103BD000884202D34FF0010811E0211D0948006816
:103BE00000F084FA0BE0BE4204D2BD4202D34FF093
:103BF000010804E0211D0448006800F077FA4046FF
:103C0000BDE8F081740000207000002070B505460A
:103C100000F092FAA86B08B9012400E0002400F03B
:103C20009DFA204670BD70B5054600F085FAA86B78
:103C3000E96B884201D1012400E0002400F08EFAF3
:103C4000204670BDF8B505460E4614480068C068A9
:103C5000C468201D00F024FA94F8240000F0040049
:103C600088B1A06941192B4632462046FFF7A2FFD2
:103C700078B1002003462A4601460090204600F015
:103C800013FF074605E094F8240020F0010084F8B3
:103C900024002046216A8847F8BD000070000020FB
:103CA00070B586B06DE0039800286ADB059C6069FA
:103CB00008B9012000E0002010B9201D00F0F0F943
:103CC00002A800F0BDF8054603980A2857D2DFE89D
:103CD00000F00905072D354606082E3600BF00BF47
:103CE00000BF00BF94F8240040F0010084F82400D5
:103CF0000498A269811803462A462046FFF75AFF16
:103D000098B12046216A884794F8240000F0040006
:103D100058B1002000900498A16942180023194668
:103D2000204600F0C1FE064600BF29E000BF94F81F
:103D3000240020F0010084F8240021E000BF94F862
:103D4000240040F0010084F824000498A061A069D8
:103D500041192B462A462046FFF72CFF10E094F825
:103D6000240000F0020018B9204600F007FA05E030
:103D700094F8240020F0010084F8240000E000BF43
:103D800000BF002203A90448006800F035FC0028A9
:103D900089D106B070BD000078000020F8B5054656
:103DA0000C4600F091FA684600F04AF80646009882
:103DB00020BB44B9B54206D800F0E4FD31462846A0
:103DC000FFF740FF1CE03CB10E480068006808B9EE
:103DD000012000E000200446A91B22460A48006892
:103DE00000F0DAF900F0CEFD50B94FF080500749ED
:103DF0000860BFF34F8FBFF36F8F01E000F0C2FD8B
:103E0000F8BD0000740000207800002004ED00E000
:103E100009480068006808B9012000E0002020B1CE
:103E20004FF0FF300549086005E003480068C068AE
:103E300000680249086070473400002060000020DC
:103E400070B5044600F0CAFC054607480068854284
:103E500004D200F00BF80120206001E00020206077
:103E600001480560284670BD800000202DE9F84318
:103E700028E01E480068C06805681C480068C068E3
:103E8000C468201D00F00CF92046216A884794F888
:103E9000240000F00400A8B1A0694619AE4207D979
:103EA00066602461211D1148006800F01FF909E0D7
:103EB000002003462A4601460090204600F0F4FD0B
:103EC000804600BF09480068006808B9012000E08A
:103ED00000200028CDD00548076805480068034940
:103EE000086003480760BDE8F88300007000002008
:103EF0007400002000BFBF2080F31188BFF34F8FF4
:103F0000BFF36F8F00BF00BFFEE708B500BF684674
:103F1000FFF79AFD044620460099FFF73FFFFFF7A1
:103F2000BFFEF4E770B5044600F006F994F9455079
:103F300010E0606A08B9012000E0002038B904F1FF
:103F4000240000F0DFFC18B100F058F900E003E0B5
:103F5000681E45B2002DECDC00BFFF2084F8450050
:103F600000F0FCF800F0E8F894F9445010E0206903
:103F700008B9012000E0002048B904F1100000F069
:103F8000C1FC08B100F03AF9681E45B200E001E05A
:103F9000002DECDC00BFFF2084F8440000F0DEF8C8
:103FA00070BD000070B50446002504F0070020B184
:103FB00004F00700C0F10800044400F085F912483D
:103FC000006820B9114820F007000F490860104828
:103FD0000068204442F6F871884210D20C4800680C
:103FE00020440B490968884209D9074800680849F4
:103FF000096845180648006820440549086000F033
:10400000C1FC284670BD000088000020F801002097
:1040100084000020001F4FF080730360001F21F018
:1040200001030360001F034B036014380260203853
:1040300070470000F53E000810B50022042108205A
:1040400000F0AEF90149086010BD00001C0000201E
:104050001CB5FFF7F1FF0020012103468022CDE9C6
:10406000001008A1094800F079FB0948012100234C
:104070008022CDE9001007A1084800F06FFB00F096
:10408000E7F81CBD5441534B5F410000ED28000888
:10409000180000205441534B5F420000F5280008EF
:1040A00001460A69D1E901309860D1E901035860FD
:1040B0005068884201D1886850600020086110680B
:1040C000401E10601068704700BF704700F1080183
:1040D00041604FF0FF31816000F10801C160016172
:1040E00000210160704700210161704710B5024650
:1040F0000B685C1C0CB9106907E002F1080000E0D5
:104100004068446824689C42FAD944684C604C6812
:10411000A160886041600A611468641C146010BD6D
:1041200042684A6093688B60936859609160086147
:1041300003685B1C0360704700BFBF2080F31188D9
:10414000BFF34F8FBFF36F8F00BF03480068401C61
:1041500001490860704700008C0000200648006894
:10416000401E054908600846006820B9002080F319
:10417000118800BF00BF70478C000020704700000E
:1041800000204FF0E0210861886102484861072063
:10419000086170473F1901002DE9F04105460E46C0
:1041A00017462C46FFF7C8FF94F94400401C10B98D
:1041B000002084F8440094F94500401C10B9002008
:1041C00084F84500FFF7CAFFA06B28B93A4631468C
:1041D00004F1240000F028F82046FFF7A3FEBDE814
:1041E000F0810000034909680160034909684160E2
:1041F00070470000580000204400002001200149C1
:10420000086070475400002070B505460C4605480C
:10421000016818312846FFF769FF01212046FFF7A2
:10422000CFFA70BD3000002070B506460D4614462A
:104230000648016818313046FFF772FF0CB14FF0A5
:10424000FF3521462846FFF7BBFA70BD300000203D
:104250001CB5154800210B468022CDE9001013A1A2
:10426000144800F07BFA0446012C02D100F0FEFB5A
:104270000446012C14D100BFBF2080F31188BFF386
:104280004F8FBFF36F8F00BF4FF0FF300A490860B8
:1042900001200A49086000200949086000F04CF834
:1042A000084800681CBD00006400002049444C45DB
:1042B00000000000713A0008600000204C0000205F
:1042C000440000206800002002480068401C0149AA
:1042D000086070476C0000201248006818B1012087
:1042E000114908601DE000200F4908600F48006870
:1042F000B0FA80F0C0F11F0101EB81020C4B03EB1F
:10430000820042685268426000F1080243689342AA
:1043100002D14268526842604268D268054B1A6016
:1043200000BF70476C0000205400002048000020AF
:10433000000100203000002010B50A48006840F459
:104340007F00084908600846006840F07F40086028
:10435000FFF716FF002004490860FBF7E3FE00208A
:1043600010BD000020ED00E08C00002010B500BF63
:10437000BF2080F31188BFF34F8FBFF36F8F00BF53
:1043800000F032FA18B14FF080500449086000BFC5
:10439000002080F3118800BF10BD000004ED00E094
:1043A0002DE9F84305460E46174605FB06F909F1C7
:1043B0004800FFF7F7FD04464CB1A04608F1480855
:1043C0003B464246314628460094FFF767FB2046AD
:1043D000BDE8F88370B505460E462C46FFF7ACFEE7
:1043E000D4E90F12206801FB0200A0600020A06346
:1043F00020686060E06B401E226C216800FB0211A7
:10440000E160FF2084F8440084F845009EB92069EB
:1044100008B9012000E00020A8B904F1100000F064
:1044200071FA80B14FF0805009490860BFF34F8F97
:10443000BFF36F8F07E004F11000FFF747FE04F1B0
:104440002400FFF743FEFFF789FE012070BD000046
:1044500004ED00E02DE9FF4383B0074688461D4682
:104460004FF000093C4600BFFFF766FEA06BE16B12
:10447000884201D3022D28D12A4641462046FFF723
:10448000A4FA0646606A08B9012000E0002068B975
:1044900004F1240000F036FA88B14FF08050324920
:1044A0000860BFF34F8FBFF36F8F08E03EB14FF04E
:1044B00080502D490860BFF34F8FBFF36F8FFFF718
:1044C0004DFE012007B0BDE8F083059818B9FFF74D
:1044D00045FE0020F6E7B9F1000F04D101A8FFF76F
:1044E00081FE4FF00109FFF739FEFFF7EDFEFFF700
:1044F00023FE94F94400401C10B9002084F84400C5
:1045000094F94500401C10B9002084F84500FFF7DD
:1045100025FE05A901A800F0F1F8F0B92046FFF743
:1045200082FBA0B104F110000599FFF76DFE204653
:10453000FFF7F8FC00F026FA002895D14FF08050E4
:1045400009490860BFF34F8FBFF36F8F8CE7204698
:10455000FFF7E8FC00F016FA86E72046FFF7E2FCDA
:1045600000F010FA0020ADE704ED00E02DE9F84F6F
:1045700005468A4616461F462C4600BFBF21EFF36C
:10458000118081F31188BFF34F8FBFF36F8F00BF8E
:104590008146A06BE16B884201D3022F22D194F9AE
:1045A00045B0A06B00903A4651462046FFF70DFA01
:1045B0000BF1010070B9606A08B9012000E0002029
:1045C00038B904F1240000F09DF910B10EB10120BA
:1045D000306004E00BF1010040B284F845004FF078
:1045E000010801E04FF0000800BF89F3118800BF07
:1045F0004046BDE8F88F00002DE9F74183B005463D
:104600000F464FF000082C4600BFFFF795FDA66B44
:10461000F6B139462046FFF7C3F9701EA063206942
:1046200008B9012000E0002060B904F1100000F09A
:1046300069F938B14FF080502F490860BFF34F8FB0
:10464000BFF36F8FFFF78AFD012006B0BDE8F08150
:10465000059818B9FFF782FD0020F6E7B8F1000FC2
:1046600004D101A8FFF7BEFD4FF00108FFF776FD6A
:10467000FFF72AFEFFF760FD94F94400401C10B9D3
:10468000002084F8440094F94500401C10B9002033
:1046900084F84500FFF762FD05A901A800F02EF897
:1046A000F0B92046FFF7B2FAA0B104F12400059951
:1046B000FFF7AAFD2046FFF735FC00F063F900285C
:1046C000A3D14FF080500C490860BFF34F8FBFF368
:1046D0006F8F9AE72046FFF725FC00F053F994E727
:1046E0002046FFF71FFC00F04DF92046FFF78EFA39
:1046F00000288AD00020A8E704ED00E070B5064647
:104700000C46FFF719FD134802687068131A2068F9
:10471000401C08B9002519E00F4930680968884233
:1047200006D07068904203D80125002020600DE07B
:104730002068984207D92068C01A20603046FFF7E9
:1047400051FD002502E0002020600125FFF706FD55
:10475000284670BD44000020580000202DE9FF4F7E
:1047600085B0804689461746DDE912ABB800FFF7F1
:1047700019FC064656B14C20FFF714FC04460CB158
:10478000266304E03046FFF7F9FC00E000247CB12A
:104790000020CDE900ABCDE902403A46494640460B
:1047A000089BFFF78EF92046FFF756F8012501E038
:1047B0004FF0FF35284609B0BDE8F08F054909687C
:1047C00009B9012005E00449096809B9022000E09F
:1047D000002070474C0000206C0000200149086850
:1047E00070470000440000202DE9F04100273A48BE
:1047F0000068002867D139480068451C37480560C3
:104800008DB93748D0F800803648006834490860D0
:104810003448C0F8008034480068401C32490860C1
:10482000FFF7F6FA00BF3148006885423BD300BF6E
:104830002B480068006808B9012000E0002020B182
:104840004FF0FF30294908602CE025480068C06817
:10485000C4686668B54202D22448066022E0201D82
:10486000FFF71EFCA06A18B104F11800FFF718FC4E
:1048700094F82C10012088401D49096808431C4900
:104880000860E16A01EB81011A4A02EB8100211DF7
:10489000FFF746FC1849E06A0968C96A8842C7D32D
:1048A0000127C5E700BF14480068C06A00EB80001C
:1048B000104951F82000012800D901270F4800684D
:1048C00000B1012704E00E480068401C0C49086054
:1048D0003846BDE8F08100006C0000204400002054
:1048E0003400002038000020580000206000002024
:1048F000480000200001002030000020540000206B
:104900005000002070B50646F068C46804F1180035
:10491000FFF7C6FB15480068A8B9201DFFF7C0FBCC
:1049200094F82C1001208840114909680843104967
:104930000860E16A01EB81010E4A02EB8100211D52
:10494000FFF7EEFB04E004F118010B48FFF7E8FB6A
:104950000A49E06A0968C96A884204D90125012028
:104960000749086000E00025284670BD6C00002063
:1049700048000020000100208C01002030000020B1
:104980005400002070B500240026FFF7D5FB2E4808
:104990000068401E2C4908600846006800284FD176
:1049A0002A48006800284BD024E02948C068C46821
:1049B00004F11800FFF774FB201DFFF771FB94F85A
:1049C0002C100120884023490968084321490860C8
:1049D000E16A01EB8101204A02EB8100211DFFF712
:1049E0009FFB1E49E06A0968C96A884202D3012018
:1049F0001B4908601648006808B9012000E0002043
:104A00000028D2D00CB1FFF703FA1648056865B14B
:104A100000BFFFF7E9FE10B10120114908606D1ECB
:104A2000002DF6D100200F4908600D48006838B10C
:104A3000012630070C490860BFF34F8FBFF36F8F1B
:104A4000FFF78CFB304670BD6C000020400000205A
:104A50008C010020480000200001002030000020D0
:104A6000540000205000002004ED00E01CB500249C
:104A7000FEF74CFF0748006850B1074802210023A9
:104A80008022CDE9001005A10648FFF767FE044625
:104A900020461CBD780000207C000020546D722050
:104AA000537663000B3F00082DE9FE4305460C4694
:104AB00016461F46DDF828804FF0000914480068AC
:104AC00010B3009401960295062C15DAFFF776FED6
:104AD000022808D10023424669460D480068FFF7C6
:104AE000B9FC814610E000231A4669460848006870
:104AF000FFF7B0FC814607E000233A4669460448C8
:104B00000068FFF733FD81464846BDE8FE8300009C
:104B1000780000203F000000060000005B0000005D
:104B20004F000000660000006D0000007D000000E6
:104B3000270000007F0000006F0000000000000060
:104B4000000000000102030406070809000000003D
:104B500001020304744B00080000002090000000D4
:104B6000082C0008044C0008900000206039000068
:104B7000182C0008000000000000000000000000E9
:104B80000000000000000000000000000000000025
:104B90000000000000000000100000000100000004
:104BA00000A24A0400000000000000000000000015
:104BB00000000000000000000000000000000000F5
:104BC00000000000000000000000000000000000E5
:104BD00000000000000000000000000004000000D1
:104BE00000000000000000000000000000000000C5
:104BF00000000000000000000000000000000000B5
:044C0000AAAAAAAA08
:04000005080000ED02
:00000001FF
