:020000040800F2
:10000000D839002099010008D1270008F9250008F7
:10001000C927000829080008DD2B0008000000009F
:1000200000000000000000000000000001010008C6
:100030002D080008000000004501000805440008E4
:10004000B3010008B3010008B3010008B3010008C0
:10005000B3010008B30100082F08000839080008A0
:10006000B3010008B3010008B3010008B3010008A0
:10007000B3010008B3010008B3010008B301000890
:10008000B3010008B3010008B3010008B301000880
:10009000B3010008B3010008B3010008B301000870
:1000A000B3010008B3010008B3010008B301000860
:1000B000B3010008B3010008B3010008B301000850
:1000C000B3010008B3010008B3010008B301000840
:1000D000B3010008B3010008B3010008B301000830
:1000E000B3010008B3010008B3010008DFF80CD029
:1000F00000F09EFA00480047CD360008D8390020AD
:10010000224B19680868B0E8F00F80F30988BFF344
:100110006F8F4FF0000080F311884EF00D0E704786
:100120000000000006480068006880F3088862B696
:1001300061B6BFF34F8FBFF36F8F00DF00BF00BF0B
:1001400008ED00E0EFF30980BFF36F8F0F4B1A68E3
:1001500020E9F00F106008B54FF0BF0080F3118860
:10016000BFF34F8FBFF36F8F04F002F94FF0000021
:1001700080F31188BDE8084019680868B0E8F00FFE
:1001800080F30988BFF36F8F704700BF1400002011
:10019000EFF3058070470000064880470648004797
:1001A000FEE7FEE7FEE7FEE7FEE7FEE7FEE7FEE727
:1001B000FEE7FEE7B9280008ED000008202A04DB6E
:1001C000203A21FA02F00021704721FA02F3D040D0
:1001D000C2F12002914008431946704740EA0103EA
:1001E0009B0703D009E008C9121F08C0042AFAD2ED
:1001F00003E011F8013B00F8013B521EF9D27047B1
:10020000D2B201E000F8012B491EFBD27047002258
:10021000F6E710B513460A4604461946FFF7F0FF05
:10022000204610BD421C10F8011B0029FBD1801A8A
:10023000704730B50B46014600202022012409E01A
:1002400021FA02F59D4205D303FA02F5491B04FA8F
:1002500002F52844151EA2F10102F1DC30BD2DE9A2
:10026000F05F0546002092469B468846064681463A
:1002700040241BE02846414647462246FFF79EFFA2
:1002800053465A46C01A914110D311461846224689
:1002900000F0E0F92D1A67EB01084F4622460120D5
:1002A000002100F0D7F917EB00094E41201EA4F100
:1002B0000104DFDC484631462A464346BDE8F09F4C
:1002C0002DE9FE4F804681EA0300C00F0C460090E6
:1002D00021F0004123F00045B8EB0200A94105D20E
:1002E0004046214690461C460B46024623F00040FD
:1002F000104347D0270DC7F30A00C3F30A510290F9
:10030000401A019040286BDAC3F3130040F4801BBD
:100310000098924620B10023D2EB030A63EB0B0B4B
:1003200001985946C0F14002504600F093F9064644
:100330000D4650465946019A00F09BF910EB080013
:100340006141002487EA115284EAE7731A4340D0DE
:10035000009A62B3019A012A4FEA075215DC001B8A
:1003600061EB02014FF0004202EA0752CDE9004280
:10037000001C41F5801132462B4600F09BF903B07A
:10038000BDE8F08F40462146F9E7001B61EB020112
:10039000001C41F5801300185B412018A2F50017DE
:1003A00047EB030140EAD570B6196D4111E06D08C5
:1003B0004FEA360645EAC0754FEA0752001B61EB6B
:1003C0000201001C41F5801149084FEA3000001974
:1003D000514132462B4603B0BDE8F04F00F05BB907
:1003E0000098012240000023D0EB020263EBE0738F
:1003F000009821464FEAE074B8EB000061EB04017D
:10040000E9E783F000435BE781F0004158E72DE91D
:10041000FE4F81EA030404F0004421F000410094FF
:100420004FF0000B23F0004350EA01045ED052EA83
:1004300003045BD0C3F30A54C1F30A552C44A4F25D
:10044000F3340194A0FB0254C1F3130141F4801171
:10045000C3F3130343F4801301FB024400FB034E78
:10046000840A970A44EA815447EA8357A4FB076841
:1004700002958D0A05FB07854FEA932C04FB0C546B
:100480002705029D4FEA065847EA1637B5EB0805DF
:100490006EEB070C870E920E47EA811742EA831231
:1004A000A7FB0201B6EB0B0164EB00042B0D43EA42
:1004B0000C335E1844EB1C50DA465146E7FB020150
:1004C000C5F313044FEA0B3343EA14534FEA0432E3
:1004D000019C43EA0603A4F10C040294009CCDE9BC
:1004E00000B400F0E7F803B0BDE8F08F002001464B
:1004F000F9E72DE9F04D81EA030404F0004B21F007
:10050000004514464FF0000A23F0004150EA05026E
:1005100020D054EA01021DD0C5F30A570246C5F3A4
:100520001303C1F31300C1F30A5640F4801543F4DA
:100530008013A7EB0608101BD64608F2FD3873EBB4
:10054000050002D308F1010801E092185B41B8F1FF
:10055000000F03DA00200146BDE8F08D00204FF4C3
:100560008011064684460EE0171B73EB050705D382
:10057000121B63EB050306434CEA010C49084FEAE2
:10058000300092185B4150EA0107EDD152EA0300B6
:1005900012D082EA040083EA0501084305D0101B4B
:1005A000AB4106D20122002306E000224FF00043B7
:1005B00002E06FF0010253101AEB06004CEB0851F9
:1005C00010EB0A0041EB0B01BDE8F04D00F063B801
:1005D000C1F30A52C1F3130140F2FF3341F4801119
:1005E0009A4202DA00200146704740F233439A42B1
:1005F000A2F2334202DC5242FFF7E0BD00F02AB81B
:1006000030B5041E71F1000404DB4FF00044404299
:1006100064EB0101141E73F1000405DB1C464FF06E
:100620000043524263EB0403994208BF904230BD3D
:10063000064C074D06E0E06840F0010394E807002F
:1006400098471034AC42F6D3FFF754FD244C000811
:10065000444C0008202A04DB203A00FA02F1002072
:1006600070479140C2F1200320FA03F319439040F0
:100670007047202A06DBCB17203A41FA02F043EA02
:10068000E07306E041FA02F3D040C2F1200291404B
:1006900008431946704710B5141E73F1000408DAB8
:1006A000401C41F1000192185B411A4301D120F036
:1006B000010010BD2DE9F04D92469B4611B1B1FAF3
:1006C00081F202E0B0FA80F220329046FFF7C2FFDA
:1006D00004460F4640EA0A0041EA0B0153465A46D7
:1006E000084313D0114653EA010019D0C8F1400263
:1006F0005046FFF763FD05460E46504659464246B2
:10070000FFF7A8FF084305D0012004E02046394642
:10071000BDE8F08D0020054346EAE0762C433743E0
:100720000A986305E40AA0EB08000022FD0A44EAE7
:1007300047540A3002D500200146E9E701051019A7
:100740006941DDE9084500196941BDE8F04DA2E7BE
:1007500070B5044600252068806800F00100F0B103
:100760002068806820F001002168886000F0F8FEB1
:1007700005460EE000F0F4FE401B022809D9A06AED
:1007800040F01000A062E06A40F00100E062012049
:1007900070BD2068806800F001000028EAD10020C8
:1007A000F6E7000038B504460025002000902068D8
:1007B000806800F0010080BB2068806840F0010084
:1007C00021688860164800681649B0FBF1F0009077
:1007D00002E00098401E009000980028F9D100F037
:1007E000BFFE054613E000F0BBFE401B02280ED9F9
:1007F000A06A40F01000A062E06A40F00100E062F0
:1008000000BF002084F8240000BF012038BD20680C
:10081000806800F001000028E5D00020F6E7000025
:100820001000002040420F0000BFFEE7704710B5E7
:10083000012000F0EBFB10BD10B5022000F0E6FB3C
:1008400010BD7047F8B505460C4600260020009004
:100850009F492868884203D09E492868884200D171
:1008600004E040F2AA619CA002F03AFE206890B336
:10087000206801282FD0206802282CD02068032867
:1008800029D02068042826D02068052823D0206895
:10089000062820D0206807281DD0206808281AD0F4
:1008A0002068092817D020680A2814D020680B284F
:1008B00011D020680C280ED020680D280BD020689D
:1008C0000E2808D020680F2805D02068102802D0F4
:1008D0002068112800D104E040F2AB617EA002F054
:1008E000FFFD606801282CD06068022829D060686C
:1008F000032826D06068042823D06068052820D00B
:10090000606806281DD0606807281AD0606808282B
:1009100017D06068092814D060680A2811D0606870
:100920000B280ED060680C280BD060680D2808D00A
:1009300060680E2805D060680F2802D06068102813
:1009400000D104E040F2AC6163A002F0C9FDA068F0
:10095000A0B1A068012811D0A06802280ED0A0681C
:1009600003280BD0A068042808D0A068052805D06B
:10097000A068062802D0A068072800D104E040F251
:10098000AD6155A002F0ACFD00BF95F82400012830
:1009900001D10220F8BD012085F8240000BF606865
:1009A000072812D22868406B2179491E01EB810289
:1009B0001F21914088432279521E02EB8202216856
:1009C000914008432968486327E060680D2812D2E7
:1009D0002868006B2179C91F01EB81021F2191401A
:1009E00088432279D21F02EB82022168914008439A
:1009F0002968086311E02868C06A21790D3901EB84
:100A000081021F219140884322790D3A02EB820234
:100A10002168914008432968C86220680A2812D3D7
:100A20002868C06821780A3901EB4102072191400A
:100A3000884322780A3A02EB4202A16891400843B7
:100A40002968C8600FE028680069217801EB41023D
:100A5000072191408843227802EB4202A16891402D
:100A60000843296808612068102802D020681128EE
:100A700027D11749286888421ED12868806800F469
:100A80000000F0B92868806840F400002968886098
:100A90002068102815D11E4800681E49B0FBF1F0EF
:100AA00000EB80004000009002E00098401E0090A3
:100AB00000980028F9D104E0A86A40F02000A8625C
:100AC000012600BF002085F8240000BF304661E702
:100AD00000240140002801402E2E2F4472697665C3
:100AE00072732F53544D3332463178785F48414CFE
:100AF0005F4472697665722F5372632F73746D331E
:100B000032663178785F68616C5F6164632E630080
:100B10001000002040420F0010B50446084920682C
:100B2000884203D007492068884200D104E04FF48E
:100B3000B96105A002F0D4FC2068C06C10BD0000B3
:100B400000240140002801402E2E2F447269766552
:100B500072732F53544D3332463178785F48414C8D
:100B60005F4472697665722F5372632F73746D33AD
:100B700032663178785F68616C5F6164632E630010
:100B80002DE9F0410446002700250026A84614B9A7
:100B90000120BDE8F08182492068884203D0814964
:100BA0002068884200D104E04FF4C1717EA002F0B9
:100BB00097FC606818B16068B0F5006F00D104E080
:100BC00040F2831178A002F08BFCA06818B1A068F5
:100BD000B0F5807F00D104E04FF4C27172A002F042
:100BE0007FFCE06810B1E068012800D104E040F229
:100BF00085116DA002F074FCE069B8B1E069B0F550
:100C0000003F13D0E069B0F5C02F0FD0E069B0F518
:100C1000002F0BD0E069B0F5202F07D0E069B0F5C8
:100C2000402F03D0E069B0F5602F00D104E04FF40D
:100C3000C3715DA002F054FCA068002822D0206996
:100C400018B12069102800D804E04FF4C57156A0EF
:100C500002F046FC606910B16069012800D104E02F
:100C600040F28B1150A002F03BFC606950B1A069CA
:100C700018B1A069082800D804E04FF4C7714AA051
:100C800002F02EFCA06A30B90020E06284F8240053
:100C9000204600F0A9F82046FFF75AFD0746A06A53
:100CA00000F01000002873D1002F71D1A06A20F449
:100CB000885040F00200A062E16960680843E16882
:100CC00040EA41000643A068B0F5807F02D0A068EA
:100CD000012802D14FF4807000E0002005436069D4
:100CE000012811D1E06838B9A069401E4FF40061B5
:100CF00041EA4030054307E0A06A40F02000A062CE
:100D0000E06A40F00100E0622068406820F4694039
:100D10002843216848602068806831490840304392
:100D200021688860A068B0F5807F02D0A0680128A3
:100D300002D14FF4807000E00020B0F5807F03D135
:100D4000208A401E4FEA00582068C06A20F47000D4
:100D500040EA08002168C86220688068214908408C
:100D6000B04208D10020E062A06A20F0020040F00A
:100D70000100A06211E0A06A20F0020040F0100023
:100D8000A062E06A40F00100E062012705E0FFE7B1
:100D9000A06A40F01000A06201273846F9E6000082
:100DA00000240140002801402E2E2F4472697665F0
:100DB00072732F53544D3332463178785F48414C2B
:100DC0005F4472697665722F5372632F73746D334B
:100DD00032663178785F68616C5F6164632E6300AE
:100DE000FDF7E1FFFE0E1FFF10B586B004460020A0
:100DF000029003900490059014492068884222D103
:100E000000BF1348806940F40070114988610846AA
:100E1000806900F40070019000BF00BF00BF084669
:100E2000806940F0040088610846806900F0040091
:100E3000019000BF00BF022002900320039002A98E
:100E4000044800F0F1F806B010BD00000024014095
:100E5000001002400008014070B5044600255049CA
:100E60002068884203D04F492068884200D104E0BE
:100E700040F203314CA002F033FB00BF94F8240091
:100E8000012801D1022070BD012084F8240000BF98
:100E90002046FFF787FC0546002D79D1A06A40F275
:100EA0000121884340F48070A0623E492068884256
:100EB00009D13B48001D006800F4702008B90120EA
:100EC00002E0002000E0012078B1A06A20F4801048
:100ED000A0622068406800F4806000B3A06A20F43B
:100EE000005040F48050A06219E0A06A40F48010E5
:100EF000A0622B492068884203D02A492068884292
:100F000005D12748001D006800F4806000E0002043
:100F100028B1A06A20F4005040F48050A062A06A7A
:100F200000F4805020B1E06A20F00600E06201E0A9
:100F30000020E06200BF002084F8240000BFC01E33
:100F4000216808602068806800F46020B0F5602F98
:100F500017D114492068884209D11148001D006842
:100F600000F4702008B9012002E0002000E0012018
:100F700038B12068806840F4A000216888600CE0E7
:100F800006E02068806840F480102168886004E0F2
:100F900000BF002084F8240000BF284673E700004B
:100FA00000240140002801402E2E2F4472697665EE
:100FB00072732F53544D3332463178785F48414C29
:100FC0005F4472697665722F5372632F73746D3349
:100FD00032663178785F68616C5F6164632E6300AC
:100FE00070B5044600F0BCFA06462546681C10B1F0
:100FF00004480078054400BF00F0B2FA801BA84204
:10100000FAD370BD0C0000207047000010B50446F4
:1010100004480068204020B1024804602046FFF7E1
:10102000F3FF10BD140401402DE9FC5F05460C469A
:101030004FF000080026B146002001908346DB48AF
:1010400085420BD0DA48854208D0DA48854205D07F
:10105000D948854202D0D948854200D103E0CD214C
:10106000D7A002F03DFA208880B220B120686FF34B
:101070000F0000B903E0CE21D1A002F031FA606880
:1010800030B36068012823D06068112820D06068E0
:1010900002281DD0606812281AD0D849606888429A
:1010A00016D0D7496068884212D0D6496068884215
:1010B0000ED0D549606888420AD0D4496068884219
:1010C00006D0D3496068884202D06068032800D106
:1010D00003E0CF21BAA002F003FA002761E101206A
:1010E00000FA07F8206800EA080646456FD1AF48C5
:1010F00085420BD0AE48854208D0AE48854205D027
:10110000AD48854202D0AD48854200D103E0DD21E3
:10111000ABA002F0E5F9B94A6068811A90426AD042
:101120000EDC032875D006DC002863D0012819D016
:1011300002286FD139E0112825D01228F9D147E0D3
:10114000B1F5881F5BD006DCB1F5803F56D0B1F514
:10115000801F7AD150E0B1F5001F4ED0B1F5041FC9
:1011600073D14DE0E068022805D0E068012802D084
:10117000E068032800D103E0E52191A002F0B0F976
:10118000E068019062E0E068022805D0E06801288C
:1011900002D0E068032800D103E0EC2188A002F02F
:1011A0009FF9E068001D019050E0E068022805D03A
:1011B000E068012802D0E068032800D103E0F321B1
:1011C0007FA002F08DF9E068083001903EE0DDE09C
:1011D000E068022805D0E068012802D0E068032812
:1011E00000D103E0FA2176A002F07AF9E0680C3031
:1011F00001902BE000BF00BF00BF00BF00BF00BFD9
:10120000A06828B1A068012802D0A068022802D1F5
:1012100006E017E019E040F2071169A002F060F95A
:10122000A06810B9042001900BE0A068012804D147
:1012300008200190C5F8108003E008200190C5F84F
:10124000148003E00020019000E000BF00BFFF2EEB
:1012500001D8284600E0281D8246FF2E01D8B8009C
:1012600002E0A7F1080080008346DAF800000F21B1
:1012700001FA0BF18843019901FA0BF10843CAF80E
:101280000000606800F08050B0F1805F7ED100BF48
:101290006048806940F001005E49886108468069C5
:1012A00000F00100009000BF00BF4FEAB130B90864
:1012B00050F82190B807010F0F20884029EA000953
:1012C0003A48854201D100200FE03948854201D1DA
:1012D00001200AE03748854201D1022005E0364866
:1012E000854201D1032000E00420B907090F88409E
:1012F00040EA09094848B90840F82190606800F4BC
:101300008030B0F5803F05D1444800683043434900
:10131000086004E041480068B043404908606068E4
:1013200000F40030B0F5003F07D13C48001D0068D4
:1013300030433A49091D086006E03848001D00683E
:10134000B0433649091D0860606800F48010B0F5AC
:10135000801F07D131480830006830432F490831D9
:10136000086006E02D4808300068B0432B4908317A
:101370000860606800F40010B0F5001F09D127482C
:101380000C300068304325490C3100E008E008606B
:1013900006E022480C300068B04320490C31086058
:1013A0007F1C102FFFF49BAEBDE8FC9F000801409E
:1013B000000C0140001001400014014000180140E1
:1013C0002E2E2F447269766572732F53544D33322B
:1013D000463178785F48414C5F4472697665722F78
:1013E0005372632F73746D3332663178785F68613E
:1013F0006C5F6770696F2E630000000000001110C1
:101400000000211000003110000012100000221016
:1014100000003210001002400800014000040140AA
:1014200070B506460C46A0B218B1200C000400B9F5
:1014300004E040F2C31105A002F052F8B068204069
:1014400008B1012500E00025284670BD2E2E2F444E
:101450007269766572732F53544D33324631787802
:101460005F48414C5F4472697665722F5372632FF7
:1014700073746D3332663178785F68616C5F677062
:10148000696F2E630000000070B505460C46A0B2DF
:1014900018B1200C000400B904E040F2F91103A0D7
:1014A00002F01EF8E8686040E86070BD2E2E2F4400
:1014B0007269766572732F53544D333246317878A2
:1014C0005F48414C5F4472697665722F5372632F97
:1014D00073746D3332663178785F68616C5F677002
:1014E000696F2E630000000070B506460C46154675
:1014F000A0B218B1200C000400B904E040F2E311DE
:1015000008A001F0EDFF0DB1012D00D104E04FF472
:10151000F27104A001F0E4FF0DB1346101E0200498
:10152000306170BD2E2E2F447269766572732F5311
:10153000544D3332463178785F48414C5F4472698C
:101540007665722F5372632F73746D333266317800
:10155000785F68616C5F6770696F2E6300000000E0
:1015600001480068704700000400002010B50848DA
:10157000006840F0100006490860032000F0F8F809
:10158000002000F007F800F02BF8002010BD00004C
:101590000020024070B504460E4800784FF47A717E
:1015A000B1FBF0F00C490968B1FBF0F5284600F0FA
:1015B00023FF08B1012070BD102C07D20022214664
:1015C000501E00F06BF80548046001E00120F2E7CE
:1015D0000020F0E70C000020100000200800002090
:1015E00008B500BF1148806940F001000F498861CB
:1015F0000846806900F00100009000BF00BF00BFF6
:101600000846C06940F08050C8610846C06900F0D3
:101610008050009000BF00BF00BF0549486820F01F
:10162000E06000BF486000BF08BD0000001002403D
:101630000000014010B50446002C00DB03E0CE2181
:1016400007A001F04DFF00BF04F01F0101208840FA
:101650006109890001F1E021C1F8000100BF10BD5E
:101660002E2E2F447269766572732F53544D333288
:10167000463178785F48414C5F4472697665722FD5
:101680005372632F73746D3332663178785F68619B
:101690006C5F636F727465782E6300002DE9F05FF4
:1016A00080460C4615460027102D00D203E0BA21D3
:1016B00020A001F015FF102C00D203E0BB211DA0DB
:1016C00001F00EFF01F086F80746394622462B4608
:1016D00001F00700C0F1070ABAF1040F02D94FF078
:1016E000040A01E0C0F1070AD14600F1040ABAF188
:1016F000070F02D24FF0000A01E0A0F1030AD4461E
:101700004FF0010A0AFA09FAAAF1010A0AEA020AE2
:101710000AFA0CFA4FF0010B0BFA0CFBABF1010BC0
:101720000BEA030B4AEA0B063146404601F05AF831
:10173000BDE8F09F2E2E2F447269766572732F5389
:10174000544D3332463178785F48414C5F4472697A
:101750007665722F5372632F73746D3332663178EE
:10176000785F68616C5F636F727465782E630000E8
:1017700010B50446072C07D0062C05D0052C03D045
:10178000042C01D0032C00D103E0A22109A001F018
:10179000A7FE00BF04F00701154A10684FF6FF02CC
:1017A0001040144A024342EA0120114A106000BF6F
:1017B00010BD00002E2E2F447269766572732F5370
:1017C000544D3332463178785F48414C5F447269FA
:1017D0007665722F5372632F73746D33326631786E
:1017E000785F68616C5F636F727465782E63000068
:1017F0000CED00E00000FA05F8B5044600260025CF
:10180000207800F0010048B9207800F0020002289A
:1018100004D0207800F01000102800D103E07C21D3
:1018200061A001F05DFE207800F0010000287DD06D
:10183000606858B16068B0F5807F07D06068B0F527
:10184000007F03D06068B0F5407F00D103E08221C3
:1018500055A001F045FE00276248C06900F08050A5
:1018600070B900BF5F48C06940F080505D49C861F1
:101870000846C06900F08050009000BF00BF0127FB
:101880005948006800F48070B0B95748006840F4C7
:10189000807055490860FFF763FE064606E0FFF7D3
:1018A0005FFE801B642801D90320F8BD4E48006804
:1018B00000F480700028F2D04A48006A00F44075B5
:1018C0002DB3A08800F44070A84220D04548006A9B
:1018D00020F4407501204549086000200860414817
:1018E000056205F0010090B1FFF73AFE064608E0F8
:1018F000FFF736FE801B41F28831884201D9032070
:10190000D3E73848006A00F002000028F0D03548DC
:10191000006A20F440706168084332490862012F70
:1019200006D10846C06920F0805000E001E0C8619F
:1019300000BF207800F0020002281AD1A06858B138
:10194000A068B0F5804F07D0A068B0F5004F03D075
:10195000A068B0F5404F00D103E0C92112A001F00A
:10196000BFFD2048406820F44040A16808431D495D
:101970004860207800F01000102813D1E068B0F51E
:10198000800F01D0E06800B904E040F2251106A004
:1019900001F0A6FD1348406820F48000E168084388
:1019A00010494860002080E72E2E2F44726976652A
:1019B00072732F53544D3332463178785F48414C1F
:1019C0005F4472697665722F5372632F73746D333F
:1019D00032663178785F68616C5F7263635F6578E7
:1019E0002E6300000010024000700040400442429C
:1019F00070B504460D46002604B104E040F22E31D5
:101A0000AFA001F06DFD207800F0010070B92078E2
:101A100000F00200022809D0207800F00400042819
:101A200004D0207800F00800082800D104E040F23B
:101A30002F31A3A001F054FD1DB1012D01D0022DC5
:101A400000D104E04FF44C719DA001F049FDAA487B
:101A5000006800F00700A8420ED2A748006820F0F6
:101A600007002843A44908600846006800F0070002
:101A7000A84201D0012070BD207800F002000228A9
:101A80003DD1207800F00400042805D19B4840682F
:101A900040F4E06099494860207800F00800082888
:101AA00005D19648406840F4605094494860A06869
:101AB000B8B1A068802814D0A068902811D0A06880
:101AC000A0280ED0A068B0280BD0A068C02808D0ED
:101AD000A068D02805D0A068E02802D0A068F0282F
:101AE00000D104E040F2563175A001F0F9FC8348C2
:101AF000406820F0F000A1680843804948602078E1
:101B000000F0010000286BD0606828B160680128EF
:101B100002D06068022800D104E040F25D3168A084
:101B200001F0DEFC6068012806D17448006800F40A
:101B3000003090B901209EE76068022806D16F4806
:101B4000006800F0007040B9012094E76B4800681D
:101B500000F0020008B901208DE76848406820F0D5
:101B600003006168084365494860FFF7F9FC0646D1
:101B70006068012810D108E0FFF7F2FC801B41F2F9
:101B80008831884201D9032075E75C48406800F03D
:101B90000C000428F0D123E06068022810D108E08E
:101BA000FFF7DEFC801B41F28831884201D9032017
:101BB00061E75248406800F00C000828F0D10FE0BF
:101BC00008E0FFF7CDFC801B41F28831884201D943
:101BD000032050E74948406800F00C000028F0D18D
:101BE0004548006800F00700A8420ED94248006846
:101BF00020F007002843404908600846006800F0CC
:101C00000700A84201D0012035E7207800F0040049
:101C100004281FD1E06878B1E068B0F5806F0BD080
:101C2000E068B0F5A06F07D0E068B0F5C06F03D0F2
:101C3000E068B0F5E06F00D104E040F2B13120A0DF
:101C400001F04EFC2D48406820F4E060E168084354
:101C50002A494860207800F00800082820D120692F
:101C600078B12069B0F5806F0BD02069B0F5A06F16
:101C700007D02069B0F5C06F03D02069B0F5E06FE0
:101C800000D104E04FF46E710DA001F029FC1B4857
:101C9000406820F46050216940EAC100174948605B
:101CA00000F058F815494968C1F30311144A515C12
:101CB000C840144908600020FFF76CFC0020DAE6F9
:101CC0002E2E2F447269766572732F53544D333222
:101CD000463178785F48414C5F4472697665722F6F
:101CE0005372632F73746D3332663178785F686135
:101CF0006C5F7263632E630000200240001002409C
:101D00000C4C0008100000200148006870470000DB
:101D10001000002000B5FFF7F7FF04494968C1F340
:101D20000221034A515CC84000BD0000001002407F
:101D30001C4C000800B5FFF7E7FF04494968C1F3F0
:101D4000C221034A515CC84000BD0000001002409F
:101D50001C4C0008F0B585B00FF26C0C9CE8E0104C
:101D600001A8A0E8E0101CA52D6800950021002224
:101D7000002300240020194D696801F00C05F5B11D
:101D8000042D02D0082D19D101E0154819E001AD4C
:101D9000C1F38346AC5D01F4803555B10F4D6D68DC
:101DA000C5F340451DF805200D4D6543B5FBF2F325
:101DB00002E00C4D04FB05F3184602E000BF0848A2
:101DC00000BF00BF05B0F0BD020304050607080907
:101DD0000A0B0C0D0E0F1010010200000010024043
:101DE00000127A0000093D00F8B50446002504B150
:101DF00004E04FF4B871F7A001F072FB206890B1D5
:101E0000207800F0010070B9207800F0020002286C
:101E100009D0207800F00800082804D0207800F0CD
:101E20000400042800D104E040F27111E9A001F09F
:101E300057FB207800F00100002870D0606838B1AE
:101E40006068B0F5803F03D06068B0F5A02F00D186
:101E500004E040F27711DFA001F042FBEB4840685C
:101E600000F00C0004280CD0E848406800F00C009A
:101E7000082811D1E548406800F48030B0F5803F73
:101E80000AD1E248006800F40030002860D06068A1
:101E900000285DD10120F8BD00BF6068B0F5803F2B
:101EA00006D1DA48006840F48030D849086028E05C
:101EB000606858B9D548006820F48030D34908607C
:101EC0000846006820F4802008601AE06068B0F5D9
:101ED000A02F0BD1CD48006840F48020CB4908608A
:101EE0000846006840F4803008600AE0C74800688F
:101EF00020F48030C54908600846006820F480203E
:101F0000086000BF606890B1FFF72AFB054607E054
:101F1000FFF726FB401B642802D90320BBE717E02C
:101F2000BA48006800F400300028F1D010E0FFF754
:101F300017FB054606E0FFF713FB401B642801D999
:101F40000320A8E7B148006800F400300028F2D16F
:101F5000207800F0020002286BD1206910B12069BE
:101F6000012800D104E040F2AB119AA001F0B8FAC8
:101F700060691F2800D804E04FF4D67195A001F0E5
:101F8000AFFAA248406800F00C0050B19F4840688A
:101F900000F00C00082818D19C48406800F48030FC
:101FA00098B99A48006800F0020020B12069012821
:101FB00001D001206FE79548006820F0F8006169C2
:101FC00040EAC1009149086033E02069E8B101208E
:101FD0008F490860FFF7C4FA054606E0FFF7C0FA2C
:101FE000401B022801D9032055E78848006800F00B
:101FF00002000028F2D08548006820F0F8006169EE
:1020000040EAC1008149086013E00020804908606F
:10201000FFF7A6FA054606E0FFF7A2FA401B0228E2
:1020200001D9032037E77948006800F00200002852
:10203000F2D1207800F00800082838D1A06910B14A
:10204000A069012800D104E04FF4F67161A001F00D
:1020500047FAA069B8B101206E490860FFF780FA1D
:10206000054606E0FFF77CFA401B022801D9032051
:1020700011E76648406A00F002000028F2D0012013
:1020800000F0C4FB13E0002062490860FFF768FA23
:10209000054606E0FFF764FA401B022801D9032039
:1020A000F9E65A48406A00F002000028F2D1207890
:1020B00000F00400042878D10026E06828B1E06828
:1020C000012802D0E068052800D104E040F21B217D
:1020D00040A001F005FA4D48C06900F0805070B989
:1020E00000BF4A48C06940F080504849C86108466E
:1020F000C06900F08050009000BF00BF0126464834
:10210000006800F48070B0B94348006840F4807003
:1021100041490860FFF724FA054606E0FFF720FA78
:10212000401B642801D90320B5E63B48006800F451
:1021300080700028F2D000BFE068012806D1334843
:10214000006A40F001003149086227E0E06858B9B0
:102150002E48006A20F001002C4908620846006AF7
:1021600020F00400086219E0E06805280BD1274838
:10217000006A40F00400254908620846006A40F001
:10218000010008620AE02148006A20F001001F49AE
:1021900008620846006A20F00400086200BFE06898
:1021A000A0B1FFF7DDF9054609E04FE0FFF7D8F9E8
:1021B000401B41F28831884201D903206BE6134865
:1021C000006A00F002000028F0D036E0FFF7C8F9FE
:1021D00005462CE02E2E2F447269766572732F53BC
:1021E000544D3332463178785F48414C5F447269D0
:1021F0007665722F5372632F73746D333266317844
:10220000785F68616C5F7263632E63000010024048
:10221000000042428004424200700040FFF7A0F9F3
:10222000401B41F28831884201D9032033E67048CF
:10223000006A00F002000028F0D1012E05D16C48A0
:10224000C06920F080506A49C86100BFE06928B1C8
:10225000E069012802D0E069022800D105E040F2DF
:10226000B921AFF2900001F03BF9E069002875D088
:102270005F48406800F00C00082870D0E069022830
:102280006ED1206A18B1206AB0F5803F00D105E018
:1022900040F2C221AFF2C40001F022F9606AB8B383
:1022A000606AB0F5802F33D0606AB0F5002F2FD070
:1022B000606AB0F5402F2BD0606AB0F5801F27D040
:1022C000606AB0F5A01F23D0606AB0F5C01F1FD0B0
:1022D000606AB0F5E01F1BD0606AB0F5001F17D030
:1022E000606AB0F5101F13D0606AB0F5201F0FD0E0
:1022F000606AB0F5301F0BD0606AB0F5401F07D0A0
:10230000606AB0F5501F03D0606AB0F5601F00D15D
:1023100005E040F2C321AFF2441001F0E1F80020E3
:1023200034490866FFF71CF9054606E0FFF718F97F
:10233000401B022801D90320ADE52D48006800F0BC
:1023400000700028F2D1206AB0F5803F17D1A06854
:1023500018B1A068B0F5003F03D108E045E042E0C5
:102360002CE040F2D921AFF2941001F0B9F82048E6
:10237000406820F40030A16808431D494860D4E952
:10238000080108431A49496821F47411084318499F
:102390004860012017490866FFF7E2F8054606E0A5
:1023A000FFF7DEF8401B022801D9032073E510482F
:1023B000006800F000700028F2D016E000200D49FF
:1023C0000866FFF7CDF8054606E0FFF7C9F8401BA1
:1023D000022801D903205EE50548006800F000707E
:1023E0000028F2D101E0012055E5002053E500006E
:1023F000001002400000424270B504462546681EA7
:10240000B0F1807F01D301200FE0681E4FF0E02182
:1024100048610F214FF0FF3000F0E4F900204FF049
:10242000E021886107200861002070BD10B50446D6
:102430000CB9012010BDA069002826D03A492068B7
:10244000884207D039492068884203D0384920683B
:10245000884200D104E040F20F1136A001F040F8AC
:10246000A06958B1A069B0F5807F07D0A069B0F528
:10247000007F03D0A069B0F5407F00D117E04FF492
:1024800088712CA001F02CF811E0274920688842BF
:1024900007D026492068884203D025492068884211
:1024A00000D104E04FF48A7122A001F019F8A0686D
:1024B00018B1A068B0F5805F00D104E04FF48B71D3
:1024C0001CA001F00DF894F8390028B9002084F818
:1024D0003800204600F04CF8242084F839002068A9
:1024E000C06820F400502168C860204600F016FA49
:1024F0002068006920F490402168086120684069E4
:1025000020F02A00216848612068C06840F400502B
:102510002168C8600020E063202084F8390084F836
:102520003A00002086E700000038014000440040E7
:10253000004800402E2E2F447269766572732F5327
:10254000544D3332463178785F48414C5F4472696C
:102550007665722F5372632F73746D3332663178E0
:10256000785F68616C5F756172742E6300000000B3
:1025700010B586B0044600200290039004900590A8
:102580001A49206888422ED100BF1948806940F45A
:102590008040174988610846806900F480400190B6
:1025A00000BF00BF00BF0846806940F0040088619A
:1025B0000846806900F00400019000BF00BF481584
:1025C0000290022003900320059002A90948FEF71B
:1025D0002BFD4FF48060029000200390049002A92C
:1025E0000448FEF721FD06B010BD00000038014090
:1025F000001002400008014000BFFEE70EB50020B9
:102600000090019002901248124908600021114880
:1026100081600121C160002141614FF46021C161ED
:1026200000200C49486001210A480161FEF7A8FA20
:1026300008B1FEF706F901200090019000200290F9
:1026400069460448FEF7FEF808B1FEF7FAF80EBD39
:10265000002401407400002000B585B000200190E6
:1026600002900390049000BF4448806940F020002D
:10267000424988610846806900F02000009000BF50
:1026800000BF00BF0846806940F01000886108461E
:10269000806900F01000009000BF00BF00BF084636
:1026A000806940F0040088610846806900F00400F9
:1026B000009000BF00BF00BF0846806940F00800DE
:1026C00088610846806900F00800009000BF00BFE4
:1026D000002240F6FF712A48FEF706FF00224FF461
:1026E000F0712848FEF700FF00224FF470412648A1
:1026F000FEF7FAFE40F6FF700190012002900020E4
:1027000003900220049001A91D48FEF78DFC4FF4B0
:10271000F0700190012002900020039002200490AC
:1027200001A91848FEF780FC032001901748029089
:102730000020039001A91448FEF776FC4FF4704086
:10274000019001200290002003900220049001A932
:102750000D48FEF769FC00220B210620FEF79EFFC4
:102760000620FEF767FF00220B210720FEF796FFE9
:102770000720FEF75FFF05B000BD0000001002401B
:102780000010014000080140000C01400000211031
:1027900010B50B480B4908604FF4E1304860002148
:1027A00008488160C16001610C21416100218161A3
:1027B000C161FFF73BFE08B1FEF743F810BD000012
:1027C00000380140A400002000BFFEE700BF7047B2
:1027D0007047000002480068C0F302207047000004
:1027E0000CED00E010B5002807DA0A07140E054AC0
:1027F00000F00F031B1FD45403E00A07130E024A14
:10280000135410BD18ED00E000E400E008B50849DD
:102810000968C9084FF47A72B1FBF2F141430091A3
:1028200000BF00BF00994A1E00920029F9D108BDDF
:102830001000002000B593B0282109A8FDF7E7FC9F
:10284000142104A8FDF7E3FC002000900190029001
:1028500003900120099000040A9000200B900120B1
:102860000D9002201090C10311914FF4E0111291CC
:1028700009A8FFF7B9FA08B1FDF7E3FF0F200490AC
:1028800002200590002006904FF480600790002001
:102890000890022104A8FFF7ABF808B1FDF7D1FFBB
:1028A00002200090800302906846FEF7A5FF08B161
:1028B000FDF7C7FF13B000BD1148006840F00100EC
:1028C0000F490860084640680E4908400C494860B6
:1028D000084600680C490840094908600846006835
:1028E00020F4802008600846406820F4FE0048601C
:1028F0004FF41F008860C803044908607047000057
:10290000001002400000FFF8FFFFF6FE08ED00E0B7
:1029100010B50446012000F097FE10BD2DE9F041EE
:102920000446002587496068884200D204E040F6EA
:10293000A71185A000F0D4FDE06818B1E068B0F5FB
:10294000005F00D104E040F6A8117FA000F0C8FDB0
:10295000206938B12069B0F5806F03D02069B0F5E7
:10296000C06F00D104E040F6A91177A000F0B8FDD7
:102970004FF6F3716069084010B9606900B104E076
:1029800040F6AA1170A000F0ABFD2068006920F4A9
:102990004050E1680843216808612169A068084344
:1029A0006169084305432068C06841F20C618843AF
:1029B00028432168C8602068406920F44070A169FC
:1029C0000843216848616F49206888425CD1FFF75D
:1029D000B1F900EBC00101EB001061688900B0FBA8
:1029E000F1F6FFF7A7F900EBC00101EB00106168F9
:1029F0008900B0FBF1F06421B0FBF1F000EBC00105
:102A000001EB0010A6EB8000322101EB00106421E5
:102A1000B0FBF1F000F0F006FFF78CF900EBC0011D
:102A200001EB001061688900B0FBF1F06421B0FB9C
:102A3000F1F006EB0016FFF77DF900EBC00101EBAA
:102A4000001061688900B0FBF1F7FFF773F900EB44
:102A5000C00101EB001061688900B0FBF1F0642156
:102A6000B0FBF1F000EBC00101EB0010A7EB800020
:102A7000322101EB00106421B0FBF1F000F00F00F7
:102A80003044216888605BE0FFF744F900EBC00147
:102A900001EB001061688900B0FBF1F6FFF73AF92D
:102AA00000EBC00101EB001061688900B0FBF1F0A0
:102AB0006421B0FBF1F000EBC00101EB0010A6EBCC
:102AC0008000322101EB00106421B0FBF1F000F036
:102AD000F006FFF71FF900EBC00101EB0010616881
:102AE0008900B0FBF1F06421B0FBF1F006EB0016B9
:102AF000FFF710F900EBC00101EB001061688900DD
:102B0000B0FBF1F7FFF706F900EBC00101EB001095
:102B100061688900B0FBF1F06421B0FBF1F000EBDB
:102B2000C00101EB0010A7EB8000322101EB001087
:102B30006421B0FBF1F000F00F00304421688860A0
:102B4000BDE8F08121AA44002E2E2F4472697665DB
:102B500072732F53544D3332463178785F48414C6D
:102B60005F4472697665722F5372632F73746D338D
:102B700032663178785F68616C5F756172742E635C
:102B800000000000003801400FB410B592B015A845
:102B9000119001A8119A149900F022F8002404E081
:102BA00001A9085D00F00CF8641C01A8FDF73AFBD0
:102BB000A042F5D80020119012B010BC5DF814FBB3
:102BC00000BF0549096801F080010029F9D00249D8
:102BD000091D0860704700000038014000BFFEE793
:102BE00037B514460846064B6A46214600F0DCF825
:102BF00004466946002000F06EFC20463EBD000001
:102C0000D734000802E008C8121F08C1002AFAD110
:102C100070477047002001E001C1121F002AFBD15C
:102C2000704700002DE9FF5F82B00021DDE904302C
:102C3000020DDDF840B0034318D044F61050A2F264
:102C4000FF3242431514119801281FD0A5EB0B0049
:102C5000401C5FEA000A4FF000064E4FDFF8389143
:102C6000B046504615D5CAF1000413E0119801246E
:102C70004AA3012801D16FEA0B010298119AC0E919
:102C80000031C0E9024206B0BDE8F09FCBF1000080
:102C9000DFE704460021404A491842EB0450CDE9E1
:102CA000001012E0E00707D032463B464046494656
:102CB000FDF7ADFB8046894632463B461046194635
:102CC000FDF7A5FB06460F466410002CEAD1DDE9AE
:102CD0000401DDE90023BAF1000F06DAFDF797FBE6
:102CE00042464B46FDF793FB05E0FDF702FC4246EA
:102CF0004B46FDF7FEFB04460E460022284BFDF72F
:102D00007FFC03D84FF0FF30014607E00022254B3F
:102D100020463146FDF7D4FAFDF75AFC102409E0AD
:102D2000002C0ADB0A220023FDF799FA039B3032BC
:102D30001A55641E50EA0102F2D1641C039AC4F1D0
:102D400011031444119A012A03D0012208430DD122
:102D50000AE0084304D000204FF0110B119072E7F5
:102D6000A3EB0B056D1E0DE05B4504DD4FF000028B
:102D700005F1010504E003DA4FF00002A5F10105B9
:102D8000002AECD002981199C0E90231C0E900454F
:102D900079E70000000014400000F03F3000000020
:102DA0000000F0430000E03F2DE9FF4F95B09B4647
:102DB0008946064600250FE2252877D100242746BC
:102DC000F84A0121059400E0044316F8013F203B36
:102DD00001FA03F01042F7D130782A2811D06FF0B1
:102DE0002F033078A0F13002092A16D8059A44F052
:102DF000020402EB820203EB42021044761C0590AF
:102E0000EFE759F8042B0592002A03DA504244F404
:102E10000054059044F00204761C30782E2816D118
:102E200016F8010F44F004042A280DD06FF02F0289
:102E30003078A0F13003092B09D807EB870302EBA8
:102E40004303C718761CF3E759F8047B761C3078E7
:102E50006C280FD006DC4C2817D068280DD06A28C3
:102E600014D104E0742810D07A280FD10DE044F476
:102E700000140AE044F4801401E044F44014727831
:102E8000824202D104F58014761C761C30786628C4
:102E90000BD013DC582877D009DC002875D04528E2
:102EA000F6D04628F4D047281AD19DE118E06328CF
:102EB00035D0642879D0652812D195E1702873D077
:102EC00008DC6728F1D069286FD06E280DD06F28F4
:102ED00006D1B5E073282CD0752875D0782874D029
:102EE0005A46179990476D1C75E1C4F302500228A9
:102EF00009D003280DD0D9F8001004280DD00D609A
:102F000009F1040967E1D9F80010EA17C1E9005294
:102F1000F6E7D9F800100D80F2E70D70F0E719F828
:102F2000041B8DF8001000208DF80100EA460120F6
:102F300003E059F804AB4FF0FF3061074FF0000198
:102F400002D40DE008F101018846B9420FDA80454C
:102F5000F8DB1AF808100029F4D108E008F10101A3
:102F600088468142FADB1AF808100029F6D1059844
:102F70005B46A0EB080721463846179A00F094FA02
:102F8000284400EB080507E04DE029E10DE01AF8C0
:102F9000010B5A4617999047B8F10108F7D25B46E2
:102FA00021463846179A13E142E00A220092C4F300
:102FB00002524FF0000A022A08D059F804CB032A23
:102FC0004FEAEC710AD00DE029E02AE009F107018F
:102FD00021F00702F2E802C1914609E00FFA8CFCE9
:102FE0004FEAEC71042A03D14FFA8CFC4FEAEC71E2
:102FF000002907DA0A460021DCF1000C61EB02012E
:103000002D2202E0220504D52B228DF80420012276
:1030100003E0E20701D02022F7E7904659E00A21B9
:1030200002E010220DE010214FF0000A00910BE0A9
:1030300010224FF0000A44F004040827009203E035
:1030400008224FF0000A0092C4F30252022A05D06F
:1030500059F804CB0021032A08D009E009F107013F
:1030600021F00702F2E802C1914605E01FFA8CFC4C
:10307000042A01D10CF0FF0C4FF00008220728D5DC
:10308000702806D0009B83F0100353EA0A0305D092
:103090000EE040228DF80420012208E05CEA0102E3
:1030A00006D030228DF804208DF8050002229046CB
:1030B000009B83F0080353EA0A030AD15CEA010289
:1030C00001D1620705D530228DF804204FF00108A8
:1030D0007F1E582804D034A003900EA802900DE063
:1030E00036A0F9E753466046009AFDF7B8F88446E3
:1030F0000398825C0298401E029002705CEA010014
:10310000F0D1029806A9081A00F1200A600702D53A
:1031100024F4803400E00127574502DDA7EB0A00C4
:1031200000E0002000EB0A01009005984144401A9D
:103130000590E00306D45B462146179A059800F0F7
:10314000B3F90544002706E001A85A46C05D179967
:1031500090476D1C7F1C4745F6DBE0030CD55B46B2
:103160002146179A059800F09FF9054404E03020A5
:103170005A46179990476D1C0099481E00900029E7
:10318000F5DC08E0029802995A460078491C029141
:10319000179990476D1CBAF10001AAF1010AF1DC00
:1031A00065E100000928010030313233343536370B
:1031B0003839616263646566000000003031323383
:1031C0003435363738394142434445460000000023
:1031D00000F058F90544761C307800287FF4ECADF7
:1031E00019B02846BDE8F08F620700D4062709F120
:1031F000070222F0070CFCE80223E14603F0004836
:103200005FEA080C02D00FF2702C0DE05FEA045C5C
:1032100002D50FF2682C07E05FEAC47C02D00FF2FF
:10322000602C01E0AFF2700C4FF0FF3823F0004348
:10323000CDF850C065280CD006DC452809D04628BA
:103240001DD047283DD13DE0662818D067287ED1A3
:1032500038E00021112F01DB112000E0781CCDE9BE
:10326000000106A90EA8FFF7DDFCDDE90F010E9AAB
:1032700003910021009207F1010A04914DE04FF003
:1032800000400097CDE9011006A90EA8FFF7CAFC7F
:10329000DDE90F0203920E9B11990022DDF80CA0CC
:1032A0000093049211B9791C00EB010AB7EB0A00F4
:1032B00004D4C0F1FF3007F1010A0490AAEB070023
:1032C000019044E0012F00DA01270021112F01DDD8
:1032D000112000E03846CDE9000106A90EA8FFF74D
:1032E000A1FCDDE90F010E9A0391002104910092E7
:1032F000BA4621070CD40399514500DA8A46BAF13F
:10330000010F05DD009AAAF10101515C302908D0B6
:10331000B84202DA10F1040F06DA0121CDE90110FA
:1033200015E0AAF10101E9E7002805DC0499014450
:103330000491AAEB000102E0411C514500DD8A46E0
:103340000499401A401C01904FF000400290200761
:1033500004D40198504501DBCDF8048000208DF89D
:103360004F0002980DF14F07B0F1004F25D02B20F0
:103370000E9002984FF0020800280CDA40420290AA
:103380002D200E9007E00A210298FCF752FF303101
:10339000029007F8011DB8F10001A8F10108F2DC64
:1033A00002980028EFD1791E0E980870307800F04E
:1033B000200040F0450007F8020D12A8C01B00F1E4
:1033C00007081498007800B1012000EB0A01019869
:1033D00001EBE07105984144401A401E0590E0035E
:1033E00006D45B462146179A059800F05DF805441F
:1033F0001498007818B15A46179990476D1CE0034D
:1034000024D55B462146179A059800F04DF80544EF
:103410001CE00498002807DBDDE90301884203DD96
:103420000098405C179901E0179930205A46904760
:10343000049805F10105401C04900198401E01907C
:1034400004D12E205A46179990476D1CBAF10001FD
:10345000AAF1010ADDDC05E017F8010B5A461799BD
:1034600090476D1CB8F10001A8F10108F4DC5B463F
:103470002146179A0598ABE62D0000002B000000AE
:10348000200000002DE9F041044600251E461746A5
:10349000880404D405E039462020B0476D1C641E22
:1034A000F9D52846BDE8F0812DE9F0410446002514
:1034B0001E469046C80301D5302700E02027880427
:1034C00004D505E041463846B0476D1C641EF9D569
:1034D0002846BDE8F0810A68531C0B6010707047E5
:1034E0007047000030B58BB005460C4628221149C4
:1034F00001A8FCF773FE1048C06820F0FF000E49D9
:10350000C8600E48006820F470400C4908600A4802
:10351000C06801A951F8241008430749C86007484A
:10352000006805F10C0101228A401043034908603C
:103530000BB030BDE44B0008001001400C0C014002
:1035400010B50248FDF7E8FA10BD00007400002035
:1035500070B5044601252CB908210C48FDF760FF21
:1035600005460EE0012C05D104210848FDF758FF5F
:10357000054606E0022C04D110210448FDF750FF57
:1035800005460DB9012070BD0020FCE70008014090
:1035900010B501224FF4F0710448FDF7A5FF012298
:1035A0004FF470610248FDF79FFF10BD0008014015
:1035B0000010014010B504462CB9002220212048FB
:1035C000FDF792FF3AE0012C05D1002240211C4872
:1035D000FDF78AFF32E0022C05D100228021184835
:1035E000FDF782FF2AE0032C06D100224FF4807100
:1035F0001348FDF779FF21E0042C05D10022A10139
:103600001048FDF771FF19E0052C06D100224FF498
:1036100000710C48FDF768FF10E0062C06D100226F
:103620004FF480610748FDF75FFF07E0072C05D1E5
:1036300000224FF400610348FDF756FF10BD000063
:10364000000801400010014010B5044624B92021B3
:103650001C48FDF719FF33E0012C04D14021194823
:10366000FDF712FF2CE0022C04D180211548FDF754
:103670000BFF25E0032C05D14FF480711148FDF7B5
:1036800003FF1DE0042C04D1A1010F48FDF7FCFE4F
:1036900016E0052C05D14FF400710B48FDF7F4FE40
:1036A0000EE0062C05D14FF480610748FDF7ECFED3
:1036B00006E0072C04D14FF400610348FDF7E4FE57
:1036C00010BD00000008014000100140FDF74EFF52
:1036D000FFF7B0F8FEF7C0FFFFF75AF8FEF78EFFCE
:1036E0004048FDF7B9FBFFF753FF00F003FD00254D
:1036F00076E00020FFF72CFF18B13BA0FFF744FA5B
:103700000EE00120FFF724FF18B13CA0FFF73CFAC0
:1037100006E00220FFF71CFF10B13EA0FFF734FACD
:103720000520B5FBF0F100FB115060B9FFF730FF49
:103730003D490868FFF73EFF3B480078401C00F019
:10374000070039490860FDF70BFF04460A20B4FB67
:10375000F0F00A21B0FBF1F201FB12096420B4FB86
:10376000F0F0B0FBF1F201FB12084FF47A70B4FBF9
:10377000F0F0B0FBF1F201FB120742F21070B4FB63
:10378000F0F0B0FBF1F201FB120631460020FFF72A
:10379000A9FE0520FDF724FC39460120FFF7A2FE13
:1037A0000520FDF71DFC41460220FFF79BFE05208A
:1037B000FDF716FC49460320FFF794FE0520FDF7B0
:1037C0000FFC0A20B5FBF0F100FB115030B9FFF7F8
:1037D000B7FE8246514615A0FFF7D6F96D1C00BF13
:1037E00087E70000740000204C454654204B4559A3
:1037F00020504553534544200D0A000043454E5484
:103800004552204B455920504553534544200D0AFD
:10381000000000005249474854204B45592050456C
:1038200053534544200D0A00000000204344532018
:1038300056616C7565203A202564200D0A00000051
:103840002DE9F04105460E461C4807681C480068F3
:10385000001D00F071FC50B91948006890F82C1058
:103860000120884017490968814316480160681C97
:1038700038B936B112480168091D134800F09CFCA4
:103880001AE07C190E4800684460BC4207D20C481C
:103890000168091D0D48006800F074FC0CE0084840
:1038A0000168091D0A48006800F06CFC09480068BE
:1038B000844201D207480460BDE8F081280000205E
:1038C000140000202C000020980100201C00002083
:1038D000180000204400002010B5044600F078FCD9
:1038E00023480068401C224908602248006840B90B
:1038F000204804600846006801280DD100F084F9D2
:103900000AE01D48006838B91A480068C06AE16AD0
:10391000884201D81748046018480068401C1749BD
:10392000086094F82C100120884015490968084364
:1039300013490860E16A01EB8101124A02EB810040
:10394000211D00F039FC00F055FC0B48006868B1FF
:1039500008480068C06AE16A884207D24FF0805088
:1039600009490860BFF34F8FBFF36F8F10BD000090
:10397000240000201400002030000020400000201F
:103980002C000020E400002004ED00E010B500F061
:103990001FFC0C48006890B90B4800F0E3FB0B4893
:1039A00000F0E0FB08480A49086008480949086037
:1039B00000220C210A2000F03FFD0249086000F0BF
:1039C00019FC10BD5C000020AC010020C0010020EB
:1039D000540000205800002010B516E000F0F8FB5D
:1039E0000C48C068C468201D00F0A6FB0A480068A7
:1039F000401E0949086009480068401E07490860E0
:103A000000F0F8FB204600F055F804480068002854
:103A1000E4D110BD840100202400002020000020FB
:103A200070B504460D46206C70B1216CE06801440D
:103A3000E160D4E90210884201D32168E1602846A0
:103A4000226CE168FCF7CAFB70BD2DE9F041044629
:103A50000F4615464FF00008A66B206C28B37DB9C1
:103A60003946226C6068FCF7B9FB216C6068084439
:103A70006060D4E90101884217D32068606014E0D7
:103A80003946226CE068FCF7A9FB216CE068411A1A
:103A9000E1602168E068884203D2216CA068411A85
:103AA000E160022D01D106B1761E701CA063404674
:103AB000BDE8F08110B50446206B00F0ABFB20465A
:103AC00000F0A8FB10BD00000146084A1268126809
:103AD0000AB9012200E000220A600A6822B9034AFA
:103AE0001268D268106800E000207047540000207F
:103AF00000BFFFF771FF07480068012807D94FF0A2
:103B0000805005490860BFF34F8FBFF36F8F00F0FF
:103B100027FBEEE7E400002004ED00E02DE9F04192
:103B200006460D4617469846069C0DB9246000E0EF
:103B30002760E66325640121204600F097FCBDE87C
:103B4000F0812DE9FF5F80460E469146DDE90E7A51
:103B5000109CA9F10100216B01EB800B2BF0070BEE
:103B600086B1002507E0715D04F134004155705DB8
:103B700000B902E06D1C102DF5D300BF00214320D9
:103B8000015502E0002084F83400052F00D30427FB
:103B9000E762201D00F0F3FA04F1180000F0EFFADC
:103BA0002461C7F10500A06164620020606484F8AC
:103BB000480041465846039A00F08AFA2060BAF15C
:103BC000000F01D0CAF80040BDE8FF9F2DE9F04783
:103BD00005460E4617469846DDE908948CB1FFF776
:103BE000D5FE2560A661C4F81C80C4F82090201D75
:103BF00000F0C5FA2FB194F8240040F0040084F8D6
:103C00002400BDE8F087000010B5002407E004EBB5
:103C100084010F4A02EB810000F0A4FA641C052C19
:103C2000F5D30C4800F09EFA0B4800F09BFA0B48C5
:103C300000F098FA0A4800F095FA0A4800F092FA63
:103C400004480949086004480849086010BD00009C
:103C5000E4000020480100205C01002070010020E9
:103C60008401002098010020180000201C00002082
:103C70002DE9F04104460D4616461F464FF0000858
:103C800065602461B5420CD8F01BA169884202D35B
:103C90004FF0010811E0211D0948006800F072FA98
:103CA0000BE0BE4204D2BD4202D34FF0010804E053
:103CB000211D0448006800F065FA4046BDE8F08127
:103CC000580000205400002070B5054600F080FA2E
:103CD000A86B08B9012400E0002400F08BFA20460C
:103CE00070BD70B5054600F073FAA86BE96B8842A9
:103CF00001D1012400E0002400F07CFA204670BDD0
:103D0000F8B505460E4614480068C068C468201D12
:103D100000F012FA94F8240000F0040088B1A069C1
:103D200041192B4632462046FFF7A2FF78B100200A
:103D300003462A4601460090204600F01DFF074634
:103D400005E094F8240020F0010084F824002046C7
:103D5000216A8847F8BD00005400002070B586B085
:103D60006DE0039800286ADB059C606908B90120B2
:103D700000E0002010B9201D00F0DEF902A800F0DC
:103D8000BDF8054603980A2857D2DFE800F0090578
:103D9000072D354606082E3600BF00BF00BF00BF06
:103DA00094F8240040F0010084F824000498A269EB
:103DB000811803462A462046FFF75AFF98B120464D
:103DC000216A884794F8240000F0040058B10020CC
:103DD00000900498A169421800231946204600F07B
:103DE000CBFE064600BF29E000BF94F8240020F077
:103DF000010084F8240021E000BF94F8240040F082
:103E0000010084F824000498A061A06941192B46A0
:103E10002A462046FFF72CFF10E094F8240000F01B
:103E2000020018B9204600F0F5F905E094F82400E6
:103E300020F0010084F8240000E000BF00BF002251
:103E400003A90448006800F023FC002889D106B0CB
:103E500070BD00005C000020F8B505460C4600F07F
:103E60007FFA684600F04AF80646009820BB44B93D
:103E7000B54206D800F0D2FD31462846FFF740FF94
:103E80001CE03CB10E480068006808B9012000E061
:103E900000200446A91B22460A48006800F0C8F921
:103EA00000F0BCFD50B94FF0805007490860BFF3E7
:103EB0004F8FBFF36F8F01E000F0B0FDF8BD000041
:103EC000580000205C00002004ED00E00948006874
:103ED000006808B9012000E0002020B14FF0FF3059
:103EE0000549086005E003480068C06800680249A9
:103EF00008607047180000204400002070B5044698
:103F000000F0B8FC054607480068854204D200F07E
:103F10000BF80120206001E00020206001480560CE
:103F2000284670BD640000202DE9F84328E01E48B3
:103F30000068C06805681C480068C068C468201D27
:103F400000F0FAF82046216A884794F8240000F02F
:103F50000400A8B1A0694619AE4207D96660246181
:103F6000211D1148006800F00DF909E0002003460A
:103F70002A4601460090204600F0FEFD804600BF24
:103F800009480068006808B9012000E00020002806
:103F9000CDD0054807680548006803490860034814
:103FA0000760BDE8F883000054000020580000209E
:103FB00000BFBF2080F31188BFF34F8FBFF36F8F17
:103FC00000BF00BFFEE708B500BF6846FFF77CFDF5
:103FD000044620460099FFF73FFFFFF7BFFEF4E7D6
:103FE00070B5044600F0F4F894F9455010E0606AAA
:103FF00008B9012000E0002038B904F1240000F0E5
:10400000CDFC18B100F046F900E003E0681E45B2AF
:10401000002DECDC00BFFF2084F8450000F0EAF83A
:1040200000F0D6F894F9445010E0206908B9012056
:1040300000E0002048B904F1100000F0AFFC08B126
:1040400000F028F9681E45B200E001E0002DECDC2C
:1040500000BFFF2084F8440000F0CCF870BD0000E1
:1040600070B50446002504F0070020B104F00700F5
:10407000C0F10800044400F073F91248006820B948
:10408000114820F007000F490860104800682044DC
:1040900042F6F871884210D20C48006820440B495F
:1040A0000968884209D9074800680849096845181D
:1040B0000648006820440549086000F0AFFC284627
:1040C00070BD00006C000020DC01002068000020B2
:1040D000001F4FF080730360001F21F00103036095
:1040E000001F034B03601438026020387047000043
:1040F000B13F0008F8B500240B48234601224FF4D5
:104100007A71009009A000F0FDFC054600F0B2FBBA
:1041100006460023324601212846009400F02CFD7B
:1041200000F0E2F8F8BD00001129000854494D459F
:10413000525F4655435F300001460A69D1E90130BC
:104140009860D1E9010358605068884201D18868BD
:104150005060002008611068401E106010687047B1
:1041600000BF704700F1080141604FF0FF318160EE
:1041700000F10801C1600161002101607047002168
:104180000161704710B502460B685C1C0CB91069E0
:1041900007E002F1080000E04068446824689C429F
:1041A000FAD944684C604C68A160886041600A613B
:1041B0001468641C146010BD42684A6093688B6088
:1041C000936859609160086103685B1C03607047E5
:1041D00000BFBF2080F31188BFF34F8FBFF36F8FF5
:1041E00000BF03480068401C014908607047000098
:1041F0007000002006480068401E05490860084617
:10420000006820B9002080F3118800BF00BF70470C
:10421000700000207047000000204FF0E02108618E
:104220008861024848610720086170473F19010012
:104230002DE9F04105460E4617462C46FFF7C8FF0C
:1042400094F94400401C10B9002084F8440094F90B
:104250004500401C10B9002084F84500FFF7CAFF54
:10426000A06B28B93A46314604F1240000F028F842
:104270002046FFF7B5FEBDE8F0810000034909685C
:104280000160034909684160704700003C0000205C
:1042900028000020012001490860704738000020F4
:1042A00070B505460C460548016818312846FFF7E9
:1042B00069FF01212046FFF7C3FA70BD14000020FA
:1042C00070B506460D46144606480168183130465A
:1042D000FFF772FF0CB14FF0FF3521462846FFF77C
:1042E000AFFA70BD140000201CB5154800210B4624
:1042F0008022CDE9001013A1144800F07BFA044697
:10430000012C02D100F01AFC0446012C14D100BF8C
:10431000BF2080F31188BFF34F8FBFF36F8F00BFB3
:104320004FF0FF300A49086001200A490860002068
:104330000949086000F04CF8084800681CBD0000FE
:104340004800002049444C4500000000F13A0008B4
:104350004400002030000020280000204C000020F5
:1043600002480068401C0149086070475000002066
:104370001248006818B10120114908601DE00020B2
:104380000F4908600F480068B0FA80F0C0F11F01C3
:1043900001EB81020C4B03EB8200426852684260E1
:1043A00000F108024368934202D1426852684260B9
:1043B0004268D268054B1A6000BF70475000002069
:1043C000380000202C000020E40000201400002011
:1043D00010B50A48006840F47F00084908600846A4
:1043E000006840F07F400860FFF716FF0020044996
:1043F0000860FBF797FE002010BD000020ED00E0F4
:104400007000002010B500BFBF2080F31188BFF3FB
:104410004F8FBFF36F8F00BF00F032FA18B14FF02B
:1044200080500449086000BF002080F3118800BF5D
:1044300010BD000004ED00E02DE9F84305460E46EE
:10444000174605FB06F909F14800FFF709FE044687
:104450004CB1A04608F148083B4642463146284642
:104460000094FFF75BFB2046BDE8F88370B5054676
:104470000E462C46FFF7ACFED4E90F12206801FB74
:104480000200A0600020A06320686060E06B401E16
:10449000226C216800FB0211E160FF2084F84400D7
:1044A00084F845009EB9206908B9012000E0002089
:1044B000A8B904F1100000F071FA80B14FF08050FB
:1044C00009490860BFF34F8FBFF36F8F07E004F116
:1044D0001000FFF747FE04F12400FFF743FEFFF74B
:1044E00089FE012070BD000004ED00E02DE9FF43CE
:1044F00083B0074688461D464FF000093C4600BF82
:10450000FFF766FEA06BE16B884201D3022D28D134
:104510002A4641462046FFF798FA0646606A08B9DF
:10452000012000E0002068B904F1240000F036FA10
:1045300088B14FF0805032490860BFF34F8FBFF30E
:104540006F8F08E03EB14FF080502D490860BFF3F7
:104550004F8FBFF36F8FFFF74DFE012007B0BDE80F
:10456000F083059818B9FFF745FE0020F6E7B9F18A
:10457000000F04D101A8FFF781FE4FF00109FFF7FA
:1045800039FEFFF7EDFEFFF723FE94F94400401CCF
:1045900010B9002084F8440094F94500401C10B97B
:1045A000002084F84500FFF725FE05A901A800F0CA
:1045B000F1F8F0B92046FFF794FBA0B104F1100028
:1045C0000599FFF76DFE2046FFF70AFD00F026FA79
:1045D000002895D14FF0805009490860BFF34F8FF4
:1045E000BFF36F8F8CE72046FFF7FAFC00F016FA56
:1045F00086E72046FFF7F4FC00F010FA0020ADE754
:1046000004ED00E02DE9F84F05468A4616461F46A0
:104610002C4600BFBF21EFF3118081F31188BFF357
:104620004F8FBFF36F8F00BF8146A06BE16B884255
:1046300001D3022F22D194F945B0A06B00903A46E5
:1046400051462046FFF701FA0BF1010070B9606A8C
:1046500008B9012000E0002038B904F1240000F07E
:104660009DF910B10EB10120306004E00BF10100A2
:1046700040B284F845004FF0010801E04FF0000817
:1046800000BF89F3118800BF4046BDE8F88F0000E5
:104690002DE9F74183B005460F464FF000082C4640
:1046A00000BFFFF795FDA66BF6B139462046FFF730
:1046B000B7F9701EA063206908B9012000E000204E
:1046C00060B904F1100000F069F938B14FF0805082
:1046D0002F490860BFF34F8FBFF36F8FFFF78AFD3D
:1046E000012006B0BDE8F081059818B9FFF782FDFA
:1046F0000020F6E7B8F1000F04D101A8FFF7BEFDD6
:104700004FF00108FFF776FDFFF72AFEFFF760FD87
:1047100094F94400401C10B9002084F8440094F936
:104720004500401C10B9002084F84500FFF762FDE9
:1047300005A901A800F02EF8F0B92046FFF7C4FA49
:10474000A0B104F124000599FFF7AAFD2046FFF768
:1047500047FC00F063F90028A3D14FF080500C49CA
:104760000860BFF34F8FBFF36F8F9AE72046FFF7C4
:1047700037FC00F053F994E72046FFF731FC00F0D6
:104780004DF92046FFF7A0FA00288AD00020A8E7BC
:1047900004ED00E070B506460C46FFF719FD13481E
:1047A00002687068131A2068401C08B9002519E0D7
:1047B0000F4930680968884206D07068904203D873
:1047C0000125002020600DE02068984207D920686C
:1047D000C01A20603046FFF751FD002502E000209E
:1047E00020600125FFF706FD284670BD2800002047
:1047F0003C0000202DE9FF4F85B0804689461746D2
:10480000DDE912ABB800FFF72BFC064656B14C2091
:10481000FFF726FC04460CB1266304E03046FFF7A0
:10482000F9FC00E000247CB10020CDE900ABCDE92B
:1048300002403A4649464046089BFFF782F9204627
:10484000FFF74AF8012501E04FF0FF35284609B08F
:10485000BDE8F08F0549096809B9012005E0044960
:10486000096809B9022000E00020704730000020EC
:10487000500000200149086870470000280000200F
:104880002DE9F04100273A480068002867D13948EF
:104890000068451C374805608DB93748D0F800805E
:1048A00036480068344908603448C0F8008034480D
:1048B0000068401C32490860FFF708FB00BF314820
:1048C000006885423BD300BF2B480068006808B9E8
:1048D000012000E0002020B14FF0FF30294908609E
:1048E0002CE025480068C068C4686668B54202D2FA
:1048F0002448066022E0201DFFF71EFCA06A18B1C4
:1049000004F11800FFF718FC94F82C1001208840DF
:104910001D49096808431C490860E16A01EB8101EF
:104920001A4A02EB8100211DFFF746FC1849E06A94
:104930000968C96A8842C7D30127C5E700BF144880
:104940000068C06A00EB8000104951F8200001287F
:1049500000D901270F48006800B1012704E00E4884
:104960000068401C0C4908603846BDE8F081000032
:104970005000002028000020180000201C0000200B
:104980003C000020440000202C000020E400002017
:1049900014000020380000203400002070B50646C6
:1049A000F068C46804F11800FFF7C6FB15480068FA
:1049B000A8B9201DFFF7C0FB94F82C1001208840F7
:1049C00011490968084310490860E16A01EB810157
:1049D0000E4A02EB8100211DFFF7EEFB04E004F11B
:1049E00018010B48FFF7E8FB0A49E06A0968C96A41
:1049F000884204D9012501200749086000E000250C
:104A0000284670BD500000202C000020E40000204B
:104A100070010020140000203800002070B5002430
:104A20000026FFF7D5FB2E480068401E2C49086081
:104A30000846006800284FD12A48006800284BD05B
:104A400024E02948C068C46804F11800FFF774FB2B
:104A5000201DFFF771FB94F82C100120884023499A
:104A60000968084321490860E16A01EB8101204A95
:104A700002EB8100211DFFF79FFB1E49E06A0968D8
:104A8000C96A884202D301201B49086016480068A1
:104A900008B9012000E000200028D2D00CB1FFF7B7
:104AA00015FA1648056865B100BFFFF7E9FE10B1B9
:104AB0000120114908606D1E002DF6D100200F491C
:104AC00008600D48006838B1012630070C490860BD
:104AD000BFF34F8FBFF36F8FFFF78CFB304670BD76
:104AE0005000002024000020700100202C00002035
:104AF000E4000020140000203800002034000020D2
:104B000004ED00E02DE9FC4705460E4617469846A1
:104B1000DDF828902820FFF7A3FA044654B10020BE
:104B200084F8240043463A4631462846CDE90094AD
:104B3000FFF74CF82046BDE8FC8700001CB50024B8
:104B4000FEF724FF0748006850B107480221002300
:104B50008022CDE9001005A10648FFF74BFE044670
:104B600020461CBD5C00002060000020546D7220B7
:104B700053766300C73F00082DE9FE4305460C4607
:104B800016461F46DDF828804FF0000914480068DB
:104B900010B3009401960295062C15DAFFF75AFE21
:104BA000022808D10023424669460D480068FFF7F5
:104BB0009DFC814610E000231A46694608480068BB
:104BC000FFF794FC814607E000233A466946044813
:104BD0000068FFF717FD81464846BDE8FE830000E8
:104BE0005C0000203F000000060000005B000000A9
:104BF0004F000000660000006D0000007D00000016
:104C0000270000007F0000006F000000000000008F
:104C1000000000000102030406070809000000006C
:104C200001020304444C000800000020740000004E
:104C3000042C0008B84C00087400002064390000FF
:104C4000142C00080000000000000000100000000C
:104C50000100000000A24A04000000000000000063
:104C60000000000000000000000000000000000044
:104C70000000000000000000000000000000000034
:104C80000000000000000000000000000000000024
:104C90000400000000000000000000000000000010
:104CA0000000000000000000000000000000000004
:084CB00000000000AAAAAAAA54
:04000005080000ED02
:00000001FF
