:020000040800F2
:10000000B8390020990100087127000899250008D7
:100010006927000829080008252C000800000000B6
:1000200000000000000000000000000001010008C6
:100030002D0800080000000045010008F93E0008F6
:10004000B3010008B3010008B3010008B3010008C0
:10005000B3010008B30100082F08000839080008A0
:10006000B3010008B3010008B3010008B3010008A0
:10007000B3010008B3010008B3010008B301000890
:10008000B3010008B3010008B3010008B301000880
:10009000B3010008B3010008B3010008B301000870
:1000A000B3010008B3010008B3010008B301000860
:1000B000B3010008B3010008B3010008B301000850
:1000C000B3010008B3010008B3010008B301000840
:1000D000B3010008B3010008B3010008B301000830
:1000E000B3010008B3010008B3010008DFF80CD029
:1000F00000F09EFA0048004791360008B839002009
:10010000224B19680868B0E8F00F80F30988BFF344
:100110006F8F4FF0000080F311884EF00D0E704786
:100120000000000006480068006880F3088862B696
:1001300061B6BFF34F8FBFF36F8F00DF00BF00BF0B
:1001400008ED00E0EFF30980BFF36F8F0F4B1A68E3
:1001500020E9F00F106008B54FF0BF0080F3118860
:10016000BFF34F8FBFF36F8F03F07CFE4FF00000A3
:1001700080F31188BDE8084019680868B0E8F00FFE
:1001800080F30988BFF36F8F704700BF30000020F5
:10019000EFF3058070470000064880470648004797
:1001A000FEE7FEE7FEE7FEE7FEE7FEE7FEE7FEE727
:1001B000FEE7FEE759280008ED000008202A04DBCE
:1001C000203A21FA02F00021704721FA02F3D040D0
:1001D000C2F12002914008431946704740EA0103EA
:1001E0009B0703D009E008C9121F08C0042AFAD2ED
:1001F00003E011F8013B00F8013B521EF9D27047B1
:10020000D2B201E000F8012B491EFBD27047002258
:10021000F6E710B513460A4604461946FFF7F0FF05
:10022000204610BD421C10F8011B0029FBD1801A8A
:10023000704730B50B46014600202022012409E01A
:1002400021FA02F59D4205D303FA02F5491B04FA8F
:1002500002F52844151EA2F10102F1DC30BD2DE9A2
:10026000F05F0546002092469B468846064681463A
:1002700040241BE02846414647462246FFF79EFFA2
:1002800053465A46C01A914110D311461846224689
:1002900000F0E0F92D1A67EB01084F4622460120D5
:1002A000002100F0D7F917EB00094E41201EA4F100
:1002B0000104DFDC484631462A464346BDE8F09F4C
:1002C0002DE9FE4F804681EA0300C00F0C460090E6
:1002D00021F0004123F00045B8EB0200A94105D20E
:1002E0004046214690461C460B46024623F00040FD
:1002F000104347D0270DC7F30A00C3F30A510290F9
:10030000401A019040286BDAC3F3130040F4801BBD
:100310000098924620B10023D2EB030A63EB0B0B4B
:1003200001985946C0F14002504600F093F9064644
:100330000D4650465946019A00F09BF910EB080013
:100340006141002487EA115284EAE7731A4340D0DE
:10035000009A62B3019A012A4FEA075215DC001B8A
:1003600061EB02014FF0004202EA0752CDE9004280
:10037000001C41F5801132462B4600F09BF903B07A
:10038000BDE8F08F40462146F9E7001B61EB020112
:10039000001C41F5801300185B412018A2F50017DE
:1003A00047EB030140EAD570B6196D4111E06D08C5
:1003B0004FEA360645EAC0754FEA0752001B61EB6B
:1003C0000201001C41F5801149084FEA3000001974
:1003D000514132462B4603B0BDE8F04F00F05BB907
:1003E0000098012240000023D0EB020263EBE0738F
:1003F000009821464FEAE074B8EB000061EB04017D
:10040000E9E783F000435BE781F0004158E72DE91D
:10041000FE4F81EA030404F0004421F000410094FF
:100420004FF0000B23F0004350EA01045ED052EA83
:1004300003045BD0C3F30A54C1F30A552C44A4F25D
:10044000F3340194A0FB0254C1F3130141F4801171
:10045000C3F3130343F4801301FB024400FB034E78
:10046000840A970A44EA815447EA8357A4FB076841
:1004700002958D0A05FB07854FEA932C04FB0C546B
:100480002705029D4FEA065847EA1637B5EB0805DF
:100490006EEB070C870E920E47EA811742EA831231
:1004A000A7FB0201B6EB0B0164EB00042B0D43EA42
:1004B0000C335E1844EB1C50DA465146E7FB020150
:1004C000C5F313044FEA0B3343EA14534FEA0432E3
:1004D000019C43EA0603A4F10C040294009CCDE9BC
:1004E00000B400F0E7F803B0BDE8F08F002001464B
:1004F000F9E72DE9F04D81EA030404F0004B21F007
:10050000004514464FF0000A23F0004150EA05026E
:1005100020D054EA01021DD0C5F30A570246C5F3A4
:100520001303C1F31300C1F30A5640F4801543F4DA
:100530008013A7EB0608101BD64608F2FD3873EBB4
:10054000050002D308F1010801E092185B41B8F1FF
:10055000000F03DA00200146BDE8F08D00204FF4C3
:100560008011064684460EE0171B73EB050705D382
:10057000121B63EB050306434CEA010C49084FEAE2
:10058000300092185B4150EA0107EDD152EA0300B6
:1005900012D082EA040083EA0501084305D0101B4B
:1005A000AB4106D20122002306E000224FF00043B7
:1005B00002E06FF0010253101AEB06004CEB0851F9
:1005C00010EB0A0041EB0B01BDE8F04D00F063B801
:1005D000C1F30A52C1F3130140F2FF3341F4801119
:1005E0009A4202DA00200146704740F233439A42B1
:1005F000A2F2334202DC5242FFF7E0BD00F02AB81B
:1006000030B5041E71F1000404DB4FF00044404299
:1006100064EB0101141E73F1000405DB1C464FF06E
:100620000043524263EB0403994208BF904230BD3D
:10063000064C074D06E0E06840F0010394E807002F
:1006400098471034AC42F6D3FFF754FD004400083D
:1006500020440008202A04DB203A00FA02F100209E
:1006600070479140C2F1200320FA03F319439040F0
:100670007047202A06DBCB17203A41FA02F043EA02
:10068000E07306E041FA02F3D040C2F1200291404B
:1006900008431946704710B5141E73F1000408DAB8
:1006A000401C41F1000192185B411A4301D120F036
:1006B000010010BD2DE9F04D92469B4611B1B1FAF3
:1006C00081F202E0B0FA80F220329046FFF7C2FFDA
:1006D00004460F4640EA0A0041EA0B0153465A46D7
:1006E000084313D0114653EA010019D0C8F1400263
:1006F0005046FFF763FD05460E46504659464246B2
:10070000FFF7A8FF084305D0012004E02046394642
:10071000BDE8F08D0020054346EAE0762C433743E0
:100720000A986305E40AA0EB08000022FD0A44EAE7
:1007300047540A3002D500200146E9E701051019A7
:100740006941DDE9084500196941BDE8F04DA2E7BE
:1007500070B5044600252068806800F00100F0B103
:100760002068806820F001002168886000F0C8FEE1
:1007700005460EE000F0C4FE401B022809D9A06A1D
:1007800040F01000A062E06A40F00100E062012049
:1007900070BD2068806800F001000028EAD10020C8
:1007A000F6E7000038B504460025002000902068D8
:1007B000806800F0010080BB2068806840F0010084
:1007C00021688860164800681649B0FBF1F0009077
:1007D00002E00098401E009000980028F9D100F037
:1007E0008FFE054613E000F08BFE401B02280ED959
:1007F000A06A40F01000A062E06A40F00100E062F0
:1008000000BF002084F8240000BF012038BD20680C
:10081000806800F001000028E5D00020F6E7000025
:100820002C00002040420F0000BFFEE7704710B5CB
:10083000012000F0EBFB10BD10B5022000F0E6FB3C
:1008400010BD7047F8B505460C4600260020009004
:100850009F492868884203D09E492868884200D171
:1008600004E040F2AA619CA002F05EFE206890B312
:10087000206801282FD0206802282CD02068032867
:1008800029D02068042826D02068052823D0206895
:10089000062820D0206807281DD0206808281AD0F4
:1008A0002068092817D020680A2814D020680B284F
:1008B00011D020680C280ED020680D280BD020689D
:1008C0000E2808D020680F2805D02068102802D0F4
:1008D0002068112800D104E040F2AB617EA002F054
:1008E00023FE606801282CD06068022829D0606847
:1008F000032826D06068042823D06068052820D00B
:10090000606806281DD0606807281AD0606808282B
:1009100017D06068092814D060680A2811D0606870
:100920000B280ED060680C280BD060680D2808D00A
:1009300060680E2805D060680F2802D06068102813
:1009400000D104E040F2AC6163A002F0EDFDA068CC
:10095000A0B1A068012811D0A06802280ED0A0681C
:1009600003280BD0A068042808D0A068052805D06B
:10097000A068062802D0A068072800D104E040F251
:10098000AD6155A002F0D0FD00BF95F8240001280C
:1009900001D10220F8BD012085F8240000BF606865
:1009A000072812D22868406B2179491E01EB810289
:1009B0001F21914088432279521E02EB8202216856
:1009C000914008432968486327E060680D2812D2E7
:1009D0002868006B2179C91F01EB81021F2191401A
:1009E00088432279D21F02EB82022168914008439A
:1009F0002968086311E02868C06A21790D3901EB84
:100A000081021F219140884322790D3A02EB820234
:100A10002168914008432968C86220680A2812D3D7
:100A20002868C06821780A3901EB4102072191400A
:100A3000884322780A3A02EB4202A16891400843B7
:100A40002968C8600FE028680069217801EB41023D
:100A5000072191408843227802EB4202A16891402D
:100A60000843296808612068102802D020681128EE
:100A700027D11749286888421ED12868806800F469
:100A80000000F0B92868806840F400002968886098
:100A90002068102815D11E4800681E49B0FBF1F0EF
:100AA00000EB80004000009002E00098401E0090A3
:100AB00000980028F9D104E0A86A40F02000A8625C
:100AC000012600BF002085F8240000BF304661E702
:100AD00000240140002801402E2E2F4472697665C3
:100AE00072732F53544D3332463178785F48414CFE
:100AF0005F4472697665722F5372632F73746D331E
:100B000032663178785F68616C5F6164632E630080
:100B10002C00002040420F0010B504460849206810
:100B2000884203D007492068884200D104E04FF48E
:100B3000B96105A002F0F8FC2068C06C10BD00008F
:100B400000240140002801402E2E2F447269766552
:100B500072732F53544D3332463178785F48414C8D
:100B60005F4472697665722F5372632F73746D33AD
:100B700032663178785F68616C5F6164632E630010
:100B80002DE9F0410446002700250026A84614B9A7
:100B90000120BDE8F08182492068884203D0814964
:100BA0002068884200D104E04FF4C1717EA002F0B9
:100BB000BBFC606818B16068B0F5006F00D104E05C
:100BC00040F2831178A002F0AFFCA06818B1A068D1
:100BD000B0F5807F00D104E04FF4C27172A002F042
:100BE000A3FCE06810B1E068012800D104E040F205
:100BF00085116DA002F098FCE069B8B1E069B0F52C
:100C0000003F13D0E069B0F5C02F0FD0E069B0F518
:100C1000002F0BD0E069B0F5202F07D0E069B0F5C8
:100C2000402F03D0E069B0F5602F00D104E04FF40D
:100C3000C3715DA002F078FCA068002822D0206972
:100C400018B12069102800D804E04FF4C57156A0EF
:100C500002F06AFC606910B16069012800D104E00B
:100C600040F28B1150A002F05FFC606950B1A069A6
:100C700018B1A069082800D804E04FF4C7714AA051
:100C800002F052FCA06A30B90020E06284F824002F
:100C9000204600F0A9F82046FFF75AFD0746A06A53
:100CA00000F01000002873D1002F71D1A06A20F449
:100CB000885040F00200A062E16960680843E16882
:100CC00040EA41000643A068B0F5807F02D0A068EA
:100CD000012802D14FF4807000E0002005436069D4
:100CE000012811D1E06838B9A069401E4FF40061B5
:100CF00041EA4030054307E0A06A40F02000A062CE
:100D0000E06A40F00100E0622068406820F4694039
:100D10002843216848602068806831490840304392
:100D200021688860A068B0F5807F02D0A0680128A3
:100D300002D14FF4807000E00020B0F5807F03D135
:100D4000208A401E4FEA00582068C06A20F47000D4
:100D500040EA08002168C86220688068214908408C
:100D6000B04208D10020E062A06A20F0020040F00A
:100D70000100A06211E0A06A20F0020040F0100023
:100D8000A062E06A40F00100E062012705E0FFE7B1
:100D9000A06A40F01000A06201273846F9E6000082
:100DA00000240140002801402E2E2F4472697665F0
:100DB00072732F53544D3332463178785F48414C2B
:100DC0005F4472697665722F5372632F73746D334B
:100DD00032663178785F68616C5F6164632E6300AE
:100DE000FDF7E1FFFE0E1FFF10B586B004460020A0
:100DF000029003900490059014492068884222D103
:100E000000BF1348806940F40070114988610846AA
:100E1000806900F40070019000BF00BF00BF084669
:100E2000806940F0040088610846806900F0040091
:100E3000019000BF00BF022002900320039002A98E
:100E4000044800F0F1F806B010BD00000024014095
:100E5000001002400008014070B5044600255049CA
:100E60002068884203D04F492068884200D104E0BE
:100E700040F203314CA002F057FB00BF94F824006D
:100E8000012801D1022070BD012084F8240000BF98
:100E90002046FFF787FC0546002D79D1A06A40F275
:100EA0000121884340F48070A0623E492068884256
:100EB00009D13B48001D006800F4702008B90120EA
:100EC00002E0002000E0012078B1A06A20F4801048
:100ED000A0622068406800F4806000B3A06A20F43B
:100EE000005040F48050A06219E0A06A40F48010E5
:100EF000A0622B492068884203D02A492068884292
:100F000005D12748001D006800F4806000E0002043
:100F100028B1A06A20F4005040F48050A062A06A7A
:100F200000F4805020B1E06A20F00600E06201E0A9
:100F30000020E06200BF002084F8240000BFC01E33
:100F4000216808602068806800F46020B0F5602F98
:100F500017D114492068884209D11148001D006842
:100F600000F4702008B9012002E0002000E0012018
:100F700038B12068806840F4A000216888600CE0E7
:100F800006E02068806840F480102168886004E0F2
:100F900000BF002084F8240000BF284673E700004B
:100FA00000240140002801402E2E2F4472697665EE
:100FB00072732F53544D3332463178785F48414C29
:100FC0005F4472697665722F5372632F73746D3349
:100FD00032663178785F68616C5F6164632E6300AC
:100FE00070B5044600F08CFA06462546681C10B120
:100FF00004480078054400BF00F082FA801BA84234
:10100000FAD370BD280000207047000010B50446D8
:1010100004480068204020B1024804602046FFF7E1
:10102000F3FF10BD140401402DE9FC5F05460C469A
:101030004FF000080026B146002001908346DB48AF
:1010400085420BD0DA48854208D0DA48854205D07F
:10105000D948854202D0D948854200D103E0CD214C
:10106000D7A002F061FA208880B220B120686FF327
:101070000F0000B903E0CE21D1A002F055FA60685C
:1010800030B36068012823D06068112820D06068E0
:1010900002281DD0606812281AD0D849606888429A
:1010A00016D0D7496068884212D0D6496068884215
:1010B0000ED0D549606888420AD0D4496068884219
:1010C00006D0D3496068884202D06068032800D106
:1010D00003E0CF21BAA002F027FA002761E1012046
:1010E00000FA07F8206800EA080646456FD1AF48C5
:1010F00085420BD0AE48854208D0AE48854205D027
:10110000AD48854202D0AD48854200D103E0DD21E3
:10111000ABA002F009FAB94A6068811A90426AD01D
:101120000EDC032875D006DC002863D0012819D016
:1011300002286FD139E0112825D01228F9D147E0D3
:10114000B1F5881F5BD006DCB1F5803F56D0B1F514
:10115000801F7AD150E0B1F5001F4ED0B1F5041FC9
:1011600073D14DE0E068022805D0E068012802D084
:10117000E068032800D103E0E52191A002F0D4F952
:10118000E068019062E0E068022805D0E06801288C
:1011900002D0E068032800D103E0EC2188A002F02F
:1011A000C3F9E068001D019050E0E068022805D016
:1011B000E068012802D0E068032800D103E0F321B1
:1011C0007FA002F0B1F9E068083001903EE0DDE078
:1011D000E068022805D0E068012802D0E068032812
:1011E00000D103E0FA2176A002F09EF9E0680C300D
:1011F00001902BE000BF00BF00BF00BF00BF00BFD9
:10120000A06828B1A068012802D0A068022802D1F5
:1012100006E017E019E040F2071169A002F084F936
:10122000A06810B9042001900BE0A068012804D147
:1012300008200190C5F8108003E008200190C5F84F
:10124000148003E00020019000E000BF00BFFF2EEB
:1012500001D8284600E0281D8246FF2E01D8B8009C
:1012600002E0A7F1080080008346DAF800000F21B1
:1012700001FA0BF18843019901FA0BF10843CAF80E
:101280000000606800F08050B0F1805F7ED100BF48
:101290006048806940F001005E49886108468069C5
:1012A00000F00100009000BF00BF4FEAB130B90864
:1012B00050F82190B807010F0F20884029EA000953
:1012C0003A48854201D100200FE03948854201D1DA
:1012D00001200AE03748854201D1022005E0364866
:1012E000854201D1032000E00420B907090F88409E
:1012F00040EA09094848B90840F82190606800F4BC
:101300008030B0F5803F05D1444800683043434900
:10131000086004E041480068B043404908606068E4
:1013200000F40030B0F5003F07D13C48001D0068D4
:1013300030433A49091D086006E03848001D00683E
:10134000B0433649091D0860606800F48010B0F5AC
:10135000801F07D131480830006830432F490831D9
:10136000086006E02D4808300068B0432B4908317A
:101370000860606800F40010B0F5001F09D127482C
:101380000C300068304325490C3100E008E008606B
:1013900006E022480C300068B04320490C31086058
:1013A0007F1C102FFFF49BAEBDE8FC9F000801409E
:1013B000000C0140001001400014014000180140E1
:1013C0002E2E2F447269766572732F53544D33322B
:1013D000463178785F48414C5F4472697665722F78
:1013E0005372632F73746D3332663178785F68613E
:1013F0006C5F6770696F2E630000000000001110C1
:101400000000211000003110000012100000221016
:1014100000003210001002400800014000040140AA
:1014200070B506460C46A0B218B1200C000400B9F5
:1014300004E040F2C31105A002F076F8B068204045
:1014400008B1012500E00025284670BD2E2E2F444E
:101450007269766572732F53544D33324631787802
:101460005F48414C5F4472697665722F5372632FF7
:1014700073746D3332663178785F68616C5F677062
:10148000696F2E630000000070B506460C461546D5
:10149000A0B218B1200C000400B904E040F2E3113E
:1014A00008A002F041F80DB1012D00D104E04FF485
:1014B000F27104A002F038F80DB1346101E02004AB
:1014C000306170BD2E2E2F447269766572732F5372
:1014D000544D3332463178785F48414C5F447269ED
:1014E0007665722F5372632F73746D333266317861
:1014F000785F68616C5F6770696F2E630000000041
:1015000001480068704700002000002010B508481E
:10151000006840F0100006490860032000F0F8F869
:10152000002000F007F800F02BF8002010BD0000AC
:101530000020024070B504460E4800784FF47A71DE
:10154000B1FBF0F00C490968B1FBF0F5284600F05A
:1015500023FF08B1012070BD102C07D200222146C4
:10156000501E00F06BF80548046001E00120F2E72E
:101570000020F0E7280000202C000020240000209C
:1015800008B500BF1148806940F001000F4988612B
:101590000846806900F00100009000BF00BF00BF56
:1015A0000846C06940F08050C8610846C06900F034
:1015B0008050009000BF00BF00BF0549486820F080
:1015C000E06000BF486000BF08BD0000001002409E
:1015D0000000014010B50446002C00DB03E0CE21E2
:1015E00007A001F0A1FF00BF04F01F010120884007
:1015F0006109890001F1E021C1F8000100BF10BDBF
:101600002E2E2F447269766572732F53544D3332E8
:10161000463178785F48414C5F4472697665722F35
:101620005372632F73746D3332663178785F6861FB
:101630006C5F636F727465782E6300002DE9F05F54
:1016400080460C4615460027102D00D203E0BA2133
:1016500020A001F069FF102C00D203E0BB211DA0E7
:1016600001F062FF01F086F80746394622462B4614
:1016700001F00700C0F1070ABAF1040F02D94FF0D8
:10168000040A01E0C0F1070AD14600F1040ABAF1E8
:10169000070F02D24FF0000A01E0A0F1030AD4467E
:1016A0004FF0010A0AFA09FAAAF1010A0AEA020A43
:1016B0000AFA0CFA4FF0010B0BFA0CFBABF1010B21
:1016C0000BEA030B4AEA0B063146404601F05AF892
:1016D000BDE8F09F2E2E2F447269766572732F53EA
:1016E000544D3332463178785F48414C5F447269DB
:1016F0007665722F5372632F73746D33326631784F
:10170000785F68616C5F636F727465782E63000048
:1017100010B50446072C07D0062C05D0052C03D0A5
:10172000042C01D0032C00D103E0A22109A001F078
:10173000FBFE00BF04F00701154A10684FF6FF02D8
:101740001040144A024342EA0120114A106000BFCF
:1017500010BD00002E2E2F447269766572732F53D0
:10176000544D3332463178785F48414C5F4472695A
:101770007665722F5372632F73746D3332663178CE
:10178000785F68616C5F636F727465782E630000C8
:101790000CED00E00000FA05F8B50446002600252F
:1017A000207800F0010048B9207800F002000228FB
:1017B00004D0207800F01000102800D103E07C2134
:1017C00061A001F0B1FE207800F0010000287DD07A
:1017D000606858B16068B0F5807F07D06068B0F588
:1017E000007F03D06068B0F5407F00D103E0822124
:1017F00055A001F099FE00276248C06900F08050B2
:1018000070B900BF5F48C06940F080505D49C86151
:101810000846C06900F08050009000BF00BF01275B
:101820005948006800F48070B0B95748006840F427
:10183000807055490860FFF763FE064606E0FFF733
:101840005FFE801B642801D90320F8BD4E48006864
:1018500000F480700028F2D04A48006A00F4407515
:101860002DB3A08800F44070A84220D04548006AFB
:1018700020F4407501204549086000200860414877
:10188000056205F0010090B1FFF73AFE064608E058
:10189000FFF736FE801B41F28831884201D90320D0
:1018A000D3E73848006A00F002000028F0D035483D
:1018B000006A20F440706168084332490862012FD1
:1018C00006D10846C06920F0805000E001E0C86100
:1018D00000BF207800F0020002281AD1A06858B199
:1018E000A068B0F5804F07D0A068B0F5004F03D0D6
:1018F000A068B0F5404F00D103E0C92112A001F06B
:1019000013FE2048406820F44040A16808431D4968
:101910004860207800F01000102813D1E068B0F57E
:10192000800F01D0E06800B904E040F2251106A064
:1019300001F0FAFD1348406820F48000E168084394
:1019400010494860002080E72E2E2F44726976658A
:1019500072732F53544D3332463178785F48414C7F
:101960005F4472697665722F5372632F73746D339F
:1019700032663178785F68616C5F7263635F657847
:101980002E630000001002400070004040044242FC
:1019900070B504460D46002604B104E040F22E3135
:1019A000AFA001F0C1FD207800F0010070B92078EF
:1019B00000F00200022809D0207800F0040004287A
:1019C00004D0207800F00800082800D104E040F29C
:1019D0002F31A3A001F0A8FD1DB1012D01D0022DD2
:1019E00000D104E04FF44C719DA001F09DFDAA4888
:1019F000006800F00700A8420ED2A748006820F057
:101A000007002843A44908600846006800F0070062
:101A1000A84201D0012070BD207800F00200022809
:101A20003DD1207800F00400042805D19B4840688F
:101A300040F4E06099494860207800F008000828E8
:101A400005D19648406840F4605094494860A068C9
:101A5000B8B1A068802814D0A068902811D0A068E0
:101A6000A0280ED0A068B0280BD0A068C02808D04D
:101A7000A068D02805D0A068E02802D0A068F0288F
:101A800000D104E040F2563175A001F04DFD8348CD
:101A9000406820F0F000A168084380494860207841
:101AA00000F0010000286BD0606828B16068012850
:101AB00002D06068022800D104E040F25D3168A0E5
:101AC00001F032FD6068012806D17448006800F416
:101AD000003090B901209EE76068022806D16F4867
:101AE000006800F0007040B9012094E76B4800687E
:101AF00000F0020008B901208DE76848406820F036
:101B000003006168084365494860FFF7F9FC064631
:101B10006068012810D108E0FFF7F2FC801B41F259
:101B20008831884201D9032075E75C48406800F09D
:101B30000C000428F0D123E06068022810D108E0EE
:101B4000FFF7DEFC801B41F28831884201D9032077
:101B500061E75248406800F00C000828F0D10FE01F
:101B600008E0FFF7CDFC801B41F28831884201D9A3
:101B7000032050E74948406800F00C000028F0D1ED
:101B80004548006800F00700A8420ED942480068A6
:101B900020F007002843404908600846006800F02C
:101BA0000700A84201D0012035E7207800F00400AA
:101BB00004281FD1E06878B1E068B0F5806F0BD0E1
:101BC000E068B0F5A06F07D0E068B0F5C06F03D053
:101BD000E068B0F5E06F00D104E040F2B13120A040
:101BE00001F0A2FC2D48406820F4E060E168084361
:101BF0002A494860207800F00800082820D1206990
:101C000078B12069B0F5806F0BD02069B0F5A06F76
:101C100007D02069B0F5C06F03D02069B0F5E06F40
:101C200000D104E04FF46E710DA001F07DFC1B4863
:101C3000406820F46050216940EAC10017494860BB
:101C400000F058F815494968C1F30311144A515C72
:101C5000C840144908600020FFF76CFC0020DAE659
:101C60002E2E2F447269766572732F53544D333282
:101C7000463178785F48414C5F4472697665722FCF
:101C80005372632F73746D3332663178785F686195
:101C90006C5F7263632E63000020024000100240FC
:101CA000E84300082C00002001480068704700004D
:101CB0002C00002000B5FFF7F7FF04494968C1F385
:101CC0000221034A515CC84000BD000000100240E0
:101CD000F843000800B5FFF7E7FF04494968C1F37E
:101CE000C221034A515CC84000BD00000010024000
:101CF000F8430008F0B585B00FF26C0C9CE8E010DA
:101D000001A8A0E8E0101CA52D6800950021002284
:101D1000002300240020194D696801F00C05F5B17D
:101D2000042D02D0082D19D101E0154819E001ADAC
:101D3000C1F38346AC5D01F4803555B10F4D6D683C
:101D4000C5F340451DF805200D4D6543B5FBF2F385
:101D500002E00C4D04FB05F3184602E000BF084802
:101D600000BF00BF05B0F0BD020304050607080967
:101D70000A0B0C0D0E0F10100102000000100240A3
:101D800000127A0000093D00F8B50446002504B1B0
:101D900004E04FF4B871F7A001F0C6FB206890B1E1
:101DA000207800F0010070B9207800F002000228CD
:101DB00009D0207800F00800082804D0207800F02E
:101DC0000400042800D104E040F27111E9A001F000
:101DD000ABFB207800F00100002870D0606838B1BB
:101DE0006068B0F5803F03D06068B0F5A02F00D1E7
:101DF00004E040F27711DFA001F096FBEB48406869
:101E000000F00C0004280CD0E848406800F00C00FA
:101E1000082811D1E548406800F48030B0F5803FD3
:101E20000AD1E248006800F40030002860D0606801
:101E300000285DD10120F8BD00BF6068B0F5803F8B
:101E400006D1DA48006840F48030D849086028E0BC
:101E5000606858B9D548006820F48030D3490860DC
:101E60000846006820F4802008601AE06068B0F539
:101E7000A02F0BD1CD48006840F48020CB490860EA
:101E80000846006840F4803008600AE0C7480068EF
:101E900020F48030C54908600846006820F480209E
:101EA000086000BF606890B1FFF72AFB054607E0B5
:101EB000FFF726FB401B642802D90320BBE717E08D
:101EC000BA48006800F400300028F1D010E0FFF7B5
:101ED00017FB054606E0FFF713FB401B642801D9FA
:101EE0000320A8E7B148006800F400300028F2D1D0
:101EF000207800F0020002286BD1206910B120691F
:101F0000012800D104E040F2AB119AA001F00CFBD3
:101F100060691F2800D804E04FF4D67195A001F045
:101F200003FBA248406800F00C0050B19F48406895
:101F300000F00C00082818D19C48406800F480305C
:101F400098B99A48006800F0020020B12069012881
:101F500001D001206FE79548006820F0F800616922
:101F600040EAC1009149086033E02069E8B10120EE
:101F70008F490860FFF7C4FA054606E0FFF7C0FA8C
:101F8000401B022801D9032055E78848006800F06B
:101F900002000028F2D08548006820F0F80061694E
:101FA00040EAC1008149086013E0002080490860D0
:101FB000FFF7A6FA054606E0FFF7A2FA401B022843
:101FC00001D9032037E77948006800F002000028B3
:101FD000F2D1207800F00800082838D1A06910B1AB
:101FE000A069012800D104E04FF4F67161A001F06E
:101FF0009BFAA069B8B101206E490860FFF780FA2A
:10200000054606E0FFF77CFA401B022801D90320B1
:1020100011E76648406A00F002000028F2D0012073
:1020200000F0C4FB13E0002062490860FFF768FA83
:10203000054606E0FFF764FA401B022801D9032099
:10204000F9E65A48406A00F002000028F2D12078F0
:1020500000F00400042878D10026E06828B1E06888
:10206000012802D0E068052800D104E040F21B21DD
:1020700040A001F059FA4D48C06900F0805070B995
:1020800000BF4A48C06940F080504849C8610846CE
:10209000C06900F08050009000BF00BF0126464894
:1020A000006800F48070B0B94348006840F4807064
:1020B00041490860FFF724FA054606E0FFF720FAD9
:1020C000401B642801D90320B5E63B48006800F4B2
:1020D00080700028F2D000BFE068012806D13348A4
:1020E000006A40F001003149086227E0E06858B911
:1020F0002E48006A20F001002C4908620846006A58
:1021000020F00400086219E0E06805280BD1274898
:10211000006A40F00400254908620846006A40F061
:10212000010008620AE02148006A20F001001F490E
:1021300008620846006A20F00400086200BFE068F8
:10214000A0B1FFF7DDF9054609E04FE0FFF7D8F948
:10215000401B41F28831884201D903206BE61348C5
:10216000006A00F002000028F0D036E0FFF7C8F95E
:1021700005462CE02E2E2F447269766572732F531C
:10218000544D3332463178785F48414C5F44726930
:102190007665722F5372632F73746D3332663178A4
:1021A000785F68616C5F7263632E630000100240A9
:1021B000000042428004424200700040FFF7A0F954
:1021C000401B41F28831884201D9032033E6704830
:1021D000006A00F002000028F0D1012E05D16C4801
:1021E000C06920F080506A49C86100BFE06928B129
:1021F000E069012802D0E069022800D105E040F240
:10220000B921AFF2900001F08FF9E069002875D094
:102210005F48406800F00C00082870D0E069022890
:102220006ED1206A18B1206AB0F5803F00D105E078
:1022300040F2C221AFF2C40001F076F9606AB8B38F
:10224000606AB0F5802F33D0606AB0F5002F2FD0D0
:10225000606AB0F5402F2BD0606AB0F5801F27D0A0
:10226000606AB0F5A01F23D0606AB0F5C01F1FD010
:10227000606AB0F5E01F1BD0606AB0F5001F17D090
:10228000606AB0F5101F13D0606AB0F5201F0FD040
:10229000606AB0F5301F0BD0606AB0F5401F07D000
:1022A000606AB0F5501F03D0606AB0F5601F00D1BE
:1022B00005E040F2C321AFF2441001F035F90020EF
:1022C00034490866FFF71CF9054606E0FFF718F9E0
:1022D000401B022801D90320ADE52D48006800F01D
:1022E00000700028F2D1206AB0F5803F17D1A068B5
:1022F00018B1A068B0F5003F03D108E045E042E026
:102300002CE040F2D921AFF2941001F00DF92048F1
:10231000406820F40030A16808431D494860D4E9B2
:10232000080108431A49496821F4741108431849FF
:102330004860012017490866FFF7E2F8054606E005
:10234000FFF7DEF8401B022801D9032073E510488F
:10235000006800F000700028F2D016E000200D495F
:102360000866FFF7CDF8054606E0FFF7C9F8401B01
:10237000022801D903205EE50548006800F00070DE
:102380000028F2D101E0012055E5002053E50000CE
:10239000001002400000424270B504462546681E07
:1023A000B0F1807F01D301200FE0681E4FF0E021E3
:1023B00048610F214FF0FF3000F0E4F900204FF0AA
:1023C000E021886107200861002070BD10B5044637
:1023D0000CB9012010BDA069002826D03A49206818
:1023E000884207D039492068884203D0384920689C
:1023F000884200D104E040F20F1136A001F094F8B9
:10240000A06958B1A069B0F5807F07D0A069B0F588
:10241000007F03D0A069B0F5407F00D117E04FF4F2
:1024200088712CA001F080F811E0274920688842CB
:1024300007D026492068884203D025492068884271
:1024400000D104E04FF48A7122A001F06DF8A06879
:1024500018B1A068B0F5805F00D104E04FF48B7133
:102460001CA001F061F894F8390028B9002084F824
:102470003800204600F04CF8242084F83900206809
:10248000C06820F400502168C860204600F06AFA55
:102490002068006920F49040216808612068406944
:1024A00020F02A00216848612068C06840F400508C
:1024B0002168C8600020E063202084F8390084F897
:1024C0003A00002086E70000003801400044004048
:1024D000004800402E2E2F447269766572732F5388
:1024E000544D3332463178785F48414C5F447269CD
:1024F0007665722F5372632F73746D333266317841
:10250000785F68616C5F756172742E630000000013
:1025100010B586B004460020029003900490059008
:102520001A49206888422ED100BF1948806940F4BA
:102530008040174988610846806900F48040019016
:1025400000BF00BF00BF0846806940F004008861FA
:102550000846806900F00400019000BF00BF4815E4
:102560000290022003900320059002A90948FEF77B
:102570005BFD4FF48060029000200390049002A95C
:102580000448FEF751FD06B010BD000000380140C0
:10259000001002400008014000BFFEE70EB5002019
:1025A00000900190029012481249086000211148E1
:1025B00081600121C160002141614FF46021C1614E
:1025C00000200C49486001210A480161FEF7D8FA51
:1025D00008B1FEF736F9012000900190002002902A
:1025E00069460448FEF72EF908B1FEF72AF90EBD38
:1025F000002401407C00002000B585B0002001903F
:1026000002900390049000BF4448806940F020008D
:10261000424988610846806900F02000009000BFB0
:1026200000BF00BF0846806940F01000886108467E
:10263000806900F01000009000BF00BF00BF084696
:10264000806940F0040088610846806900F0040059
:10265000009000BF00BF00BF0846806940F008003E
:1026600088610846806900F00800009000BF00BF44
:10267000002240F6FF712A48FEF706FF00224FF4C1
:10268000F0712848FEF700FF00224FF47041264801
:10269000FEF7FAFE40F6FF70019001200290002044
:1026A00003900220049001A91D48FEF7BDFC4FF4E1
:1026B000F07001900120029000200390022004900D
:1026C00001A91848FEF7B0FC0320019017480290BA
:1026D0000020039001A91448FEF7A6FC4FF47040B7
:1026E000019001200290002003900220049001A993
:1026F0000D48FEF799FC00220B210620FEF79EFFF5
:102700000620FEF767FF00220B210720FEF796FF49
:102710000720FEF75FFF05B000BD0000001002407B
:102720000010014000080140000C01400000211091
:1027300010B50B480B4908604FF4E13048600021A8
:1027400008488160C16001610C2141610021816103
:10275000C161FFF73BFE08B1FEF773F810BD000042
:1027600000380140AC00002000BFFEE700BF70470A
:102770007047000002480068C0F302207047000064
:102780000CED00E010B5002807DA0A07140E054A20
:1027900000F00F031B1FD45403E00A07130E024A74
:1027A000135410BD18ED00E000E400E008B508493E
:1027B0000968C9084FF47A72B1FBF2F14143009104
:1027C00000BF00BF00994A1E00920029F9D108BD40
:1027D0002C00002000B593B0282109A8FDF717FDB3
:1027E000142104A8FDF713FD002000900190029031
:1027F00003900120099000040A9000200B90012012
:102800000D9002201090C10311914FF4E01112912C
:1028100009A8FFF7B9FA08B1FEF713F80F200490E2
:1028200002200590002006904FF480600790002061
:102830000890022104A8FFF7ABF808B1FEF701F8F1
:1028400002200090800302906846FEF7A5FF08B1C1
:10285000FDF7F7FF13B000BD1148006840F001001C
:102860000F490860084640680E4908400C49486016
:10287000084600680C490840094908600846006895
:1028800020F4802008600846406820F4FE0048607C
:102890004FF41F008860C8030449086070470000B7
:1028A000001002400000FFF8FFFFF6FE08ED00E018
:1028B00008B500BF012000F06FFE00282FD00020D7
:1028C00002230246014600901748006801F0B8FB59
:1028D00016A000F07DF90020022302460146009078
:1028E0001148006801F0ACFB11A000F071F9002064
:1028F00002230246014600900B48006801F0A0FB4D
:102900000CA000F065F90020022302460146009069
:102910000548006801F094FB07A000F059F9642015
:1029200001F048FAC6E7000018000020610D0A0017
:10293000620D0A00630D0A00640D0A0000BF4FF02B
:10294000FF320021084601F075F90446214602A035
:1029500000F03EF9F3E70000636F756E743A2025CE
:10296000640D0A002DE9F04104460025874960689E
:10297000884200D204E040F6A71185A000F0D4FD03
:10298000E06818B1E068B0F5005F00D104E040F6FF
:10299000A8117FA000F0C8FD206938B12069B0F50A
:1029A000806F03D02069B0F5C06F00D104E040F61D
:1029B000A91177A000F0B8FD4FF6F37160690840E7
:1029C00010B9606900B104E040F6AA1170A000F0EF
:1029D000ABFD2068006920F44050E168084321689D
:1029E00008612169A06808436169084305432068BC
:1029F000C06841F20C61884328432168C8602068A0
:102A0000406920F44070A1690843216848616F491A
:102A1000206888425CD1FFF75DF900EBC00101EB53
:102A2000001061688900B0FBF1F6FFF753F900EB85
:102A3000C00101EB001061688900B0FBF1F0642176
:102A4000B0FBF1F000EBC00101EB0010A6EB800041
:102A5000322101EB00106421B0FBF1F000F0F00630
:102A6000FFF738F900EBC00101EB00106168890045
:102A7000B0FBF1F06421B0FBF1F006EB0016FFF7BC
:102A800029F900EBC00101EB001061688900B0FB7F
:102A9000F1F7FFF71FF900EBC00101EB00106168CF
:102AA0008900B0FBF1F06421B0FBF1F000EBC00154
:102AB00001EB0010A7EB8000322101EB0010642134
:102AC000B0FBF1F000F00F003044216888605BE05B
:102AD000FFF7F0F800EBC00101EB0010616889001E
:102AE000B0FBF1F6FFF7E6F800EBC00101EB0010D8
:102AF00061688900B0FBF1F06421B0FBF1F000EBFC
:102B0000C00101EB0010A6EB8000322101EB0010A8
:102B10006421B0FBF1F000F0F006FFF7CBF800EB1A
:102B2000C00101EB001061688900B0FBF1F0642185
:102B3000B0FBF1F006EB0016FFF7BCF800EBC001AC
:102B400001EB001061688900B0FBF1F7FFF7B2F804
:102B500000EBC00101EB001061688900B0FBF1F0EF
:102B60006421B0FBF1F000EBC00101EB0010A7EB1A
:102B70008000322101EB00106421B0FBF1F000F085
:102B80000F00304421688860BDE8F08121AA44002C
:102B90002E2E2F447269766572732F53544D333243
:102BA000463178785F48414C5F4472697665722F90
:102BB0005372632F73746D3332663178785F686156
:102BC0006C5F756172742E63000000000038014074
:102BD0000FB410B592B015A8119001A8119A1499CC
:102BE00000F022F8002404E001A9085D00F00CF8D0
:102BF000641C01A8FDF716FBA042F5D80020119037
:102C000012B010BC5DF814FB00BF0549096801F063
:102C100080010029F9D00249091D086070470000B1
:102C20000038014000BFFEE737B514460846064BA2
:102C30006A46214600F0DCF804466946002000F0B0
:102C40006EFC20463EBD00001F35000802E008C8AB
:102C5000121F08C1002AFAD170477047002001E016
:102C600001C1121F002AFBD1704700002DE9FF5F50
:102C700082B00021DDE90430020DDDF840B00343ED
:102C800018D044F61050A2F2FF32424315141198A6
:102C900001281FD0A5EB0B00401C5FEA000A4FF093
:102CA00000064E4FDFF83891B046504615D5CAF1B0
:102CB000000413E0119801244AA3012801D16FEA0E
:102CC0000B010298119AC0E90031C0E9024206B036
:102CD000BDE8F09FCBF10000DFE704460021404A49
:102CE000491842EB0450CDE9001012E0E00707D08C
:102CF00032463B4640464946FDF789FB80468946B9
:102D000032463B4610461946FDF781FB06460F4604
:102D10006410002CEAD1DDE90401DDE90023BAF1F9
:102D2000000F06DAFDF773FB42464B46FDF76FFBDB
:102D300005E0FDF7DEFB42464B46FDF7DAFB0446B5
:102D40000E460022284BFDF75BFC03D84FF0FF3006
:102D5000014607E00022254B20463146FDF7B0FA38
:102D6000FDF736FC102409E0002C0ADB0A220023C0
:102D7000FDF775FA039B30321A55641E50EA0102C2
:102D8000F2D1641C039AC4F111031444119A012A6C
:102D900003D0012208430DD10AE0084304D00020EB
:102DA0004FF0110B119072E7A3EB0B056D1E0DE0B8
:102DB0005B4504DD4FF0000205F1010504E003DA94
:102DC0004FF00002A5F10105002AECD002981199FC
:102DD000C0E90231C0E9004579E700000000144075
:102DE0000000F03F300000000000F0430000E03F32
:102DF0002DE9FF4F95B09B468946064600250FE218
:102E0000252877D100242746F84A0121059400E0BF
:102E1000044316F8013F203B01FA03F01042F7D1BA
:102E200030782A2811D06FF02F033078A0F13002CB
:102E3000092A16D8059A44F0020402EB820203EB39
:102E400042021044761C0590EFE759F8042B0592D6
:102E5000002A03DA504244F40054059044F002047E
:102E6000761C30782E2816D116F8010F44F0040491
:102E70002A280DD06FF02F023078A0F13003092BF3
:102E800009D807EB870302EB4303C718761CF3E767
:102E900059F8047B761C30786C280FD006DC4C285F
:102EA00017D068280DD06A2814D104E0742810D0F7
:102EB0007A280FD10DE044F400140AE044F48014A1
:102EC00001E044F440147278824202D104F5801487
:102ED000761C761C307866280BD013DC582877D007
:102EE00009DC002875D04528F6D04628F4D04728BC
:102EF0001AD19DE118E0632835D0642879D065287F
:102F000012D195E1702873D008DC6728F1D06928C8
:102F10006FD06E280DD06F2806D1B5E073282CD065
:102F2000752875D0782874D05A46179990476D1C2B
:102F300075E1C4F30250022809D003280DD0D9F856
:102F4000001004280DD00D6009F1040967E1D9F8DB
:102F50000010EA17C1E90052F6E7D9F800100D8019
:102F6000F2E70D70F0E719F8041B8DF8001000204F
:102F70008DF80100EA46012003E059F804AB4FF058
:102F8000FF3061074FF0000102D40DE008F10101AC
:102F90008846B9420FDA8045F8DB1AF80810002994
:102FA000F4D108E008F1010188468142FADB1AF801
:102FB00008100029F6D105985B46A0EB08072146CA
:102FC0003846179A00F094FA284400EB080507E009
:102FD0004DE029E10DE01AF8010B5A461799904788
:102FE000B8F10108F7D25B4621463846179A13E13B
:102FF00042E00A220092C4F302524FF0000A022A71
:1030000008D059F804CB032A4FEAEC710AD00DE03E
:1030100029E02AE009F1070121F00702F2E802C1E4
:10302000914609E00FFA8CFC4FEAEC71042A03D1B7
:103030004FFA8CFC4FEAEC71002907DA0A460021AE
:10304000DCF1000C61EB02012D2202E0220504D527
:103050002B228DF80420012203E0E20701D0202278
:10306000F7E7904659E00A2102E010220DE0102116
:103070004FF0000A00910BE010224FF0000A44F0DC
:1030800004040827009203E008224FF0000A00928F
:10309000C4F30252022A05D059F804CB0021032AB6
:1030A00008D009E009F1070121F00702F2E802C1A6
:1030B000914605E01FFA8CFC042A01D10CF0FF0CAC
:1030C0004FF00008220728D5702806D0009B83F017
:1030D000100353EA0A0305D00EE040228DF80420C5
:1030E000012208E05CEA010206D030228DF80420BB
:1030F0008DF8050002229046009B83F0080353EAF6
:103100000A030AD15CEA010201D1620705D5302227
:103110008DF804204FF001087F1E582804D034A0F9
:1031200003900EA802900DE036A0F9E753466046E2
:10313000009AFDF794F884460398825C0298401E3A
:10314000029002705CEA0100F0D1029806A9081A08
:1031500000F1200A600702D524F4803400E0012742
:10316000574502DDA7EB0A0000E0002000EB0A0152
:10317000009005984144401A0590E00306D45B4650
:103180002146179A059800F0B3F90544002706E098
:1031900001A85A46C05D179990476D1C7F1C474592
:1031A000F6DBE0030CD55B462146179A059800F044
:1031B0009FF9054404E030205A46179990476D1C4A
:1031C0000099481E00900029F5DC08E00298029959
:1031D0005A460078491C0291179990476D1CBAF124
:1031E0000001AAF1010AF1DC65E1000009280100F3
:1031F000303132333435363738396162636465666D
:10320000000000003031323334353637383941422E
:10321000434445460000000000F058F90544761C80
:10322000307800287FF4ECAD19B02846BDE8F08F67
:10323000620700D4062709F1070222F0070CFCE818
:103240000223E14603F000485FEA080C02D00FF2C7
:10325000702C0DE05FEA045C02D50FF2682C07E0E9
:103260005FEAC47C02D00FF2602C01E0AFF2700C78
:103270004FF0FF3823F00043CDF850C065280CD044
:1032800006DC452809D046281DD047283DD13DE021
:10329000662818D067287ED138E00021112F01DB85
:1032A000112000E0781CCDE9000106A90EA8FFF767
:1032B000DDFCDDE90F010E9A03910021009207F178
:1032C000010A04914DE04FF000400097CDE9011054
:1032D00006A90EA8FFF7CAFCDDE90F0203920E9BB8
:1032E00011990022DDF80CA00093049211B9791C09
:1032F00000EB010AB7EB0A0004D4C0F1FF3007F17C
:10330000010A0490AAEB0700019044E0012F00DAC3
:1033100001270021112F01DD112000E03846CDE901
:10332000000106A90EA8FFF7A1FCDDE90F010E9A26
:103330000391002104910092BA4621070CD403990D
:10334000514500DA8A46BAF1010F05DD009AAAF16B
:103350000101515C302908D0B84202DA10F1040FA3
:1033600006DA0121CDE9011015E0AAF10101E9E732
:10337000002805DC049901440491AAEB000102E055
:10338000411C514500DD8A460499401A401C0190B9
:103390004FF000400290200704D40198504501DB13
:1033A000CDF8048000208DF84F0002980DF14F07F2
:1033B000B0F1004F25D02B200E9002984FF002085C
:1033C00000280CDA404202902D200E9007E00A21DE
:1033D0000298FCF72EFF3031029007F8011DB8F17A
:1033E0000001A8F10108F2DC02980028EFD1791E53
:1033F0000E980870307800F0200040F0450007F883
:10340000020D12A8C01B00F107081498007800B143
:10341000012000EB0A01019801EBE071059841449D
:10342000401A401E0590E00306D45B462146179AD9
:10343000059800F05DF805441498007818B15A46D4
:10344000179990476D1CE00324D55B462146179AD7
:10345000059800F04DF805441CE00498002807DBAF
:10346000DDE90301884203DD0098405C179901E023
:10347000179930205A469047049805F10105401CE1
:1034800004900198401E019004D12E205A461799AD
:1034900090476D1CBAF10001AAF1010ADDDC05E0DC
:1034A00017F8010B5A46179990476D1CB8F10001A7
:1034B000A8F10108F4DC5B462146179A0598ABE6B3
:1034C0002D0000002B000000200000002DE9F0413D
:1034D000044600251E461746880404D405E03946F4
:1034E0002020B0476D1C641EF9D52846BDE8F08148
:1034F0002DE9F041044600251E469046C80301D53B
:10350000302700E02027880404D505E041463846EE
:10351000B0476D1C641EF9D52846BDE8F0810A68E5
:10352000531C0B60107070477047000030B58BB0B3
:1035300005460C462822114901A8FCF74FFE104809
:10354000C06820F0FF000E49C8600E48006820F4F3
:1035500070400C4908600A48C06801A951F824105D
:1035600008430749C8600748006805F10C010122BB
:103570008A401043034908600BB030BDC0430008C7
:10358000001001400C0C014010B50248FDF7C4FAD0
:1035900010BD00007C00002070B5044601252CB948
:1035A00008210C48FDF73CFF05460EE0012C05D133
:1035B00004210848FDF734FF054606E0022C04D13B
:1035C00010210448FDF72CFF05460DB9012070BD00
:1035D0000020FCE70008014010B501224FF4F07113
:1035E0000448FDF751FF01224FF470610248FDF7D6
:1035F0004BFF10BD000801400010014010B504460B
:103600002CB9002220212048FDF73EFF3AE0012C92
:1036100005D1002240211C48FDF736FF32E0022C84
:1036200005D1002280211848FDF72EFF2AE0032C47
:1036300006D100224FF480711348FDF725FF21E0E9
:10364000042C05D10022A1011048FDF71DFF19E04F
:10365000052C06D100224FF400710C48FDF714FF31
:1036600010E0062C06D100224FF480610748FDF7D8
:103670000BFF07E0072C05D100224FF4006103483F
:10368000FDF702FF10BD00000008014000100140DE
:10369000FDF73CFFFFF79EF8FEF7AEFFFFF748F897
:1036A000FEF77CFF4048FDF7D7FBFFF795FF00F0E2
:1036B00099FA002576E00020FFF76EFF18B13BA0D5
:1036C000FFF786FA0EE00120FFF766FF18B13CA075
:1036D000FFF77EFA06E00220FFF75EFF10B13EA082
:1036E000FFF776FA0520B5FBF0F100FB115060B949
:1036F000FFF772FF3D490868FFF780FF3B480078FD
:10370000401C00F0070039490860FDF7F9FE044647
:103710000A20B4FBF0F00A21B0FBF1F201FB120920
:103720006420B4FBF0F0B0FBF1F201FB12084FF49F
:103730007A70B4FBF0F0B0FBF1F201FB120742F239
:103740001070B4FBF0F0B0FBF1F201FB1206314651
:103750000020FFF7EBFE0520FDF742FC3946012073
:10376000FFF7E4FE0520FDF73BFC41460220FFF792
:10377000DDFE0520FDF734FC49460320FFF7D6FEA9
:103780000520FDF72DFC0A20B5FBF0F100FB1150E0
:1037900030B9FFF7F9FE8246514615A0FFF718FA37
:1037A0006D1C00BF87E700007C0000204C4546549C
:1037B000204B455920504553534544200D0A0000E5
:1037C00043454E544552204B45592050455353458F
:1037D00044200D0A000000005249474854204B4540
:1037E0005920504553534544200D0A000000002045
:1037F0004344532056616C7565203A202564200DA2
:103800000A0000002DE9F04105460E461C480768F5
:103810001C480068001D00F051FA50B919480068B2
:1038200090F82C10012088401749096881431648F8
:103830000160681C38B936B112480168091D134887
:1038400000F07CFA1AE07C190E4800684460BC4223
:1038500007D20C480168091D0D48006800F054FAB1
:103860000CE008480168091D0A48006800F04CFA9D
:1038700009480068844201D207480460BDE8F0812D
:10388000440000203000002048000020A00100205B
:1038900038000020340000206000002010B50446ED
:1038A00000F058FA23480068401C2249086022486A
:1038B000006840B9204804600846006801280DD11E
:1038C00000F0E2F80AE01D48006838B91A480068BC
:1038D000C06AE16A884201D8174804601848006845
:1038E000401C1749086094F82C10012088401549A5
:1038F0000968084313490860E16A01EB8101124A33
:1039000002EB8100211D00F019FA00F035FA0B4896
:10391000006868B108480068C06AE16A884207D256
:103920004FF0805009490860BFF34F8FBFF36F8F8E
:1039300010BD000040000020300000204C0000209E
:103940005C00002048000020EC00002004ED00E0B6
:1039500010B516E000F0FEF90C48C068C468201DE0
:1039600000F0ACF90A480068401E0949086009489F
:103970000068401E0749086000F0FEF9204600F08C
:103980000BF8044800680028E4D110BD8C01002029
:10399000400000203C00002010B50446206B00F0E1
:1039A000FBF9204600F0F8F910BD000000BFFFF75A
:1039B000CFFF07480068012807D94FF0805005491C
:1039C0000860BFF34F8FBFF36F8F00F08BF9EEE706
:1039D000EC00002004ED00E02DE9F04106460D4624
:1039E00017469846069C0DB9246000E02760E66300
:1039F00025640121204600F0B3FABDE8F0812DE9ED
:103A0000FF5F80460E469146DDE90E7A109CA9F1D3
:103A10000100216B01EB800B2BF0070B86B1002519
:103A200007E0715D04F134004155705D00B902E0BA
:103A30006D1C102DF5D300BF00214320015502E07D
:103A4000002084F83400052F00D30427E762201DEE
:103A500000F057F904F1180000F053F92461C7F1A0
:103A60000500A06164620020606484F8480041465B
:103A70005846039A00F098F82060BAF1000F01D080
:103A8000CAF80040BDE8FF9F10B5002407E004EB32
:103A900084010F4A02EB810000F026F9641C052C1A
:103AA000F5D30C4800F020F90B4800F01DF90B4845
:103AB00000F01AF90A4800F017F90A4800F014F962
:103AC00004480949086004480849086010BD00001E
:103AD000EC0000205001002064010020780100204B
:103AE0008C010020A00100203400002038000020BC
:103AF00009480068006808B9012000E0002020B1F2
:103B00004FF0FF300549086005E003480068C068D1
:103B100000680249086070473400002060000020FF
:103B200000BFBF2080F31188BFF34F8FBFF36F8FAB
:103B300000BF00BFFEE7000070B50446002504F09A
:103B4000070020B104F00700C0F10800044400F0B1
:103B500081F91248006820B9114820F007000F4988
:103B6000086010480068204442F6F871884210D27C
:103B70000C48006820440B490968884209D9074865
:103B80000068084909684518064800682044054946
:103B9000086000F0A1FB284670BD00007400002002
:103BA000BC01002070000020001F4FF080730360F4
:103BB000001F21F001030360001F034B0360143852
:103BC0000260203870470000213B000810B5002239
:103BD0000821084600F0AAF90149086010BD00005C
:103BE0001C0000201CB5FFF7F1FF002000900346E9
:103BF000802209A101900A4800F0F2F90948012148
:103C000000238022CDE9001007A1094800F0E8F95F
:103C100000F0EAF81CBD00005441534B5F41000026
:103C2000B1280008180000205441534B5F420000A7
:103C30003D2900082DE9F04104460F46164600F0E4
:103C400089F81C480068443050F8240080B90121EC
:103C5000184800684830015556B13046FFF7D2FD8C
:103C60004FF0805014490860BFF34F8FBFF36F8F40
:103C700000F082F800F06EF80E480068443050F80A
:103C800024506DB137B100210A480068443040F833
:103C9000241005E0681E07490968443141F82400F2
:103CA0000021044800684830015500F065F82846B6
:103CB000BDE8F0813000002004ED00E001460A6913
:103CC000D1E901309860D1E9010358605068884219
:103CD00001D188685060002008611068401E1060A3
:103CE0001068704700BF704700F1080141604FF055
:103CF000FF31816000F10801C160016100210160B4
:103D0000704700210161704710B502460B685C1CCA
:103D10000CB9106907E002F1080000E0406844684F
:103D200024689C42FAD944684C604C68A160886061
:103D300041600A611468641C146010BD42684A60E6
:103D400093688B60936859609160086103685B1C9D
:103D50000360704700BFBF2080F31188BFF34F8F0F
:103D6000BFF36F8F00BF03480068401C0149086023
:103D7000704700007800002006480068401E054992
:103D800008600846006820B9002080F3118800BF51
:103D900000BF7047780000207047000000204FF0FF
:103DA000E021086188610248486107200861704786
:103DB0003F19010070B50446002544B100F04AF8EF
:103DC00000212046FFF71EFD00F086FA05463DB9AA
:103DD0004FF0805003490860BFF34F8FBFF36F8FE0
:103DE00070BD000004ED00E01CB5124800210B4638
:103DF0008022CDE9001010A1114800F0F1F804462E
:103E0000012C14D100BFBF2080F31188BFF34F8F66
:103E1000BFF36F8F00BF4FF0FF300A4908600120E9
:103E20000949086000200949086000F04BF808487B
:103E300000681CBD6400002049444C45000000009F
:103E4000AD390008600000204C0000204400002034
:103E50006800002002480068401C01490860704763
:103E60006C0000201248006818B101201149086058
:103E70001DE000200F4908600F480068B0FA80F08C
:103E8000C0F11F0101EB81020C4B03EB8200426881
:103E90005268426000F108024368934202D14268CE
:103EA000526842604268D268054B1A6000BF704792
:103EB0006C0000205400002048000020EC0000208E
:103EC0003000002010B50A48006840F47F0008491F
:103ED00008600846006840F07F400860FFF75EFF1A
:103EE000002004490860FCF71DF9002010BD000007
:103EF00020ED00E07800002010B500BFBF2080F367
:103F00001188BFF34F8FBFF36F8F00BF00F016F91A
:103F100018B14FF080500449086000BF002080F3C2
:103F2000118800BF10BD000004ED00E02DE9F8434A
:103F300005460E46174605FB06F909F14800FFF74E
:103F4000FBFD04464CB1A04608F148083B464246FA
:103F5000314628460094FFF73FFD2046BDE8F88330
:103F600070B505460E462C46FFF7F4FED4E90F1255
:103F7000206801FB0200A0600020A0632068606050
:103F8000E06B401E226C216800FB0211E160FF2003
:103F900084F8440084F845009EB9206908B90120DE
:103FA00000E00020A8B904F1100000F055F980B13C
:103FB0004FF0805009490860BFF34F8FBFF36F8FF8
:103FC00007E004F11000FFF78FFE04F12400FFF773
:103FD0008BFEFFF7D1FE012070BD000004ED00E074
:103FE0002DE9FF4F85B0804689461746DDE912ABC3
:103FF000B800FFF7A1FD064656B14C20FFF79CFD27
:1040000004460CB1266304E03046FFF7C5FE00E02D
:1040100000247CB10020CDE900ABCDE902403A4656
:1040200049464046089BFFF7EAFC2046FFF736FC6E
:10403000012501E04FF0FF35284609B0BDE8F08FBB
:104040002DE9F05F81460D4616461F46DDF828A093
:104050004FF0010B4C46FFF77DFEBAF1000F05D083
:1040600004F1440050F82500CAF8000004F14800AB
:1040700010F8058002214155052F29D2DFE807F00D
:1040800027030D171C0004F1440050F825003043AD
:1040900004F1440141F825001BE004F1440050F80C
:1040A0002500401C04F1440141F8250011E004F111
:1040B000440040F825600CE0B8F1020F04D004F190
:1040C000440040F8256001E04FF0000B01E000E003
:1040D00000BF00BFB8F1010F22D1201DFFF7EEFD98
:1040E00094F82C10012088401049096808430F49B2
:1040F0000860E16A01EB81010D4A02EB8100211D9C
:10410000FFF71CFE0B49E06A0968C96A884207D9B3
:104110004FF0805008490860BFF34F8FBFF36F8F97
:10412000FFF72AFE5846BDE8F09F00004800002037
:10413000EC0000203000002004ED00E02DE9F0410B
:1041400000273A480068002867D139480068451CB4
:10415000374805608DB93748D0F800803648006888
:10416000344908603448C0F8008034480068401C76
:1041700032490860FFF7BCFC00BF31480068854247
:104180003BD300BF2B480068006808B9012000E05D
:10419000002020B14FF0FF30294908602CE025486D
:1041A0000068C068C4686668B54202D224480660E8
:1041B00022E0201DFFF782FDA06A18B104F118006B
:1041C000FFF77CFD94F82C10012088401D490968F8
:1041D00008431C490860E16A01EB81011A4A02EBBD
:1041E0008100211DFFF7AAFD1849E06A0968C96A24
:1041F0008842C7D30127C5E700BF14480068C06ADA
:1042000000EB8000104951F82000012800D9012757
:104210000F48006800B1012704E00E480068401C08
:104220000C4908603846BDE8F08100006C000020B1
:1042300044000020340000203800002058000020F6
:104240006000002048000020EC000020300000202A
:10425000540000205000002070B50646F068C46885
:1042600004F11800FFF72AFD15480068A8B9201DC1
:10427000FFF724FD94F82C100120884011490968AB
:10428000084310490860E16A01EB81010E4A02EB24
:104290008100211DFFF752FD04E004F118010B48D5
:1042A000FFF74CFD0A49E06A0968C96A884204D9E7
:1042B000012501200749086000E00025284670BD5F
:1042C0006C00002048000020EC0000207801002055
:1042D000300000205400002070B500240026FFF7B5
:1042E00039FD2E480068401E2C49086008460068C9
:1042F00000284FD12A48006800284BD024E02948E4
:10430000C068C46804F11800FFF7D8FC201DFFF74F
:10431000D5FC94F82C1001208840234909680843F3
:1043200021490860E16A01EB8101204A02EB81002A
:10433000211DFFF703FD1E49E06A0968C96A88422A
:1043400002D301201B4908601648006808B9012003
:1043500000E000200028D2D00CB1FFF7C9FB1648BE
:10436000056865B100BFFFF7E9FE10B101201149F2
:1043700008606D1E002DF6D100200F4908600D4821
:10438000006838B1012630070C490860BFF34F8F31
:10439000BFF36F8FFFF7F0FC304670BD6C0000205C
:1043A000400000207801002048000020EC000020A0
:1043B00030000020540000205000002004ED00E0F8
:1043C0003F000000060000005B0000004F000000FE
:1043D000660000006D0000007D0000002700000066
:1043E0007F0000006F0000000000000000000000DF
:1043F000010203040607080900000000010203048B
:1044000020440008000000207C0000004C2C000824
:104410009C4400087C0000203C3900005C2C000813
:10442000000000000000000000000000000000008C
:10443000000000000000000000000000000000007C
:1044400000000000100000000100000000A24A046B
:10445000000000000000000000000000000000005C
:10446000000000000000000000000000000000004C
:10447000000000000000000000000000000000003C
:104480000000000000000000040000000000000028
:0C4490000000000000000000AAAAAAAA78
:04000005080000ED02
:00000001FF
